:020000040800F2
:1000000000000220310D0008810D0008810D00085C
:10001000810D0008810D0008810D0008000000001E
:10002000000000000000000000000000810D00083A
:10003000810D000800000000810D0008810D0008FE
:10004000810D0008810D0008810D0008810D000858
:10005000810D0008810D0008810D0008810D000848
:10006000810D0008810D0008810D0008810D000838
:10007000810D0008810D0008810D0008810D000828
:10008000810D0008810D0008810D000800000000AE
:10009000000000000000000000000000810D0008CA
:1000A000810D0008810D0008810D0008810D0008F8
:1000B000810D0008810D0008810D0008810D0008E8
:1000C000810D0008810D0008810D0008810D0008D8
:1000D000810D0008810D0008810D0008000000005E
:1000E000810D0008810D0008810D0008000000004E
:1000F000000000000000000000000000810D00086A
:1001000000000000810D0008810D0008810D00082D
:1001100000000000000000000000000000000000DF
:10012000810D0008810D0008810D0008810D000877
:10013000810D000800000000000000000000000029
:10014000000000000000000000000000810D000819
:10015000810D0008810D0008810D0008810D000847
:10016000810D0008810D0008000000000000000063
:10017000000000000000000000000000000000007F
:1001800000000000810D00080000000000000000D9
:08019000810D0008810D00083B
:1001980010B5054C237833B9044B13B10448AFF3B9
:1001A80000800123237010BD5005002000000000CE
:1001B800D41C000808B5034B1BB103490348AFF32F
:1001C800008008BD0000000054050020D41C000871
:1001D800A3F5803A704700BF174B002B08BF134B9D
:1001E8009D46FFF7F5FF00218B460F461348144A3A
:1001F800121A00F04EFF0E4B002B00D098470D4B03
:10020800002B00D098470020002104000D000D4865
:10021800002802D00C4801F053F800F0BDFF200080
:10022800290000F01BFC00F0A9FD00BF0000080039
:100238000000000000000000000000005005002041
:1002480084080020C9120008F91B000880B483B094
:1002580000AF78607B6864229A627B684FF6FE7212
:10026800DA627B681B6843F001027B681A6000BF92
:100278000C37BD465DF8047B704780B483B000AF8F
:1002880078607B6800225A6200BF0C37BD465DF873
:10029800047B704780B400AF064BD3F88830054A1A
:1002A80043F47003C2F8883000BFBD465DF8047B94
:1002B800704700BF00ED00E080B487B000AF0023B6
:1002C8003B6100237B610223FB600023BB600223A8
:1002D8007B60344B9B6803F00C033B613B69082B44
:1002E80011D03B69082B44D83B69002B03D03B69EC
:1002F800042B04D03DE02C4B2C4A1A603DE02A4BDD
:100308002B4A1A6039E0274B5B689B0D03F0010309
:10031800BB60244B5B6803F03F037B60BB68002B2A
:100328000CD0234A7B68B2FBF3F31E4A5268920949
:10033800C2F3080202FB03F37B610BE01B4A7B68F4
:10034800B2FBF3F3174A52689209C2F3080202FBA0
:1003580003F37B61134B5B681B0C03F0030301334E
:100368005B00FB607A69FB68B2FBF3F30E4A13602B
:1003780003E00D4B0D4A1A6000BF0A4B9B681B092E
:1003880003F00F030B4AD35C3B61074B1A683B69C8
:1003980022FA03F3044A136000BF1C37BD465DF818
:1003A800047B704700380240040000200024F40059
:1003B80000127A00141D000880B487B000AF3B1DFE
:1003C80083E807000023FB823DE0FB8A01229A4074
:1003D800BB891846FB8A012101FA03F303409A42BC
:1003E8002ED17B681A683B7A1946FB8A5B0001FAB2
:1003F80003F319467B680A431A607B685A68BB7B1B
:100408001946FB8A01FA03F319467B680A435A60C6
:100418007B689A687B7A1946FB8A5B0001FA03F3CA
:1004280019467B680A439A607B68DA68BB7A194682
:10043800FB8A5B0001FA03F319467B680A43DA601A
:10044800FB8A0133FB82FB8A0F2BBED900BF00BF9A
:100458001C37BD465DF8047B704780B483B000AF9D
:1004680078600B467B807B685A697B885A407B683A
:100478005A6100BF0C37BD465DF8047B704780B4F5
:1004880083B000AF78600B467B8013467B707B7827
:10049800012B05D17B689A697B881A437B689A612E
:1004A8007B78002B06D17B689B697A8812041A43F3
:1004B8007B689A6100BF0C37BD465DF8047B7047C6
:1004C80084B090B400AF07F1080484E80F00BB695A
:1004D8009AB23B8E13409BB21846BD4690BC04B0FE
:1004E800704784B090B400AF07F1080484E80F00A7
:1004F8003B8EB3F5004F00F0FA80B3F5004F00F3E0
:10050800FD80B3F5804F00F0EB80B3F5804F00F32A
:10051800F580B3F5005F00F0DC80B3F5005F00F311
:10052800ED80B3F5805F00F0CD80B3F5805F00F318
:10053800E580B3F5006F00F0BE80B3F5006F00F3FF
:10054800DD80B3F5806F00F0AF80B3F5806F00F306
:10055800D580B3F5007F00F0A080B3F5007F00F3ED
:10056800CD80B3F5807F00F09180B3F5807F00F3F4
:10057800C580802B00F08380802B00F3BF80202B68
:100588004ADC002B40F3BA80013B1F2B00F2B680F7
:1005980001A252F823F000BF27060008330600081E
:1005A80005070008410600080507000805070008B8
:1005B800050700084F06000805070008050700089A
:1005C80005070008050700080507000805070008D3
:1005D800050700085D06000805070008050700086C
:1005E80005070008050700080507000805070008B3
:1005F80005070008050700080507000805070008A3
:100608000507000805070008050700080507000892
:10061800050700086B060008402B29D06EE0BB696F
:10062800DBB203F00103DBB269E0BB695B08DBB254
:1006380003F00103DBB262E0BB699B08DBB203F0A5
:100648000103DBB25BE0BB69DB08DBB203F001034B
:10065800DBB254E0BB691B09DBB203F00103DBB278
:100668004DE0BB695B09DBB203F00103DBB246E096
:10067800BB699B09DBB203F00103DBB23FE0BB6956
:10068800DB09DBB203F00103DBB238E0BB691B0A0C
:10069800DBB203F00103DBB231E0BB695B0ADBB21A
:1006A80003F00103DBB22AE0BB699B0ADBB203F06B
:1006B8000103DBB223E0BB69DB0ADBB203F0010311
:1006C800DBB21CE0BB691B0BDBB203F00103DBB23E
:1006D80015E0BB695B0BDBB203F00103DBB20EE094
:1006E800BB699B0BDBB203F00103DBB207E0BB691C
:1006F800DB0BDBB203F00103DBB200E0002318469A
:10070800BD4690BC04B0704780B500AF1C4B1B6859
:100718001B4A43F00103136000BF194B1B685B08B9
:1007280003F00103012BF8D1154B1B68144A43F45D
:100738008033136000BF124B1B685B0C03F001038E
:10074800012BF8D10E4B9B680D4A23F0F003936000
:100758000B4B9B680A4A23F003039360084B9B6882
:10076800074A43F00103936000BF054B9B689B0851
:1007780003F00303012BF8D1FFF79EFD00BF80BDF6
:100788000038024080B483B000AF0346FB71FB79A8
:1007980003F01F02074997F907305B09012000FAA7
:1007A80002F241F8232000BF0C37BD465DF8047BF8
:1007B800704700BF00E100E080B483B000AF78600C
:1007C8007B681B6819687B685A687B681B680A43E2
:1007D8001A607B681B6859687B689A687B681B6825
:1007E8000A435A607B681B687A68D268DA627B6859
:1007F8001A8A7B681B689A627B681B681A687B6820
:100808001B6842F001021A6000BF0C37BD465DF854
:10081800047B704780B582B000AF78600B46FB70F0
:100828001346BB707B681B6819687B685A687B68CD
:100838001B680A431A607B681B6859687B689A685A
:100848007B681B680A435A607B681B687A68D268B1
:10085800DA627B681A8A7B681B689A6297F90330A8
:100868001846FFF78FFF7B681B68DA687B681B6890
:1008780042F00102DA607B681B681A687B681B68B3
:1008880042F001021A6000BF0837BD4680BD80B43F
:1008980083B000AF78607B681B6843F001027B6817
:1008A8001A6000BF0C37BD465DF8047B704780B402
:1008B80083B000AF78607B681B6823F001027B6817
:1008C8001A6000BF0C37BD465DF8047B704780B4E2
:1008D80083B000AF78607B6800225A627B681B682F
:1008E80043F001027B681A6000BF0C37BD465DF813
:1008F800047B704780B483B000AF78607B685B6A24
:1009080018460C37BD465DF8047B704780B400AFCD
:100918001B4B1B6B1A4A43F001031363184B1B6CE8
:10092800174A43F400331364164B1B68154A23F027
:10093800F0031360134B1B68124A43F0A0031360C3
:10094800104B1B6A0F4A43F4EE4313620E4B1B68AD
:100958000E4A0F49A1FB03139B0A93600B4BDB68FC
:100968000A4A43F00C03D360084BDB68074A43F498
:100978000053D36000BFBD465DF8047B704700BFDD
:1009880000380240000002400400002000440040FB
:10099800B5814E1B80B487B000AFF860B9607A604B
:1009A80000237B6110E000BFFB681B6803F0800335
:1009B800002BF9D0BA687B6913441B781A46FB6888
:1009C8005A607B6901337B617A697B689A42EAD312
:1009D80000BFFB681B6803F04003002BF9D07B685D
:1009E80018461C37BD465DF8047B704780B584B057
:1009F80000AF0A4B1B6B094A43F008031363084A0C
:100A08003B1D07CA83E807003B1D93E80700FFF773
:100A1800D3FC00BF1037BD4680BD00BF0038024080
:100A28002C1D000880B582B000AFFFF733FCFFF73C
:100A38006BFE00F03BF9FFF7D9FF00237B6002E073
:100A48007B6801337B607B68034A9342F8DD00BF13
:100A580000BF0837BD4680BD9F86010080B582B0C3
:100A680000AF78603960FFF7DDFF4FF4704104484C
:100A7800FFF7F3FC4FF47A7000F040F9F5E700BF98
:100A8800000C0240701D00080000002050050020E6
:100A9800500500208408002080B400AF00BFBD4688
:100AA8005DF8047B704780B400AF01231846BD464B
:100AB8005DF8047B704780B582B000AF786039601C
:100AC80000F064FB034616221A604FF0FF33184605
:100AD8000837BD4680BD80B582B000AF78604FF062
:100AE800FF317868FFF7E7FFFEE780B586B000AF13
:100AF800F860B9607A6000237B610AE0AFF3008098
:100B08000146BB685A1CBA60CAB21A707B690133C5
:100B18007B617A697B689A42F0DB7B6818461837F4
:100B2800BD4680BD80B586B000AFF860B9607A6018
:100B380000237B6109E0BB685A1CBA601B78184621
:100B4800AFF300807B6901337B617A697B689A42E5
:100B5800F1DB7B6818461837BD4680BD80B483B08A
:100B680000AF78604FF0FF3318460C37BD465DF88C
:100B7800047B704780B483B000AF786039603B680D
:100B88004FF400525A60002318460C37BD465DF8F2
:100B9800047B704780B483B000AF786001231846A7
:100BA8000C37BD465DF8047B704780B485B000AF54
:100BB800F860B9607A60002318461437BD465DF8BE
:100BC800047B70470EB480B482B000AF78604FF0F9
:100BD800FF3318460837BD465DF8047B03B07047FD
:100BE80080B582B000AF786000F0D0FA03460A22E0
:100BF8001A604FF0FF3318460837BD4680BD80B5F0
:100C080082B000AF786000F0C1FA034602221A6091
:100C18004FF0FF3318460837BD4680BD80B483B017
:100C280000AF78604FF0FF3318460C37BD465DF8CB
:100C3800047B704780B483B000AF786039603B684C
:100C48004FF400525A60002318460C37BD465DF831
:100C5800047B704780B582B000AF7860396000F0DF
:100C680095FA03461F221A604FF0FF3318460837DB
:100C7800BD4680BD80B500AF00F088FA03460B2260
:100C88001A604FF0FF33184680BD80B584B000AFBE
:100C9800F860B9607A6000F079FA03460C221A60AD
:100CA8004FF0FF3318461037BD4680BD80B400AF03
:100CB8000E4B1B6C0D4A43F0020313640C4B1B686C
:100CC8000C4A0D49A1FB03139B099362094B4FF68C
:100CD800FE72DA62074B1B68064A43F00103136091
:100CE80000BFBD465DF8047B704700BF0038024076
:100CF8000400002000040040D34D621080B483B08B
:100D080000AF7860074B00225A6200BF054B5B6A50
:100D18007A689A42FAD200BF00BF0C37BD465DF828
:100D2800047B704700040040DFF834D00D480E49BA
:100D38000E4A002302E0D458C4500433C4188C422D
:100D4800F9D30B4A0B4C002301E013600432A24292
:100D5800FBD3FFF79FFA00F01FFAFFF77FFE7047FB
:100D6800000002200000002050050020701D00082F
:100D78005005002084080020FEE7000008B5002187
:100D8800044600F043FA034B1B6803B1984720461A
:100D9800FFF7A1FEA8060020002310B50446C0E90D
:100DA8000033C0E90433836081814366C281836173
:100DB800194608225C3000F06CF9054B2362054B9C
:100DC8006362054BA362054BE461E36210BD00BF9B
:100DD80011100008371000086F1000089310000861
:100DE800024A0349034800F0F1B800BF0C00002094
:100DF800891900081800002041680C4B994210B569
:100E0800044601D000F0BCFDA168094B994202D00C
:100E1800204600F0B5FDE168064B994204D0204613
:100E2800BDE8104000F0ACBD10BD00BF700500204B
:100E3800D80500204006002008B54B6EDA0705D417
:100E48008B899B0502D4886D00F0CFF9002008BD7E
:100E580008B54B6EDA0705D48B899B0502D4886DDB
:100E680000F0C9F9002008BD10B50B4B0B4C0C4A1B
:100E78001A60204600220421FFF78EFF04F1680063
:100E880001220921FFF788FF04F1D0000222BDE802
:100E980010401221FFF780BFA8060020700500202F
:100EA800E90D0008014800F0A0B900BFB60600200F
:100EB800014800F0A0B900BFB60600202DE9F041B6
:100EC8000746FFF7EFFF244B1B680BB9FFF7CCFF72
:100ED800224E4FF00408D6E90134013B0FD535689E
:100EE800002D37D14FF4D671384600F003FB044685
:100EF80030BB3060FFF7DCFF0C233B601BE0B4F92C
:100F08000C50DDB9164BE36004F15800656600F03B
:100F180068F9FFF7CDFFC4E90155C4E90455256018
:100F2800A5610822294604F15C0000F0B2F8C4E982
:100F38000C55C4E911552046BDE8F0816834CCE76A
:100F4800C0E900580C30A0604FF4D072294600F078
:100F5800A0F834603668BEE7A80600200C00002020
:100F68000100FFFF10B50446FFF79CFF636B1BB140
:100F7800BDE81040FFF79CBF044B6363044B1B683C
:100F8800002BF5D1FFF770FFF2E700BF010E000854
:100F9800A806002008B5FFF785FFBDE80840024A0B
:100FA8000249002000F012B80C000020410E000891
:100FB80008B5044A0449002000F008F8BDE80840D4
:100FC800FFF776BF0C000020590E00082DE9F84302
:100FD8000746884614460026D4E90195B9F1010967
:100FE80005D52468002CF7D13046BDE8F883AB89D5
:100FF800012B07D9B5F90E30013303D029463846FD
:10100800C04706436835E9E710B50C46B1F90E103C
:1010180000F098F80028ABBF236DA3891B1823F4B0
:101028008053ACBF2365A38110BD002070472DE914
:10103800F0411F468B89DB0505460C46164605D54B
:10104800B1F90E100223002200F06AF8A389B4F95E
:101058000E1023F48053A38132463B462846BDE850
:10106800F04100F081B810B50C46B1F90E1000F04F
:1010780057F8431CA38915BF206523F4805343F414
:101088008053A38118BFA38110BDB1F90E1000F0E1
:1010980009B802440346934200D1704703F8011B84
:1010A800F9E7000038B5064D0023044608462B60D2
:1010B800FFF754FD431C02D12B6803B1236038BDF0
:1010C800AC060020154B1B68834270B5044623D03C
:1010D800436CFBB9A16B11B1204600F04BF9E16CF0
:1010E80011B1204600F046F9636BABB12046BDE86C
:1010F80070401847495939B90435802D616CF9D1C8
:10110800204600F037F9E5E70E68204600F032F98E
:101118003146F0E70025F0E770BD00BF3801002038
:1011280038B5074D04460846114600222A601A467B
:10113800FFF73BFD431C02D12B6803B1236038BD88
:10114800AC06002038B5074D044608461146002273
:101158002A601A46FFF7C9FC431C02D12B6803B169
:10116800236038BDAC06002038B5074D0446084654
:10117800114600222A601A46FFF7D4FC431C02D10C
:101188002B6803B1236038BDAC060020014B1868FA
:10119800704700BF3801002070B50D4D0D4C641B21
:1011A800A4100026A64209D10B4D0C4C00F090FD6E
:1011B800641BA4100026A64205D170BD55F8043B57
:1011C80098470136EEE755F8043B98470136F2E7B1
:1011D800641D0008641D0008641D00086C1D0008DB
:1011E80070477047704770477047704701207047D5
:1011F8000120704770477047024B13B1024800F056
:101208005FB8704700000000F91B00082DE9F74F90
:10121800DFF8A480DFF8A4900746D8F800000E464F
:10122800FFF7E3FF4FF0010AD9F8005035B9D8F8B5
:10123800000003B0BDE8F04FFFF7DDBF6C6804F1B4
:10124800FF3B013405EB8404BBF1000FEFDB3EB13B
:10125800D4F80021B24203D00BF1FF3B043CF3E782
:10126800696822680139594516BF0023C5F804B0DA
:101278002360002AF0D0D5F888116B6801930AFA28
:101288000BFC1CEA010F09D190476968019BD9F84A
:1012980000209942C8D19542DED0C5E7D5F88C0127
:1012A800D4F880101CEA000F02D138469047ECE7CA
:1012B80008469047E9E700BF3C010020B806002037
:1012C800002301461A46184600F0B2BC2DE9F04149
:1012D800064608200C4600F09FFC234F8046304607
:1012E80000F042FBBB685D6825F003052C1B113C30
:1012F8004444B4FBF8F4013C08FB04F4A04505DDC4
:10130800304600F037FB0020BDE8F0810021304670
:1013180000F05EFCBB682B449842F1D16142304634
:1013280000F056FC013010D10021304600F050FC8E
:10133800BA68831A0F2BE3DD0C490968401A0C4977
:1013480043F0010308605360DAE7BB68084A2D1BC5
:1013580045F001055D60136830461B1B136000F003
:1013680009FB0120D0E700BF40010020480500200C
:10137800BC060020F8B505460F46002900F0B180EC
:1013880000F0F2FA57F8042C564822F00104A7F1AD
:10139800080303EB040C8168DCF80460614526F05F
:1013A800030602F001021BD126443AB957F8082C6B
:1013B8009B1A1644D3E90212CA60916046F00102F2
:1013C8005A608360484B1B68B34204D8474B284691
:1013D8001968FFF77BFF2846BDE8F84000F0CABA55
:1013E800CCF80460002A38D157F8081C5B1A0C4462
:1013F800996800F10807B94231D0DF68CF60B96059
:101408000CEB06014968C9070BD4DCF80810344412
:101418003ABB374EB14224D1C0E90433C3E90211C3
:10142800012244F0010159601C51002AD3D1B4F5BE
:10143800007F1BD2E20801216409A14044680132FF
:101448002143416050F8324000EBC2010839C3E93A
:10145800024140F83230E360BDE70022D0E70122C4
:10146800CEE7DCF80C60CE60B160DAE7B4F5206F47
:101478004FEA542214D2A2093832511C00EBC2069A
:1014880050F831108E4225D10124921004FA02F24C
:10149800446822434260C3E90216B360CB609AE70E
:1014A800142A01D85B32E8E7542A02D8220B6E329C
:1014B800E3E7B2F5AA7F02D8E20B7732DDE740F224
:1014C80054518A429ABFA20C7C327E22D5E78968A1
:1014D8008E4204D04A6822F00302A242F7D8CE68AE
:1014E800D9E7F8BD400100204C050020EC0600209B
:1014F8004801002001F10B03162B2DE9F74F054693
:1015080006D933F0070704D50C232B600024A3E188
:101518001027B942F8D8284600F026FAB7F5FC7F1C
:10152800AF4E37D207F108023244A2F108015468DD
:101538008C424FEAD70302D1D468A24210D0636824
:10154800D4E9021223F00303CA60234491605A6865
:1015580042F001025A60284600F00CFA08347BE198
:10156800023334699F498C4277D0626822F0030CB9
:10157800ACEB07000F2848DDE21940F0010347F003
:1015880001076760C6E90422C2E90211536044F802
:101598000C00E0E77B0A2AD0042B12D8BB093833A9
:1015A8005A1C06EBC202A2F1080C5468644506D026
:1015B800626822F00302D01B0F281CDD013B0133B7
:1015C800CFE7142B01D85B33EAE7542B02D83B0B47
:1015D8006E33E5E7B3F5AA7F02D8FB0B7733DFE775
:1015E80040F25452934204D8BB0C7C33D8E73F23D3
:1015F800D6E77E23D4E70028E16804DBA368D96036
:101608008B60A318A3E70C46D0E70028C6E90411AD
:1016180007DBA444DCF8043043F00103CCF80430C1
:1016280099E7BCF5007F706880F095804FEADC028E
:101638004FEA5C1E4FF0010C01320CFA0EFC4CEA2A
:101648000000706056F832C006EBC2000838C4E9E2
:1016580002C046F83240CCF80C4098100122824073
:101668007068904226D3104206D123F0030352003B
:10167800104203F10403FAD006EBC308C1469E46A4
:10168800D9F80C404C4540F0B9800EF1010E1EF01F
:10169800030F09F10809F3D1980740F0E380736854
:1016A80023EA0203736070685200904202D3002A52
:1016B80040F0E580D6F808A0DAF8043023F00309F2
:1016C800B94504D3A9EB07020F2A00F34181464B21
:1016D8001968103139440820019100F09DFA434AF5
:1016E8000199136801331FBF01F1FF310918434203
:1016F800194080462846019100F06AFA421C0AEB1C
:10170800090B044600F0F78083450199374A02D94E
:10171800B24540F0F080364B1868A34500EB010E47
:10172800C3F800E008F1FF3C40F0AB801BEA0C0F67
:1017380040F0A780B268494441F0010151602D4A48
:101748001B6811688B4288BF13602B4A11688B4253
:1017580088BF1360CFE0BCF5206F4FEA5C2218D237
:101768004FEA9C12383202F1010E06EBC20856F815
:101778003EE0F0452BD192104FF0010C0CFA02F22A
:1017880002437260C4E902E8C8F80840CEF80C4089
:1017980063E7142A01D85B32E5E7542A03D84FEAF5
:1017A8001C326E32DFE7B2F5AA7F03D84FEADC328B
:1017B8007732D8E740F2545E72459ABF4FEA9C42AE
:1017C8007C327E22CFE7DEF808E0F04505D0DEF86F
:1017D800042022F003026245F5D8DEF80C80D1E738
:1017E8004001002048010020EC06002048050020A8
:1017F800BC060020E4060020E80600206068D4F853
:101808000CC020F00300A0EB070ABAF10F0F12DD9D
:10181800A368E21947F001076760C3F80CC0CCF869
:1018280008304AF00103C6E90422C2E902115360F4
:1018380044F800A08FE6BAF1000F11DB204443689A
:1018480043F00103436054F8083F2846C3F80CC02E
:10185800CCF8083000F08EF8204603B0BDE8F08FD1
:1018680064460FE758F80809404503F1FF333FF491
:1018780013AF18E7043352001042FBD0FCE673465E
:10188800FAE7106801301BBFA4EB0B0B0BEB0E0241
:1018980014601A6014F0070B1ABFCBF10800241863
:1018A8005846621802EA0C018044A8EB010808EACD
:1018B8000C0841462846019200F08AF9431C019A17
:1018C800284B07D1BBF1000F23D0ABF1080010441F
:1018D8004FF000081A68B460001B4044424440F0CE
:1018E8000100B2451A6060603FF429AFB9F10F0FEB
:1018F80012D801236360B3685B6823F00303BB421B
:10190800A3EB070201D30F2A22DC284600F032F8A5
:10191800FCE51046D846DDE7DAF80420A9F10C0901
:1019280029F0070902F0010242EA0902CAF8042074
:1019380005210AEB0902B9F10F0FC2E901117FF67F
:10194800FEAE0AF108012846FFF714FD054BF6E63E
:10195800B46847F00103274442F001026360B760AE
:101968007A60F8E5BC0600200148FFF73EBC00BFDE
:10197800B50600200148FFF73EBC00BFB5060020B1
:1019880070B506460C4611B90025284670BD18B139
:10199800436B0BB9FFF7E6FA636ED80705D4A38942
:1019A800990502D4A06DFFF720FCB4F90C303BB9BF
:1019B800656E15F00105E7D1A06DFFF71CFCE4E7A3
:1019C8002146304600F03CF8E36A054633B1E16948
:1019D800304698470028B8BF4FF0FF35A3891A064C
:1019E80003D521693046FFF7C5FC216B41B104F1ED
:1019F8004003994202D03046FFF7BCFC0023236322
:101A0800616C21B13046FFF7B5FC00236364FFF732
:101A180049FA0023A381636EDB0702D4A06DFFF7A8
:101A2800EAFBA06DFFF7DFFBFFF742FAADE7000026
:101A3800024B01461868FFF7A3BF00BF380100201A
:101A48008B89B1F90C202DE9F041054618070C46A1
:101A58005FD44B6842F40062002B8A8105DCCB6BB3
:101A6800002B02DC0020BDE8F081A66A002EF9D028
:101A7800002312F480522F68E1692B6036D0206D64
:101A8800A3895A0705D56368C01A236B0BB1E36BAA
:101A9800C01A00230246A66AE1692846B047431CDB
:101AA800A38906D129681D292FD82B4A0A41D607B0
:101AB8002BD423F400631BB200226260D90422698C
:101AC800A381226004D5421C01D12B6803B920658B
:101AD800216B2F600029C5D004F14003994202D040
:101AE8002846FFF747FC00202063BCE7012328466F
:101AF800B047411CC4D12B68002BC1D01D2B01D08D
:101B0800162B01D12F60ADE7A38943F04003A381D1
:101B1800A9E70F69002FA5D09B070E6808BF4B697E
:101B28000F6018BF0023A6EB07088B60B8F1000F01
:101B380098DDE169666A43463A462846B047002878
:101B480006DCA38943F04003A3814FF0FF308AE706
:101B58000744A8EB0008E9E7FEFFBFDF38B50C46ED
:101B6800054618B1436B0BB9FFF7FCF9B4F90C3013
:101B7800BBB1626ED00704D4990502D4A06DFFF7FB
:101B880034FB28462146FFF75BFF636EDA070546FC
:101B980005D4A3899B0502D4A06DFFF72CFB28462A
:101BA80038BD1D46FBE70000014620B9044A054937
:101BB8000548FFF70BBA054B1868FFF7CFBF00BF02
:101BC8000C000020651B00081800002038010020C8
:101BD80038B5064D0023044608462B6000F068F827
:101BE800431C02D12B6803B1236038BDAC0600202A
:101BF80038B5074D074C641BA4101CB9BDE8384024
:101C080000F06CB8013C55F824309847F5E700BF60
:101C18006C1D0008701D0008082808B506D0FFF7DD
:101C2800B5FA162303604FF0FF3008BD8020FCE7AB
:101C38002DE9F047DFF874A00646DAF80000984668
:101C48000F469146FFF7D1FA164B1C680CB9164C93
:101C58001C606568DAF800001F2D05DDFFF7CBFA78
:101C68004FF0FF30BDE8F0879EB104EB85010122FB
:101C7800C1F88890D4F88831AA401343C4F8883151
:101C8800022EC1F8088102BFD4F88C311343C4F87E
:101C98008C316B1C0235636044F82570FFF7ABFA92
:101CA8000020DFE7B8060020F00600203C010020F5
:101CB800044A1168034609B90349116010680344CE
:101CC800136070478008002088080020000000008A
:101CD800F8B500BFF8BC08BC9E467047F8B500BF11
:081CE800F8BC08BC9E467047E1
:101CF0003B3E0B3E103E253E333E033E063E143E29
:101D00000E3E0D3E243E123E273E023E183E093E48
:101D10000A3E000000000000000000000102030471
:101D2000060708090000000001020304000C02403D
:101D30000100020000F000003B3E0B3E103E253E3D
:101D4000333E033E063E143E0E3E0D3E243E123E02
:0C1D5000273E023E183E093E0A3E0000FD
:081D5C007CE4FF7F01000000A0
:081D640001120008BD01000896
:041D6C0099010008D1
:101D7000000000000024F4006C05002000000000BA
:101D80000300000070050020000000007005002026
:101D9000D8050020400600200000000000000000E0
:101DA0000000000000000000000000000000000033
:101DB0000000000000000000000000000000000023
:101DC0000000000000000000000000000000000013
:101DD0000000000000000000000000000000000003
:101DE00000000000000000000000000000000000F3
:101DF00000000000000000000000000000000000E3
:101E000000000000000000000000000000000000D2
:101E100000000000000000000000000000000000C2
:101E200001000000000000000E33CDAB34126DE65F
:101E3000ECDE05000B0000000000000000000000C8
:101E40000000000000000000000000000000000092
:101E50000000000000000000000000000000000082
:101E60000000000000000000000000000000000072
:101E70000000000000000000000000000000000062
:101E80000000000000000000000000000000000052
:101E90000000000000000000000000000000000042
:101EA000000000000000000018000020B206002022
:101EB0000000000000000000400100204001002060
:101EC000480100204801002050010020500100205E
:101ED000580100205801002060010020600100200E
:101EE00068010020680100207001002070010020BE
:101EF000780100207801002080010020800100206E
:101F0000880100208801002090010020900100201D
:101F10009801002098010020A0010020A0010020CD
:101F2000A8010020A8010020B0010020B00100207D
:101F3000B8010020B8010020C0010020C00100202D
:101F4000C8010020C8010020D0010020D0010020DD
:101F5000D8010020D8010020E0010020E00100208D
:101F6000E8010020E8010020F0010020F00100203D
:101F7000F8010020F80100200002002000020020EB
:101F80000802002008020020100200201002002099
:101F90001802002018020020200200202002002049
:101FA00028020020280200203002002030020020F9
:101FB00038020020380200204002002040020020A9
:101FC0004802002048020020500200205002002059
:101FD0005802002058020020600200206002002009
:101FE00068020020680200207002002070020020B9
:101FF0007802002078020020800200208002002069
:102000008802002088020020900200209002002018
:102010009802002098020020A0020020A0020020C8
:10202000A8020020A8020020B0020020B002002078
:10203000B8020020B8020020C0020020C002002028
:10204000C8020020C8020020D0020020D0020020D8
:10205000D8020020D8020020E0020020E002002088
:10206000E8020020E8020020F0020020F002002038
:10207000F8020020F80200200003002000030020E6
:102080000803002008030020100300201003002094
:102090001803002018030020200300202003002044
:1020A00028030020280300203003002030030020F4
:1020B00038030020380300204003002040030020A4
:1020C0004803002048030020500300205003002054
:1020D0005803002058030020600300206003002004
:1020E00068030020680300207003002070030020B4
:1020F0007803002078030020800300208003002064
:102100008803002088030020900300209003002013
:102110009803002098030020A0030020A0030020C3
:10212000A8030020A8030020B0030020B003002073
:10213000B8030020B8030020C0030020C003002023
:10214000C8030020C8030020D0030020D0030020D3
:10215000D8030020D8030020E0030020E003002083
:10216000E8030020E8030020F0030020F003002033
:10217000F8030020F80300200004002000040020E1
:10218000080400200804002010040020100400208F
:10219000180400201804002020040020200400203F
:1021A00028040020280400203004002030040020EF
:1021B000380400203804002040040020400400209F
:1021C000480400204804002050040020500400204F
:1021D00058040020580400206004002060040020FF
:1021E00068040020680400207004002070040020AF
:1021F000780400207804002080040020800400205F
:10220000880400208804002090040020900400200E
:102210009804002098040020A0040020A0040020BE
:10222000A8040020A8040020B0040020B00400206E
:10223000B8040020B8040020C0040020C00400201E
:10224000C8040020C8040020D0040020D0040020CE
:10225000D8040020D8040020E0040020E00400207E
:10226000E8040020E8040020F0040020F00400202E
:10227000F8040020F80400200005002000050020DC
:10228000080500200805002010050020100500208A
:10229000180500201805002020050020200500203A
:1022A00028050020280500203005002030050020EA
:1022B0003805002038050020FFFFFFFF0000020066
:0400000508000D31B1
:00000001FF
