:020000040800F2
:1000000000000220916E0008E16E0008E16E000819
:10001000E16E0008E16E0008E16E000800000000DB
:10002000000000000000000000000000A10A00081D
:10003000E16E0008000000001D0D0008870D00089B
:10004000E16E0008E16E0008E16E0008E16E000854
:10005000E16E0008E16E0008E16E0008E16E000844
:10006000E16E0008E16E0008E16E0008E16E000834
:10007000E16E0008E16E0008E16E0008E16E000824
:10008000E16E0008E16E0008E16E0008000000006B
:10009000000000000000000000000000E16E000809
:1000A000E16E0008E16E0008E16E0008E16E0008F4
:1000B000E16E0008E16E0008E16E0008E16E0008E4
:1000C000E16E0008E16E0008E16E0008E16E0008D4
:1000D000E16E0008E16E0008E16E0008000000001B
:1000E000E16E0008E16E0008E16E0008000000000B
:1000F000000000000000000000000000E16E0008A9
:1001000000000000E16E0008E16E0008E16E0008EA
:1001100000000000000000000000000000000000DF
:10012000E16E0008E16E0008E16E0008E16E000873
:10013000E16E000800000000000000000000000068
:10014000000000000000000000000000E16E000858
:10015000E16E0008E16E0008E16E0008E16E000843
:10016000E16E0008E16E00080000000000000000E1
:10017000000000000000000000000000000000007F
:1001800000000000E16E0008000000000000000018
:08019000E16E0008E16E0008B9
:1001A00010B5054C237833B9044B13B10448AFF3B1
:1001B00000800123237010BD5805002000000000BE
:1001C000507E000808B5034B1BB103490348AFF349
:1001D000008008BD000000005C050020507E000883
:1001E000A3F5803A704700BF174B002B08BF134B95
:1001F0009D46FFF7F5FF00218B460F461348144A32
:10020000121A06F0FAFF0E4B002B00D098470D4B48
:10021000002B00D098470020002104000D000D485D
:10022000002802D00C4807F00DF907F069F820000B
:10023000290006F0A9FC06F055FE00BF00000800EA
:100240000000000000000000000000005805002031
:100250004036012045740008757D000880B582B0E5
:1002600000AF1C2000F020FE78607B68002B07D0D8
:100270007B6800221A607B680433184600F0FAFAA3
:100280007B6818460837BD4680BD80B58CB000AF8E
:10029000F860B9607A603B60FB68BB6200237B62F8
:1002A0007B6803F07F43002B0AD04FF0500383F3A9
:1002B0001188BFF36F8FBFF34F8FBB6100BFFEE7A5
:1002C0007B68002B0AD14FF0500383F31188BFF3F2
:1002D0006F8FBFF34F8F7B6100BFFEE704F0FAFD25
:1002E0000346002B02D13B68002B01D1012300E023
:1002F0000023002B0AD14FF0500383F31188BFF382
:100300006F8FBFF34F8F3B6100BFFEE703F060FFCD
:10031000BB6A1B683B62B968F86800F08FF93A6AFB
:10032000BB681A437B6813407A689A420DD13A6AD7
:10033000BB681343FB62BB6A1A687B68DB431A40E5
:10034000BB6A1A6000233B6013E03B68002B0BD0B4
:10035000BB6A181D7B6843F0A0633A68194604F035
:1003600021FA0023FB6204E0BB6A1B68FB620123E5
:100370007B6203F03BFFF8613B68002B2CD0FB69EC
:10038000002B07D1174B4FF080521A60BFF34F8FED
:10039000BFF36F8F04F03AFFF862FB6A03F000735B
:1003A000002B15D100F060FCBB6A1B68FB62FA6A87
:1003B0007B6813407A689A4206D1BB6A1A687B68E8
:1003C000DB431A40BB6A1A6000F07EFC01237B62AB
:1003D000FB6A23F07F43FB62FB6A18463037BD4659
:1003E00080BD00BF04ED00E080B590B000AFF860C4
:1003F000B9607A603B60FB687B630023BB630023CA
:100400003B63FB68002B0AD14FF0500383F3118844
:10041000BFF36F8FBFF34F8F3B6200BFFEE7BB6838
:1004200003F07F43002B0AD04FF0500383F3118871
:10043000BFF36F8FBFF34F8FFB6100BFFEE7BB6859
:10044000002B0AD14FF0500383F31188BFF36F8F55
:10045000BFF34F8FBB6100BFFEE704F03BFD0346D7
:10046000002B02D1BB6C002B01D1012300E0002343
:10047000002B0AD14FF0500383F31188BFF36F8F25
:10048000BFF34F8F7B6100BFFEE703F0A1FE7B6BE4
:100490001B68FB623A68B968F86A00F0A5F9B862AF
:1004A000BB6A002B0ED0FB6AFB630023BB647B6836
:1004B000002B28D07B6B1A68BB68DB431A407B6B30
:1004C0001A6020E0BB6C002B04D1FB6AFB630123A4
:1004D0003B6318E07B68002B03D0BB6B43F0807359
:1004E000BB633B68002B03D0BB6B43F08063BB63F3
:1004F0007B6B181DBA68BB6B1343BA6C194604F0CA
:1005000051F90023FB6303F071FE7862BB6C002B92
:1005100031D07B6A002B07D1194B4FF080521A6003
:10052000BFF34F8FBFF36F8F04F070FEF863FB6B68
:1005300003F00073002B1AD100F096FB7B6B1B6855
:10054000FB633A68B968F86B00F04EF90346002B7C
:1005500009D07B68002B06D07B6B1A68BB68DB4335
:100560001A407B6B1A6001233B6300F0ADFBFB6B11
:1005700023F07F43FB63FB6B18464037BD4680BDCD
:1005800004ED00E080B586B000AF786039607B682C
:100590007B617B68002B0AD14FF0500383F31188F5
:1005A000BFF36F8FBFF34F8FFB6000BFFEE73B6869
:1005B00003F07F43002B0AD04FF0500383F31188E0
:1005C000BFF36F8FBFF34F8FBB6000BFFEE700F03C
:1005D0004BFB7B691B683B617B691A683B68DB43AB
:1005E0001A407B691A6000F06FFB3B6918461837A8
:1005F000BD4680BD80B489B000AF78607B68FB6188
:10060000EFF311824FF0500383F31188BFF36F8F24
:10061000BFF34F8FFA60BB60FB68BB61FB691B686F
:100620007B61BB693B613B6983F3118800BF7B69D8
:1006300018462437BD465DF8047B704780B58EB000
:1006400000AF7860396000233B637B68BB620023A6
:10065000FB627B68002B0AD14FF0500383F31188B3
:10066000BFF36F8FBFF34F8F3B6100BFFEE73B6867
:1006700003F07F43002B0AD04FF0500383F311881F
:10068000BFF36F8FBFF34F8FFB6000BFFEE7BB6A06
:1006900004337B627B6A08333B6203F099FD7B6A1B
:1006A000DB687B63BB6A1A683B681A43BB6A1A60E3
:1006B0003CE07B6B5B68FB617B6B1B68BB61002371
:1006C000FB62BB6903F07F437B61BB6923F07F431F
:1006D000BB617B6903F08063002B08D1BB6A1A6899
:1006E000BB691340002B0BD00123FB6208E0BB6AFF
:1006F0001A68BB691340BA699A4201D10123FB62AF
:10070000FB6A002B10D07B6903F08073002B03D0B1
:100710003A6BBB6913433B63BB6A1B6843F00073CE
:100720001946786B04F008F9FB697B637A6B3B6AC6
:100730009A42BED1BB6A1A683B6BDB431A40BB6A64
:100740001A6003F053FDBB6A1B6818463837BD4674
:1007500080BD80B586B000AF78607B687B617B69C7
:1007600004333B6103F034FD17E03B69DA683B6911
:1007700008339A420AD14FF0500383F31188BFF334
:100780006F8FBFF34F8FFB6000BFFEE73B69DB68F5
:100790004FF00071184604F0CFF83B691B68002B3E
:1007A000E3D1786900F060FC03F020FD00BF18374A
:1007B000BD4680BD80B582B000AF786039603968D1
:1007C0007868FFF73BFF00BF0837BD4680BD80B5A6
:1007D00082B000AF7860396039687868FFF7D2FE80
:1007E00000BF0837BD4680BD80B487B000AFF86059
:1007F000B9607A6000237B617B68002B07D1FA68BF
:10080000BB681340002B0AD001237B6107E0FA6824
:10081000BB681340BA689A4201D101237B617B69AE
:1008200018461C37BD465DF8047B704780B485B020
:1008300000AF78607B68BB607B68002B02D100232F
:10084000FB6002E0BB689B69FB60FB6818461437DD
:10085000BD465DF8047B704780B483B000AF78601C
:1008600039607B683A689A6100BF0C37BD465DF815
:10087000047B704780B483B000AF78607B6803F17D
:1008800008027B685A607B684FF0FF329A607B6891
:1008900003F108027B68DA607B6803F108027B6879
:1008A0001A617B6800221A6000BF0C37BD465DF8F4
:1008B000047B704780B483B000AF78607B6800220F
:1008C0001A6100BF0C37BD465DF8047B704780B4E9
:1008D00085B000AF786039607B685B68FB603B681F
:1008E000FA685A60FB689A683B689A60FB689B6884
:1008F0003A685A60FB683A689A603B687A681A619D
:100900007B681B685A1C7B681A6000BF1437BD46A1
:100910005DF8047B704780B485B000AF78603960C3
:100920003B681B68BB60BB68B3F1FF3F03D17B68CA
:100930001B69FB600CE07B680833FB6002E0FB682E
:100940005B68FB60FB685B681B68BA689A42F6D21A
:10095000FB685A683B685A603B685B683A689A6013
:100960003B68FA689A60FB683A685A603B687A6844
:100970001A617B681B685A1C7B681A6000BF1437B9
:10098000BD465DF8047B704780B485B000AF7860E9
:100990007B681B69FB607B685B687A6892689A6019
:1009A0007B689B687A6852685A60FB685B687A6803
:1009B0009A4203D17B689A68FB685A607B68002280
:1009C0001A61FB681B685A1EFB681A60FB681B688B
:1009D00018461437BD465DF8047B704700000000E0
:1009E00080B485B000AFF860B9607A60FB68043B02
:1009F000FB60FB684FF080721A60FB68043BFB6091
:100A0000BB6823F00102FB681A60FB68043BFB60D3
:100A10000C4AFB681A60FB68143BFB607A68FB6851
:100A20001A60FB68043BFB60FB686FF002021A600F
:100A3000FB68203BFB60FB6818461437BD465DF839
:100A4000047B7047490A000880B485B000AF0023DA
:100A50007B60124B1B68B3F1FF3F0AD04FF050038D
:100A600083F31188BFF36F8FBFF34F8FFB6000BF1D
:100A7000FEE74FF0500383F31188BFF36F8FBFF38E
:100A80004F8FBB6000BF00BF7B68002BFCD000BF56
:100A900000BF1437BD465DF8047B7047040000209A
:100AA000074B19680868B0E8F04F80F30988BFF376
:100AB0006F8F4FF0000080F311887047AFF3008014
:100AC000DC31012000BF08480068006880F3088816
:100AD0004FF0000080F3148862B661B6BFF34F8F09
:100AE000BFF36F8F00DF00BF08ED00E000BF80B5EF
:100AF00086B000AF454B1B68454A93420AD14FF080
:100B0000500383F31188BFF36F8FBFF34F8F3B61A7
:100B100000BFFEE73D4B1B683E4A93420AD14FF0AF
:100B2000500383F31188BFF36F8FBFF34F8FFB60C8
:100B300000BFFEE7384B7B617B691B78DBB27B60D3
:100B40007B69FF221A707B691B78DBB2FB70FB7834
:100B5000DBB203F05003DAB2304B1A70304B07228D
:100B60001A6009E02E4B1B68013B2D4A1360FB788D
:100B7000DBB25B00DBB2FB70FB78DBB203F080031F
:100B8000802BEFD0264B1B68C3F10703042B0AD040
:100B90004FF0500383F31188BFF36F8FBFF34F8F74
:100BA000BB6000BFFEE71E4B1B681B021C4A1360A4
:100BB0001B4B1B6803F4E063194A13607B68DAB2CD
:100BC0007B691A70174B1B68164A43F47003136055
:100BD000144B1B68134A43F07043136000F0F6F89F
:100BE000114B00221A6000F015F9104B1B680F4AD8
:100BF00043F040431360FFF766FF03F053FDFFF738
:100C000023FF002318461837BD4680BD00ED00E0E5
:100C100071C20F4170C20F4100E400E07405002072
:100C20007805002020ED00E00400002034EF00E013
:100C300080B483B000AF0B4B1B68B3F57A7F0AD04A
:100C40004FF0500383F31188BFF36F8FBFF34F8FC3
:100C50007B6000BFFEE700BF0C37BD465DF8047B3C
:100C6000704700BF0400002080B483B000AF4FF095
:100C7000500383F31188BFF36F8FBFF34F8F7B60F7
:100C800000BF0F4B1B6801330D4A13600C4B1B68F0
:100C9000012B0FD10B4B1B68DBB2002B0AD04FF09E
:100CA000500383F31188BFF36F8FBFF34F8F3B6007
:100CB00000BFFEE700BF0C37BD465DF8047B704700
:100CC0000400002004ED00E080B483B000AF124BBC
:100CD0001B68002B0AD14FF0500383F31188BFF338
:100CE0006F8FBFF34F8F7B6000BFFEE70A4B1B681F
:100CF000013B094A1360084B1B68002B05D10023F8
:100D00003B603B6883F3118800BF00BF0C37BD46D2
:100D10005DF8047B704700BF04000020EFF30980FA
:100D2000BFF36F8F164B1A681EF0100F08BF20ED2F
:100D3000108A20E9F04F10602DE909004FF05000B3
:100D400080F31188BFF34F8FBFF36F8F03F0AAFCBE
:100D50004FF0000080F3118809BC19680868B0E8FA
:100D6000F04F1EF0100F08BFB0EC108A80F3098816
:100D7000BFF36F8F704700BFAFF30080AFF3008009
:100D8000DC31012000BF80B582B000AF4FF05003CE
:100D900083F31188BFF36F8FBFF34F8F7B6000BF6A
:100DA00003F0C8FB0346002B03D0074B4FF08052E3
:100DB0001A6000233B603B6883F3118800BF00BFCB
:100DC0000837BD4680BD00BF04ED00E080B400AF31
:100DD0000B4B00221A600B4B00221A600A4B1B6857
:100DE0000A4AA2FB03239B09094A013B1360044BF7
:100DF00007221A6000BFBD465DF8047B704700BF44
:100E000010E000E018E000E00C000020D34D62107C
:100E100014E000E0DFF80C00016841F470010160AB
:100E20007047000088ED00E000BF80B485B000AFDF
:100E3000EFF30583FB60FB680F2B14D9164AFB68A0
:100E400013441B78FB72154B1B78FA7A9A420AD22C
:100E50004FF0500383F31188BFF36F8FBFF34F8FB1
:100E60007B6000BFFEE70E4B1B6803F4E0620D4B96
:100E70001B689A420AD94FF0500383F31188BFF3DD
:100E80006F8FBFF34F8F3B6000BFFEE700BF14378B
:100E9000BD465DF8047B7047F0E300E07405002078
:100EA0000CED00E07805002080B58AB000AF7860D6
:100EB0000023FB6103F08CF9654B1B68002B01D10B
:100EC00000F053F9634B1A687B681340002B40F025
:100ED000A7807B68002B2DD008227B6813447A689A
:100EE0009A4227D208227B6813447B607B6803F018
:100EF0000703002B21D07B6823F0070308337A68AF
:100F00009A4214D27B6823F0070308337B607B6826
:100F100003F00703002B10D04FF0500383F3118828
:100F2000BFF36F8FBFF34F8F7B6100BFFEE70023DE
:100F30007B6002E000237B6000E000BF7B68002B49
:100F40006ED0454B1B687A689A4269D8434B3B6226
:100F5000424B1B687B6204E07B6A3B627B6A1B68D6
:100F60007B627B6A5B687A689A4203D97B6A1B68FA
:100F7000002BF1D1364B1B687A6A9A4250D03B6AFB
:100F80001B6808221344FB617B6A1A683B6A1A607B
:100F90007B6A5A687B68D21A08235B009A421FD981
:100FA0007A6A7B681344BB61BB6903F00703002BBB
:100FB0000AD04FF0500383F31188BFF36F8FBFF354
:100FC0004F8F3B6100BFFEE77B6A5A687B68D21A8D
:100FD000BB695A607B6A7A685A60B86900F028F980
:100FE0001D4B1A687B6A5B68D31A1B4A13601A4B45
:100FF0001A681B4B1B689A4203D2174B1B68184A8E
:1010000013607B6A5A68134B1B681A437B6A5A60E9
:101010007B6A00221A60134B1B680133114A13606C
:1010200003F0E4F8FB6903F00703002B0AD04FF04C
:10103000500383F31188BFF36F8FBFF34F8FFB60B3
:1010400000BFFEE7FB6918462837BD4680BD00BFDC
:101050008431012098310120883101207C31012028
:101060008C3101209031012080B586B000AF7860CE
:101070007B687B617B68002B4DD008235B427A69DB
:1010800013447B617B693B613B695A68244B1B6855
:101090001340002B0AD14FF0500383F31188BFF3A4
:1010A0006F8FBFF34F8FFB6000BFFEE73B691B688C
:1010B000002B0AD04FF0500383F31188BFF36F8FDA
:1010C000BFF34F8FBB6000BFFEE73B695A68144B0C
:1010D0001B681340002B1ED03B691B68002B1AD1E4
:1010E0003B695A680E4B1B68DB431A403B695A60E8
:1010F00003F06EF83B695A680A4B1B681344094AAF
:101100001360386900F094F8074B1B680133064AF6
:10111000136003F06BF800BF1837BD4680BD00BFF9
:1011200098310120883101209431012080B400AF32
:10113000034B1B681846BD465DF8047B704700BF33
:101140008831012080B400AF034B1B681846BD46B0
:101150005DF8047B704700BF8C31012080B400AF84
:1011600000BFBD465DF8047B704780B485B000AF1A
:101170004FF49633BB60284BFB60FB6803F007031A
:10118000002B0CD0FB680733FB60FB6823F00703E0
:10119000FB60BA68FB68D31A1F4A1344BB60FB6844
:1011A0007B601E4A7B6813601C4B00225A607B6880
:1011B000BA681344FB600822FB689B1AFB60FB685B
:1011C00023F00703FB60FB68154A1360144B1B6890
:1011D00000225A60124B1B6800221A607B683B6039
:1011E0003B68FA68D21A3B685A600D4B1A683B6834
:1011F0001A603B685B680B4A13603B685B680A4A8D
:1012000013600A4B4FF000421A6000BF1437BD460E
:101210005DF8047B704700BF7C0500207C31012015
:10122000843101208C310120883101209831012046
:1012300080B485B000AF7860284BFB6002E0FB68AB
:101240001B68FB60FB681B687A689A42F7D8FB68EA
:10125000BB60FB685B68BA6813447A689A4208D13D
:10126000FB685A687B685B681A44FB685A60FB68D5
:101270007B607B68BB607B685B68BA681A44FB680C
:101280001B689A4218D1FB681A68154B1B689A4272
:101290000DD07B685A68FB681B685B681A447B68E2
:1012A0005A60FB681B681A687B681A6008E00C4B80
:1012B0001A687B681A6003E0FB681A687B681A602A
:1012C000FA687B689A4202D0FB687A681A6000BFAD
:1012D0001437BD465DF8047B704700BF7C310120A8
:1012E0008431012080B586B000AF786000233B6177
:1012F0000023FB604FF0FF33BB6002F069FF224B1D
:101300001B687B617B69002B1AD03B6901333B6111
:101310007B695B68FA689A4202D27B695B68FB6012
:101320007B695B68BA689A4202D97B695B68BB607B
:101330007B691B687B61154B1B687A699A42E4D113
:1013400002F054FF7B68FA685A607B68BA689A605A
:101350007B683A69DA60FFF787FC0D4B1A687B6897
:101360001A600C4B1A687B685A610B4B1A687B68D1
:101370009A610A4B1A687B681A61FFF7A5FC00BFE7
:101380001837BD4680BD00BF7C310120843101206B
:101390008831012090310120943101208C310120CD
:1013A00080B584B000AF786039607B68FB60FB6813
:1013B000002B0AD14FF0500383F31188BFF36F8FD6
:1013C000BFF34F8FBB6000BFFEE7FFF74DFCFB682C
:1013D0001A68FB68DB6BF968096C01FB03F31A44BC
:1013E000FB689A60FB6800229A63FB681A68FB68D6
:1013F0005A60FB681A68FB68DB6B013BF968096C93
:1014000001FB03F31A44FB68DA60FB68FF2283F8F0
:101410004420FB68FF2283F845203B68002B14D151
:10142000FB681B69002B1AD0FB681033184603F0C9
:1014300021FA0346002B12D00C4B4FF080521A6059
:10144000BFF34F8FBFF36F8F09E0FB68103318466F
:10145000FFF710FAFB6824331846FFF70BFAFFF783
:1014600033FC012318461037BD4680BD04ED00E073
:1014700080B58CB002AFF860B9601346FB71FB68B1
:10148000002B0AD14FF0500383F31188BFF36F8F05
:10149000BFF34F8FBB6100BFFEE7FB68BA6802FB7A
:1014A00003F37B62BB68002B06D07A6ABB68B2FB91
:1014B000F3F3FA689A4201D1012300E00023002BE4
:1014C0000AD14FF0500383F31188BFF36F8FBFF33E
:1014D0004F8F7B6100BFFEE77B6A13F1510F0AD982
:1014E0004FF0500383F31188BFF36F8FBFF34F8F1B
:1014F0003B6100BFFEE77B6A50331846FFF7D4FC20
:1015000038623B6A002B0DD03B6AFB61FB695033AC
:10151000FB61FA793B6A00931346FA69B968F86887
:1015200000F005F83B6A18462837BD4680BD80B5F7
:1015300084B000AFF860B9607A60FB70BB68002BC4
:1015400003D1BB69BA691A6002E0BB697A681A60A4
:10155000BB69FA68DA63BB69BA681A640121B869C1
:10156000FFF71EFFBB69FA7883F84C2000BF1037E5
:10157000BD4680BD80B582B000AF78607B68002B2F
:101580000ED07B6800229A607B6800221A607B681C
:101590000022DA60002300220021786800F0B9F808
:1015A00000BF0837BD4680BD80B586B000AF03469A
:1015B000FB7101237B6100233B61FB791A4639698A
:1015C0007869FFF755FFF860F868FFF7D3FFFB680D
:1015D00018461837BD4680BD90B587B000AF78601B
:1015E0007B683B613B69002B0AD14FF0500383F3CA
:1015F0001188BFF36F8FBFF34F8FFB6000BFFEE713
:101600003B699C6803F056FC03469C4211D13B6940
:10161000DB685A1E3B69DA603B69DB68002B05D149
:10162000002300220021386900F073F801237B6158
:1016300001E000237B617B6918461C37BD4690BDE5
:1016400090B587B000AF786039607B683B613B69DB
:10165000002B0AD14FF0500383F31188BFF36F8F33
:10166000BFF34F8FFB6000BFFEE73B699C6803F050
:1016700021FC03469C4207D13B69DB685A1C3B694D
:10168000DA6001237B610CE03968386900F066FBA1
:1016900078617B69002B04D03B69DB685A1C3B698D
:1016A000DA607B6918461C37BD4690BD80B586B0B0
:1016B00000AF786039607B68002B0AD14FF050038F
:1016C00083F31188BFF36F8FBFF34F8F3B6100BF70
:1016D000FEE73A687B689A420AD94FF0500383F3D9
:1016E0001188BFF36F8FBFF34F8FFB6000BFFEE722
:1016F000022200217868FFF7BBFE78617B69002B2E
:1017000002D07B693A689A637B6918461837BD46F0
:1017100080BD80B58EB000AFF860B9607A603B6084
:1017200000237B63FB683B633B6B002B0AD14FF0CC
:10173000500383F31188BFF36F8FBFF34F8FBB62EA
:1017400000BFFEE7BB68002B03D13B6B1B6C002B7B
:1017500001D1012300E00023002B0AD14FF05003F8
:1017600083F31188BFF36F8FBFF34F8F7B6200BF8E
:10177000FEE73B68022B03D13B6BDB6B012B01D1F6
:10178000012300E00023002B0AD14FF0500383F324
:101790001188BFF36F8FBFF34F8F3B6200BFFEE72F
:1017A00003F098FB0346002B02D17B68002B01D18C
:1017B000012300E00023002B0AD14FF0500383F3F4
:1017C0001188BFF36F8FBFF34F8FFB6100BFFEE740
:1017D000FFF74AFA3B6B9A6B3B6BDB6B9A4202D387
:1017E0003B68022B29D13A68B968386B00F058FE83
:1017F000F8623B6B5B6A002B10D03B6B24331846BE
:1018000003F038F80346002B13D0404B4FF08052C2
:101810001A60BFF34F8FBFF36F8F0AE0FB6A002B94
:1018200007D03A4B4FF080521A60BFF34F8FBFF38F
:101830006F8FFFF749FA012363E07B68002B03D128
:10184000FFF742FA00235CE07B6B002B06D107F127
:101850001403184603F0F8F801237B63FFF734FA0A
:1018600002F0B6FCFFF700FA3B6B93F844305BB232
:10187000B3F1FF3F03D13B6B002283F844203B6B65
:1018800093F845305BB2B3F1FF3F03D13B6B0022CD
:1018900083F84520FFF718FA3A1D07F114031146A3
:1018A000184603F0E7F80346002B24D1386B00F00C
:1018B00013FF0346002B18D03B6B10337A68114698
:1018C000184602F04BFF386B00F07AFE02F08EFCF7
:1018D0000346002B7FF47CAF0C4B4FF080521A6014
:1018E000BFF34F8FBFF36F8F72E7386B00F068FE66
:1018F00002F07CFC6CE7386B00F062FE02F076FCD4
:10190000002318463837BD4680BD00BF04ED00E017
:1019100080B590B000AFF860B9607A603B60FB685A
:10192000BB63BB6B002B0AD14FF0500383F31188CC
:10193000BFF36F8FBFF34F8FBB6200BFFEE7BB6883
:10194000002B03D1BB6B1B6C002B01D1012300E0EA
:101950000023002B0AD14FF0500383F31188BFF30B
:101960006F8FBFF34F8F7B6200BFFEE73B68022B98
:1019700003D1BB6BDB6B012B01D1012300E0002302
:10198000002B0AD14FF0500383F31188BFF36F8F00
:10199000BFF34F8F3B6200BFFEE7FFF746FAEFF35E
:1019A00011824FF0500383F31188BFF36F8FBFF3A1
:1019B0004F8FFA61BB61FB697B63BB6B9A6BBB6B3F
:1019C000DB6B9A4202D33B68022B3ED1BB6B93F890
:1019D000453087F83330BB6B9B6BFB623A68B96864
:1019E000B86B00F05DFD97F93330B3F1FF3F12D1D2
:1019F000BB6B5B6A002B25D0BB6B2433184602F00F
:101A000039FF0346002B1DD07B68002B1AD07B6862
:101A100001221A6016E097F933307F2B0AD14FF07C
:101A2000500383F31188BFF36F8FBFF34F8F7B6138
:101A300000BFFEE797F833300133DBB25AB2BB6B1D
:101A400083F845200123FB6301E00023FB637B6BEC
:101A50003B613B6983F3118800BFFB6B184640373D
:101A6000BD4680BD80B58EB000AF786039607B68C0
:101A70003B633B6B002B0AD14FF0500383F311887B
:101A8000BFF36F8FBFF34F8F3B6200BFFEE73B6B2F
:101A90001B6C002B0AD04FF0500383F31188BFF367
:101AA0006F8FBFF34F8FFB6100BFFEE73B6B1B687F
:101AB000002B03D13B6B9B68002B01D1012300E07D
:101AC0000023002B0AD14FF0500383F31188BFF39A
:101AD0006F8FBFF34F8FBB6100BFFEE7FFF7A5F924
:101AE000EFF311824FF0500383F31188BFF36F8F30
:101AF000BFF34F8F7A613B617B69FB623B6B9B6BF2
:101B0000BB623B6BDB6BBA6A9A423AD23B6B93F88F
:101B1000453087F82730BB6A5A1C3B6B9A6397F9AC
:101B20002730B3F1FF3F12D13B6B5B6A002B25D00E
:101B30003B6B2433184602F09DFE0346002B1DD05C
:101B40003B68002B1AD03B6801221A6016E097F917
:101B500027307F2B0AD14FF0500383F31188BFF356
:101B60006F8FBFF34F8FFB6000BFFEE797F8273002
:101B70000133DBB25AB23B6B83F8452001237B6310
:101B800001E000237B63FB6ABB60BB6883F31188C1
:101B900000BF7B6B18463837BD4680BD80B58CB022
:101BA00000AFF860B9607A600023FB62FB68BB623B
:101BB000BB6A002B0AD14FF0500383F31188BFF3A7
:101BC0006F8FBFF34F8F3B6200BFFEE7BB68002BF8
:101BD00003D1BB6A1B6C002B01D1012300E0002361
:101BE000002B0AD14FF0500383F31188BFF36F8F9E
:101BF000BFF34F8FFB6100BFFEE703F06BF90346B5
:101C0000002B02D17B68002B01D1012300E00023CF
:101C1000002B0AD14FF0500383F31188BFF36F8F6D
:101C2000BFF34F8FBB6100BFFEE7FFF71DF8BB6A34
:101C30009B6B7B627B6A002B1FD0B968B86A00F08F
:101C400099FC7B6A5A1EBB6A9A63BB6A1B69002BAC
:101C50000FD0BB6A1033184602F00CFE0346002B6F
:101C600007D03D4B4FF080521A60BFF34F8FBFF348
:101C70006F8FFFF729F8012369E07B68002B03D100
:101C8000FFF722F8002362E0FB6A002B06D107F180
:101C90001003184602F0D8FE0123FB62FFF714F888
:101CA00002F096FAFEF7E0FFBB6A93F844305BB2AD
:101CB000B3F1FF3F03D1BB6A002283F84420BB6A23
:101CC00093F845305BB2B3F1FF3F03D1BB6A00220A
:101CD00083F84520FEF7F8FF3A1D07F1100311467F
:101CE000184602F0C7FE0346002B23D1B86A00F065
:101CF000B9FC0346002B17D0BB6A24337A6811461F
:101D0000184602F02BFDB86A00F05AFC02F06EFA99
:101D10000346002B89D1104B4FF080521A60BFF35D
:101D20004F8FBFF36F8F80E7B86A00F049FC02F075
:101D30005DFA7AE7B86A00F043FC02F057FAB86A35
:101D400000F090FC0346002B3FF46FAF00231846D1
:101D50003037BD4680BD00BF04ED00E080B58EB0D9
:101D600000AF7860396000237B637B68FB620023EF
:101D70003B63FB6A002B0AD14FF0500383F31188B9
:101D8000BFF36F8FBFF34F8F3B6200BFFEE7FB6A6D
:101D90001B6C002B0AD04FF0500383F31188BFF364
:101DA0006F8FBFF34F8FFB6100BFFEE703F092F828
:101DB0000346002B02D13B68002B01D1012300E038
:101DC0000023002B0AD14FF0500383F31188BFF397
:101DD0006F8FBFF34F8FBB6100BFFEE7FEF744FF7D
:101DE000FB6A9B6BBB62BB6A002B24D0BB6A5A1E8A
:101DF000FB6A9A63FB6A1B68002B04D103F01EFA8E
:101E00000246FB6A9A60FB6A1B69002B0FD0FB6AD3
:101E10001033184602F02EFD0346002B07D0544B1A
:101E20004FF080521A60BFF34F8FBFF36F8FFEF7F2
:101E30004BFF012397E03B68002B11D13B6B002B3C
:101E40000AD04FF0500383F31188BFF36F8FBFF3B5
:101E50004F8F7B6100BFFEE7FEF736FF002382E075
:101E60007B6B002B06D107F10C03184602F0ECFD4A
:101E700001237B63FEF728FF02F0AAF9FEF7F4FEC8
:101E8000FB6A93F844305BB2B3F1FF3F03D1FB6AC6
:101E9000002283F84420FB6A93F845305BB2B3F12B
:101EA000FF3F03D1FB6A002283F84520FEF70CFFB9
:101EB0003A4607F10C031146184602F0DBFD0346D3
:101EC000002B32D1F86A00F0CDFB0346002B26D060
:101ED000FB6A1B68002B09D1FEF7C6FEFB6A9B68F4
:101EE000184603F015F83863FEF7EEFEFB6A24335C
:101EF0003A681146184602F031FCF86A00F060FBBF
:101F000002F074F90346002B7FF468AF184B4FF0D2
:101F100080521A60BFF34F8FBFF36F8F5EE7F86A8E
:101F200000F04EFB02F062F958E7F86A00F048FB57
:101F300002F05CF9F86A00F095FB0346002B3FF4D1
:101F40004DAF3B6B002B0DD0FEF78EFEF86A00F014
:101F50008FFA7862FB6A9B68796A184603F0C8F8C2
:101F6000FEF7B2FE002318463837BD4680BD00BFDD
:101F700004ED00E080B58EB000AFF860B9607A6023
:101F800000237B63FB683B633B6B002B0AD14FF064
:101F9000500383F31188BFF36F8FBFF34F8F7B62C2
:101FA00000BFFEE7BB68002B03D13B6B1B6C002B13
:101FB00001D1012300E00023002B0AD14FF0500390
:101FC00083F31188BFF36F8FBFF34F8F3B6200BF66
:101FD000FEE702F07FFF0346002B02D17B68002B57
:101FE00001D1012300E00023002B0AD14FF0500360
:101FF00083F31188BFF36F8FBFF34F8FFB6100BF77
:10200000FEE7FEF731FE3B6B9B6BFB62FB6A002B2E
:1020100021D03B6BDB68BB62B968386B00F0AAFA71
:102020003B6BBA6ADA603B6B5B6A002B0FD03B6B91
:102030002433184602F01EFC0346002B07D03D4B0C
:102040004FF080521A60BFF34F8FBFF36F8FFEF7D0
:102050003BFE012369E07B68002B03D1FEF734FED1
:10206000002362E07B6B002B06D107F114031846B6
:1020700002F0EAFC01237B63FEF726FE02F0A8F8DB
:10208000FEF7F2FD3B6B93F844305BB2B3F1FF3FD8
:1020900003D13B6B002283F844203B6B93F845301F
:1020A0005BB2B3F1FF3F03D13B6B002283F84520C5
:1020B000FEF70AFE3A1D07F114031146184602F016
:1020C000D9FC0346002B23D1386B00F0CBFA034632
:1020D000002B17D03B6B24337A681146184602F068
:1020E0003DFB386B00F06CFA02F080F80346002BE1
:1020F00087D1104B4FF080521A60BFF34F8FBFF360
:102100006F8F7EE7386B00F05BFA02F06FF878E7CC
:10211000386B00F055FA02F069F8386B00F0A2FA5B
:102120000346002B3FF46DAF002318463837BD46F9
:1021300080BD00BF04ED00E080B590B000AFF86056
:10214000B9607A60FB68BB63BB6B002B0AD14FF0B0
:10215000500383F31188BFF36F8FBFF34F8FBB62C0
:1021600000BFFEE7BB68002B03D1BB6B1B6C002BD1
:1021700001D1012300E00023002B0AD14FF05003CE
:1021800083F31188BFF36F8FBFF34F8F7B6200BF64
:10219000FEE7FEF74AFEEFF311824FF0500383F3A0
:1021A0001188BFF36F8FBFF34F8F3A62FB613B6AB9
:1021B0007B63BB6B9B6B3B633B6B002B3ED0BB6B72
:1021C00093F8443087F82F30B968B86B00F0D2F933
:1021D0003B6B5A1EBB6B9A6397F92F30B3F1FF3FED
:1021E00012D1BB6B1B69002B25D0BB6B103318467B
:1021F00002F040FB0346002B1DD07B68002B1AD059
:102200007B6801221A6016E097F92F307F2B0AD1E4
:102210004FF0500383F31188BFF36F8FBFF34F8FDD
:10222000BB6100BFFEE797F82F300133DBB25AB233
:10223000BB6B83F844200123FB6301E00023FB63B5
:102240007B6B7B617B6983F3118800BFFB6B184656
:102250004037BD4680BD80B58CB000AF7860396036
:102260007B68BB62BB6A002B0AD14FF0500383F33B
:102270001188BFF36F8FBFF34F8FFB6100BFFEE785
:102280003B68002B03D1BB6A1B6C002B01D10123DF
:1022900000E00023002B0AD14FF0500383F3118894
:1022A000BFF36F8FBFF34F8FBB6100BFFEE7BB6A09
:1022B0001B6C002B0AD14FF0500383F31188BFF33E
:1022C0006F8FBFF34F8F7B6100BFFEE7FEF7ADFD61
:1022D000EFF311824FF0500383F31188BFF36F8F38
:1022E000BFF34F8F3A61FB603B697B62BB6A9B6BBC
:1022F000002B0CD0BB6ADB683B623968B86A00F01F
:1023000039F9BB6A3A6ADA600123FB6201E0002313
:10231000FB627B6ABB60BB6883F3118800BFFB6A0A
:1023200018463037BD4680BD80B584B000AF7860B8
:102330007B68002B0AD14FF0500383F31188BFF361
:102340006F8FBFF34F8FBB6000BFFEE7FEF78CFCC3
:102350007B689B6BFB60FEF7B7FCFB681846103789
:10236000BD4680BD80B586B000AF78607B687B617C
:102370007B69002B0AD14FF0500383F31188BFF320
:102380006F8FBFF34F8FFB6000BFFEE7FEF76CFC63
:102390007B69DA6B7B699B6BD31A3B61FEF794FC1C
:1023A0003B6918461837BD4680BD80B487B000AF82
:1023B00078607B687B617B69002B0AD14FF050030A
:1023C00083F31188BFF36F8FBFF34F8FFB6000BFA4
:1023D000FEE77B699B6B3B613B6918461C37BD463A
:1023E0005DF8047B704780B584B000AF78607B688F
:1023F000FB60FB68002B0AD14FF0500383F3118878
:10240000BFF36F8FBFF34F8FBB6000BFFEE7F8686D
:1024100000F0F0F9F868FEF727FE00BF1037BD4660
:1024200080BD80B483B000AF78607B689B6C184639
:102430000C37BD465DF8047B704780B483B000AFB5
:10244000786039607B683A689A6400BF0C37BD4693
:102450005DF8047B704780B483B000AF78607B6820
:1024600093F84C3018460C37BD465DF8047B704736
:1024700080B485B000AF78607B685B6A002B06D0C3
:102480007B681B6B1B68C3F10503FB6001E0002345
:10249000FB60FB6818461437BD465DF8047B704747
:1024A00080B586B000AFF860B9607A6000237B61C8
:1024B000FB689B6B3B61FB681B6C002B0DD1FB68C1
:1024C0001B68002B4DD1FB689B68184602F096FDF7
:1024D0007861FB6800229A6043E07B68002B19D189
:1024E000FB685868FB681B6C1A46B96804F038FF33
:1024F000FB685A68FB681B6C1A44FB685A60FB68EF
:102500005A68FB689B689A422BD3FB681A68FB6881
:102510005A6026E0FB68D868FB681B6C1A46B968ED
:1025200004F01EFFFB68DA68FB681B6C5B421A4410
:10253000FB68DA60FB68DA68FB681B689A4207D2BE
:10254000FB689A68FB681B6C5B421A44FB68DA60A4
:102550007B68022B05D13B69002B02D03B69013B14
:102560003B613B695A1CFB689A637B6918461837C4
:10257000BD4680BD80B582B000AF786039607B68B1
:102580001B6C002B18D07B68DA687B681B6C1A44C4
:102590007B68DA607B68DA687B689B689A4203D361
:1025A0007B681A687B68DA607B68D9687B681B6C1B
:1025B0001A46386804F0D4FE00BF0837BD4680BD17
:1025C00080B584B000AF7860FEF74EFB7B6893F86F
:1025D0004530FB7311E07B685B6A002B12D07B688F
:1025E0002433184602F046F90346002B01D002F0CE
:1025F000A7FAFB7B013BDBB2FB7397F90F30002B93
:10260000E9DC00E000BF7B68FF2283F84520FEF78D
:102610005BFBFEF729FB7B6893F84430BB7311E04A
:102620007B681B69002B12D07B681033184602F0C0
:1026300021F90346002B01D002F082FABB7B013B5B
:10264000DBB2BB7397F90E30002BE9DC00E000BF72
:102650007B68FF2283F84420FEF736FB00BF10376B
:10266000BD4680BD80B584B000AF7860FEF7FCFA4F
:102670007B689B6B002B02D10123FB6001E00023F0
:10268000FB60FEF721FBFB6818461037BD4680BD96
:1026900080B487B000AF78607B683B613B69002BFA
:1026A0000AD14FF0500383F31188BFF36F8FBFF34C
:1026B0004F8FFB6000BFFEE73B699B6B002B02D195
:1026C00001237B6101E000237B617B6918461C3795
:1026D000BD465DF8047B704780B584B000AF78607C
:1026E000FEF7C2FA7B689A6B7B68DB6B9A4202D179
:1026F0000123FB6001E00023FB60FEF7E5FAFB68C5
:1027000018461037BD4680BD80B487B000AF7860F2
:102710007B683B613B69002B0AD14FF0500383F388
:102720001188BFF36F8FBFF34F8FFB6000BFFEE7D1
:102730003B699A6B3B69DB6B9A4202D101237B6157
:1027400001E000237B617B6918461C37BD465DF8BC
:10275000047B704780B485B000AF78603960002397
:10276000FB6014E00F4AFB6852F83330002B0BD1AA
:102770000C49FB683A6841F833200A4AFB68DB00E1
:1027800013447A685A6006E0FB680133FB60FB681B
:10279000072BE7D900BF00BF1437BD465DF8047BA7
:1027A000704700BF9C31012080B485B000AF7860D5
:1027B0000023BB600023FB6010E00D4AFB68DB00D8
:1027C00013445B687A689A4205D1094AFB6852F85B
:1027D0003330BB6005E0FB680133FB60FB68072B0F
:1027E000EBD9BB6818461437BD465DF8047B7047CB
:1027F0009C31012080B485B000AF78600023FB607D
:1028000016E0104AFB68DB0013445B687A689A4262
:102810000BD10C4AFB68002142F83310094AFB68CF
:10282000DB00134400225A6006E0FB680133FB60C2
:10283000FB68072BE5D900BF00BF1437BD465DF824
:10284000047B70479C31012080B586B000AFF860F2
:10285000B9607A60FB687B61FEF706FA7B6993F8E2
:1028600044305BB2B3F1FF3F03D17B69002283F8B0
:1028700044207B6993F845305BB2B3F1FF3F03D14D
:102880007B69002283F84520FEF71EFA7B699B6B6B
:10289000002B06D17B6924337A68B968184601F0A9
:1028A000BDFF7869FFF78CFE00BF1837BD4680BDBD
:1028B00080B58CB002AFF860B9607A607B68012B9C
:1028C00010D1012387F82330FB68042B1BD84FF06D
:1028D000500383F31188BFF36F8FBFF34F8FFB61FA
:1028E00000BFFEE7002387F82330FB68002B0AD1E6
:1028F0004FF0500383F31188BFF36F8FBFF34F8FF7
:10290000BB6100BFFEE7BA68FB689A420AD94FF084
:10291000500383F31188BFF36F8FBFF34F8F7B6139
:1029200000BFFEE7BB68002B01D10123BB60FB6841
:1029300013F1260F09D8FB680133FB60FB682433D1
:102940001846FEF7B1FA786201E000237B627B6AE9
:10295000002B0AD07B6A03F1240197F823300093FF
:10296000BB68FA68786A00F0D5FD7B6A184628379C
:10297000BD4680BD80B584B000AF78607B68FB60E9
:10298000FB68002B0AD14FF0500383F31188BFF38B
:102990006F8FBFF34F8FBB6000BFFEE7FB681B7FED
:1029A00003F00203002B03D1F868FEF75DFB04E09F
:1029B00024220021F86804F020FC00BF1037BD4637
:1029C00080BD80B588B002AF78607B683B61002332
:1029D0007B613B69002B0AD14FF0500383F31188D0
:1029E000BFF36F8FBFF34F8FBB6000BFFEE73B6944
:1029F0001B6AFB60FEF738F93B691B69002B15D198
:102A00003B695B69002B11D13B6999693B699A6805
:102A10003B69D8683B691B7F00930346386900F027
:102A200079FD01237B613B69FA681A62FEF74CF974
:102A30007B6918461837BD4680BD80B487B000AFAB
:102A4000786039607B683B613B69002B0AD14FF0AD
:102A5000500383F31188BFF36F8FBFF34F8FFB6079
:102A600000BFFEE73B68002B01D101233B603B69BF
:102A70009B683A689A4205D83B693A68DA60012354
:102A80007B6101E000237B617B6918461C37BD46F2
:102A90005DF8047B704780B487B000AF78607B68D6
:102AA0003B613B69002B0AD14FF0500383F311883F
:102AB000BFF36F8FBFF34F8FFB6000BFFEE73B6933
:102AC0009A683B691B6813447B613B695B687A6960
:102AD000D31A7B617B69013B7B613B699B687A69A7
:102AE0009A4204D33B699B687A69D31A7B617B69FC
:102AF00018461C37BD465DF8047B704780B586B02C
:102B000000AF78607B687B617B69002B0AD14FF056
:102B1000500383F31188BFF36F8FBFF34F8FFB60B8
:102B200000BFFEE7786900F0D5FC38613B691846C4
:102B30001837BD4680BD80B592B002AFF860B9606D
:102B40007A603B60FB687B630023FB637B68BB634D
:102B50007B6B9B68013B3B63BB68002B0AD14FF04A
:102B6000500383F31188BFF36F8FBFF34F8FBB62A6
:102B700000BFFEE77B6B002B0AD14FF0500383F3BD
:102B80001188BFF36F8FBFF34F8F7B6200BFFEE7EB
:102B90007B6B1B7F03F00103002B18D0BB6B04334E
:102BA000BB63BA6B7B689A420AD84FF0500383F339
:102BB0001188BFF36F8FBFF34F8F3B6200BFFEE7FB
:102BC000BA6B3B6B9A4208D900233B6005E0BA6BB5
:102BD0003B6B9A4201D93B6BBB633B68002B41D0F6
:102BE00007F11403184601F009FFFEF73DF8786B72
:102BF000FFF751FFF863FA6BBB6B9A4218D20021C2
:102C0000002002F0A5FE7B6B5B69002B0AD04FF021
:102C1000500383F31188BFF36F8FBFF34F8FFB61B6
:102C200000BFFEE702F046F902467B6B5A6102E004
:102C3000FEF74AF816E0FEF747F83B6800930023DA
:102C400000220021002002F075FB7B6B00225A61FC
:102C50003A4607F114031146184601F00BFF0346EC
:102C6000002BC2D0FB6B002B03D1786BFFF713FF57
:102C7000F863BB6B0093FB6B7A68B968786B00F004
:102C800098F8F862FB6A002B1BD0786B00F022FCEE
:102C900002467B6BDB689A4213D301F099FA7B6B97
:102CA0001B69002B0BD07B6B18690023009300235A
:102CB0000022002102F0BEFB7B6B00221A6101F0B2
:102CC00095FAFB6A18464037BD4680BD80B590B086
:102CD00002AFF860B9607A603B60FB683B637B6879
:102CE0007B63BB68002B0AD14FF0500383F311883C
:102CF000BFF36F8FBFF34F8F3B6200BFFEE73B6BAD
:102D0000002B0AD14FF0500383F31188BFF36F8F6C
:102D1000BFF34F8FFB6100BFFEE73B6B1B7F03F0F0
:102D20000103002B02D07B6B04337B63386BFFF70E
:102D3000B2FEF8627B6B0093FB6A7A68B968386B05
:102D400000F037F8B862BB6A002B2DD0386B00F06A
:102D5000C1FB02463B6BDB689A4225D3EFF311823D
:102D60004FF0500383F31188BFF36F8FBFF34F8F82
:102D7000BA617B61BB697B623B6B1B69002B0DD029
:102D80003B6B18693B6801930023009300230022EA
:102D9000002102F02FFC3B6B00221A617B6A3B6131
:102DA0003B6983F3118800BFBB6A18463837BD46BC
:102DB00080BD80B586B000AFF860B9607A603B60D6
:102DC0003B68002B02D100237B611DE0FB681B7F69
:102DD00003F00103002B08D101237B617A683B6873
:102DE000934228BF13467B600EE03A683B6A9A42E2
:102DF00008D301237B613B1D04221946F86800F0CB
:102E00007DFA01E000237B617B69002B07D07B68A2
:102E10001A46B968F86800F071FA386101E00023D9
:102E20003B613B6918461837BD4680BD80B58EB002
:102E300002AFF860B9607A603B60FB683B620023D8
:102E4000FB62BB68002B0AD14FF0500383F311885B
:102E5000BFF36F8FBFF34F8FFB6100BFFEE73B6A8D
:102E6000002B0AD14FF0500383F31188BFF36F8F0B
:102E7000BFF34F8FBB6100BFFEE73B6A1B7F03F0D0
:102E80000103002B02D004237B6201E000237B625C
:102E90003B68002B37D0FDF7E7FE386A00F01AFBDD
:102EA000B862BA6A7B6A9A4217D80021002002F001
:102EB0004FFD3B6A1B69002B0AD04FF0500383F390
:102EC0001188BFF36F8FBFF34F8F7B6100BFFEE7A9
:102ED00001F0F0FF02463B6A1A61FDF7F5FEBA6A9F
:102EE0007B6A9A4213D83B6800930023002200219A
:102EF000002002F01FFA3B6A00221A61386A00F0D3
:102F0000E9FAB86203E0386A00F0E4FAB862BA6A33
:102F10007B6A9A421FD97B6A0093BB6A7A68B96858
:102F2000386A00F0D7F8F862FB6A002B13D001F082
:102F30004FF93B6A5B69002B0BD03B6A5869002351
:102F4000009300230022002102F074FA3B6A002261
:102F50005A6101F04BF9FB6A18463037BD4680BD17
:102F600080B58AB000AF78607B683B623B6A002B1B
:102F70000AD14FF0500383F31188BFF36F8FBFF373
:102F80004F8F7B6100BFFEE73B6A1B7F03F00103AD
:102F9000002B27D0386A00F09DFAF861FB69042BFA
:102FA0000FD93B6A1B68BB6107F10C01FB69042266
:102FB000386A00F015FAFB687B623B6ABA691A60EE
:102FC00012E0FB69002B0AD04FF0500383F3118805
:102FD000BFF36F8FBFF34F8F3B6100BFFEE700234E
:102FE0007B6201E000237B627B6A18462837BD467E
:102FF00080BD80B590B002AFF860B9607A603B6088
:10300000FB68FB6200237B63BB68002B0AD14FF097
:10301000500383F31188BFF36F8FBFF34F8F3B6271
:1030200000BFFEE7FB6A002B0AD14FF0500383F389
:103030001188BFF36F8FBFF34F8FFB6100BFFEE7B7
:10304000FB6A1B7F03F00103002B02D004233B63C8
:1030500001E000233B63F86A00F03CFAB862BA6A08
:103060003B6B9A4231D93B6B0093BB6A7A68B96873
:10307000F86A00F02FF878637B6B002B25D0EFF314
:1030800011824FF0500383F31188BFF36F8FBFF3AA
:103090004F8FBA617B61BB697B62FB6A5B69002B06
:1030A0000DD0FB6A58693B6801930023009300230D
:1030B0000022002102F09EFAFB6A00225A617B6A1C
:1030C0003B613B6983F3118800BF7B6B184638373F
:1030D000BD4680BD80B588B000AFF860B9607A6049
:1030E0003B60BB6A002B19D0FB681B68BB6107F112
:1030F00010013B68BA6AF86800F072F93B69FB613D
:103100003A68BB6AD31A3B60FA697B689A4207D96E
:10311000FB68BA691A600023FB6101E07B68FB6110
:103120003B68FA69B968F86800F05AF978617B6918
:1031300018462037BD4680BD80B487B000AF7860A8
:103140007B683B613B69002B0AD14FF0500383F34E
:103150001188BFF36F8FBFF34F8FBB6000BFFEE7D7
:103160003B691B68FB603B695B68FA689A4202D165
:1031700001237B6101E000237B617B6918461C37DA
:10318000BD465DF8047B704780B586B000AF7860BF
:103190007B68FB60FB68002B0AD14FF0500383F380
:1031A0001188BFF36F8FBFF34F8FBB6000BFFEE787
:1031B000FB681B7F03F00103002B02D004233B615B
:1031C00001E000233B617868FFF765FC02463B693C
:1031D000934202D301237B6101E000237B617B6981
:1031E00018461837BD4680BD80B58CB002AF7860F8
:1031F00039607B683B623B6A002B0AD14FF0500379
:1032000083F31188BFF36F8FBFF34F8FBB6100BF94
:10321000FEE7EFF311824FF0500383F31188BFF301
:103220006F8FBFF34F8F7A613B617B69FB613B6AB4
:103230001B69002B10D03B6A18693B68019300237F
:10324000009300230022002102F0D4F93B6A0022FF
:103250001A6101237B6201E000237B62FB69FB6052
:10326000FB6883F3118800BF7B6A18462837BD4688
:1032700080BD80B58CB002AF786039607B683B62FE
:103280003B6A002B0AD14FF0500383F31188BFF340
:103290006F8FBFF34F8FBB6100BFFEE7EFF311826B
:1032A0004FF0500383F31188BFF36F8FBFF34F8F3D
:1032B0007A613B617B69FB613B6A5B69002B10D0E3
:1032C0003B6A58693B680193002300930023002266
:1032D000002102F08FF93B6A00225A6101237B62D0
:1032E00001E000237B62FB69FB60FB6883F31188CC
:1032F00000BF7B6A18462837BD4680BD80B58AB0BE
:1033000000AFF860B9607A607B68002B0AD14FF09B
:10331000500383F31188BFF36F8FBFF34F8FFB61AF
:1033200000BFFEE7FB685B687B62FB689A687B6AAC
:10333000D31A7A68934228BF13463B627A6A3B6A83
:103340001A44FB689B689A420AD94FF0500383F3F2
:103350001188BFF36F8FBFF34F8FBB6100BFFEE7D4
:10336000FB689A697B6A13443A6AB968184603F0A5
:10337000F7FF7A683B6A9A421CD97A683B6AD21A8C
:10338000FB689B689A420AD94FF0500383F3118877
:10339000BFF36F8FBFF34F8F7B6100BFFEE7FB680A
:1033A0009869BA683B6AD1187A683B6AD31A1A4698
:1033B00003F0D6FF7A6A7B6813447B62FB689B68E4
:1033C0007A6A9A4204D3FB689B687A6AD31A7B6252
:1033D000FB687A6A5A607B6818462837BD4680BD0C
:1033E00080B58AB000AFF860B9607A603B607A68F7
:1033F0003B68934228BF13463B623B6A002B64D074
:10340000FB681B687B62FB689A687B6AD31A3A6A1E
:10341000934228BF1346FB61FA697B689A420AD936
:103420004FF0500383F31188BFF36F8FBFF34F8FBB
:10343000BB6100BFFEE77A6AFB691A44FB689B68C0
:103440009A420AD94FF0500383F31188BFF36F8F6C
:10345000BFF34F8F7B6100BFFEE7FB689A697B6A11
:103460001344FA691946B86803F07AFF3A6AFB69AF
:103470009A4219D93A6A7B689A420AD94FF05003A6
:1034800083F31188BFF36F8FBFF34F8F3B6100BF92
:10349000FEE7BA68FB69D018FB6899693A6AFB696C
:1034A000D31A1A4603F05CFF7A6A3B6A13447B62C4
:1034B000FB689B687A6A9A4204D3FB689B687A6AC5
:1034C000D31A7B62FB687A6A1A603B6A184628370F
:1034D000BD4680BD80B485B000AF78607B689A68D7
:1034E0007B685B681344FB607B681B68FA68D31ACF
:1034F000FB607B689B68FA689A4204D37B689B6890
:10350000FA68D31AFB60FB6818461437BD465DF8AD
:10351000047B704780B586B000AFF860B9607A6010
:103520003B6055237B617A687969B86803F065FE72
:103530000246BB6893420AD04FF0500383F31188D0
:10354000BFF36F8FBFF34F8F3B6100BFFEE72422B5
:103550000021F86803F051FEFB68BA689A61FB68C5
:103560007A689A60FB683A68DA60FB6897F820200E
:103570001A7700BF1837BD4680BD80B483B000AF56
:1035800078607B681B6A18460C37BD465DF8047B83
:10359000704780B483B000AF786039607B683A6868
:1035A0001A6200BF0C37BD465DF8047B704780B4DB
:1035B00083B000AF78607B681B7F03F00103DBB250
:1035C00018460C37BD465DF8047B704780B58CB05B
:1035D00004AFF860B9603B601346FB80FB889B003A
:1035E0001846FDF761FC78617B69002B0ED05820EE
:1035F000FDF75AFCF861FB69002B03D0FB697A697F
:103600001A6305E07869FDF72FFD01E00023FB61F7
:10361000FB69002B13D0FA8800230393FB69029304
:10362000FB6A0193BB6A00933B68B968F86800F0D5
:103630000EF8F86900F0A1F80123BB6102E04FF039
:10364000FF33BB61BB6918462037BD4680BD80B5DE
:1036500088B000AFF860B9607A603B603B6B186B74
:103660007B689B001A46A52103F0C7FD3B6B1A6BD4
:103670007B6803F18043013B9B001344BB61BB6942
:1036800023F00703BB61BB6903F00703002B0AD0DB
:103690004FF0500383F31188BFF36F8FBFF34F8F49
:1036A0007B6100BFFEE7BB68002B1FD00023FB61DE
:1036B00012E0BA68FB69134419783A6BFB6913444A
:1036C00034330A461A70BA68FB6913441B78002B1E
:1036D00006D0FB690133FB61FB69092BE9D900E0E6
:1036E00000BF3B6B002283F83D2003E03B6B0022D0
:1036F00083F83420BB6A042B01D90423BB623B6BE3
:10370000BA6ADA623B6BBA6A9A643B6B0022DA648B
:103710003B6B04331846FDF7CDF83B6B1833184666
:10372000FDF7C8F83B6B3A6B1A61BB6AC3F105023F
:103730003B6B9A613B6B3A6B5A623B6B5033042292
:103740000021184603F059FD3B6B54330122002140
:10375000184603F052FD3A68F968B869FDF740F978
:1037600002463B6B1A60FB6A002B02D0FB6A3A6B85
:103770001A6000BF2037BD4680BD80B582B000AF63
:103780007860FDF771FA2D4B1B6801332B4A1360EB
:103790002B4B1B68002B09D1294A7B681360274BF0
:1037A0001B68012B10D101F017FA0DE0254B1B68A7
:1037B000002B09D1224B1B68DA6A7B68DB6A9A42CC
:1037C00002D81F4A7B6813601F4B1B6801331E4AD7
:1037D00013601D4B1A687B681A647B68DB6A0122E0
:1037E0009A401A4B1B681343184A13607B68DA6AC5
:1037F00013469B0013449B00154A1A447B6804330C
:1038000019461046FDF763F8FDF75EFA0D4B1B688D
:10381000002B0ED00A4B1B68DA6A7B68DB6A9A427F
:1038200007D20C4B4FF080521A60BFF34F8FBFF39B
:103830006F8F00BF0837BD4680BD00BFB432012086
:10384000DC310120C0320120D0320120BC32012005
:10385000E031012004ED00E080B584B000AF786075
:10386000FDF702FA7B68002B02D1394B1B6800E0A0
:103870007B68FB60FB6804331846FDF785F8034658
:10388000002B15D1FB68DA6A324913469B001344BA
:103890009B000B441B68002B0AD1FB68DB6A0122EA
:1038A00002FA03F3DA432C4B1B6813402A4A1360D5
:1038B000FB689B6A002B04D0FB6818331846FDF7A1
:1038C00063F8264B1B680133244A1360204B1B68A6
:1038D000FA689A420BD1FB68043319462048FCF77A
:1038E000F6FF204B1B6801331E4A136009E01E4B94
:1038F0001B68013B1C4A1360F86801F0AFFA01F045
:10390000BDFAFDF7E1F9194B1B68002B1BD0104BDA
:103910001B68FA689A4216D1154B1B68002B0AD017
:103920004FF0500383F31188BFF36F8FBFF34F8FB6
:10393000BB6000BFFEE70F4B4FF080521A60BFF331
:103940004F8FBFF36F8F00BF1037BD4680BD00BFE4
:10395000DC310120E0310120BC320120D0320120D5
:10396000883201209C320120B4320120C032012073
:10397000DC32012004ED00E080B58AB000AF786051
:10398000396000237B627B68002B0AD14FF0500323
:1039900083F31188BFF36F8FBFF34F8F7B6100BF3D
:1039A000FEE73B68002B0AD14FF0500383F31188E8
:1039B000BFF36F8FBFF34F8F3B6100BFFEE72A4B12
:1039C0001B68002B0AD04FF0500383F31188BFF31C
:1039D0006F8FBFF34F8FFB6000BFFEE700F0F8FB77
:1039E000224B1B683B627B681B683A681344FB618F
:1039F0007B681B683A6A9A420BD27B681B68FA693B
:103A00009A4211D2FA693B6A9A420DD901237B622C
:103A10000AE07B681B68FA699A4203D3FA693B6A39
:103A20009A4201D901237B627B68FA691A607B6A3A
:103A3000002B06D0FA693B6AD31A0021184601F020
:103A4000EFFF00F0D3FBB861BB69002B07D1084B37
:103A50004FF080521A60BFF34F8FBFF36F8F7B6AB6
:103A600018462837BD4680BDDC320120B83201201F
:103A700004ED00E080B584B000AF78600023FB6007
:103A80007B68002B17D0134B1B68002B0AD04FF01C
:103A9000500383F31188BFF36F8FBFF34F8FBB6069
:103AA00000BFFEE700F094FB0021786801F0B8FF4A
:103AB00000F09CFBF860FB68002B07D1064B4FF031
:103AC00080521A60BFF34F8FBFF36F8F00BF103764
:103AD000BD4680BDDC32012004ED00E080B58AB037
:103AE00000AF78607B68FB61FB69002B0AD14FF067
:103AF000500383F31188BFF36F8FBFF34F8FFB60C9
:103B000000BFFEE72D4B1B68FA699A4203D10023E0
:103B100087F827304BE0FDF7A7F8FB695B69BB61CD
:103B2000274B1B687B61274B1B683B61FDF7CCF87B
:103B3000BA697B699A4203D0BA693B699A4203D158
:103B4000022387F8273032E0BB691F4A934220D115
:103B5000FB699B6A002B18D1032387F827300023C9
:103B60003B620EE0FA693B6A134454331B78DBB2C4
:103B7000012B03D1022387F8273018E03B6A013379
:103B80003B623B6A002BEDDD11E0022387F8273012
:103B90000DE0BB690D4A934202D0BB69002B03D1F3
:103BA000042387F8273002E0012387F8273097F8AD
:103BB000273018462837BD4680BD00BFDC310120C4
:103BC0006C32012070320120A032012088320120A5
:103BD00080B584B000AF7860FDF746F87B68002BB5
:103BE00002D1074B1B6800E07B68FB60FB68DB6A67
:103BF000BB60FDF769F8BB6818461037BD4680BD4D
:103C0000DC31012080B588B000AF7860FDF70DF998
:103C1000EFF311824FF0500383F31188BFF36F8FDE
:103C2000BFF34F8F3A61FB603B69FB617B68002B00
:103C300002D1094B1B6800E07B68BB61BB69DB6A92
:103C40007B61FB69BB60BB6883F3118800BF7B6944
:103C500018462037BD4680BDDC31012080B588B0D4
:103C600000AF786039600023FB613B68042B0AD900
:103C70004FF0500383F31188BFF36F8FBFF34F8F63
:103C8000FB6000BFFEE73B68042B01D904233B60C7
:103C9000FCF7EAFF7B68002B02D1414B1B6800E078
:103CA0007B68BB61BB699B6C7B617A693B689A42AC
:103CB0006FD03A687B699A420DD9394B1B68BA6953
:103CC0009A420FD0364B1B68DB6A3A689A4209D396
:103CD0000123FB6106E0324B1B68BA699A4201D1AD
:103CE0000123FB61BB69DB6A3B61BB699A6CBB6901
:103CF000DB6A9A4202D1BB693A68DA62BB693A6808
:103D00009A64BB699B69002B04DB3B68C3F1050225
:103D1000BB699A61BB6959693A6913469B001344B0
:103D20009B00204A1344994228D1BB6904331846AA
:103D3000FCF72AFE0346002B09D101223B6902FA57
:103D400003F3DA43184B1B681340174A1360BB692F
:103D5000DB6A01229A40144B1B681343124A13601A
:103D6000BB69DA6A13469B0013449B000D4A1A4450
:103D7000BB69043319461046FCF7A9FDFB69002B0B
:103D800007D00A4B4FF080521A60BFF34F8FBFF33A
:103D90006F8FFCF799FF00BF2037BD4680BD00BF85
:103DA000DC310120E0310120BC32012004ED00E0D3
:103DB00080B586B000AF7860FCF756FF7B68002BBB
:103DC00002D1434B1B6800E07B683B613B690433D5
:103DD0001846FCF7D9FD0346002B15D13B69DA6A7A
:103DE0003C4913469B0013449B000B441B68002B6B
:103DF0000AD13B69DB6A012202FA03F3DA43364B4C
:103E00001B681340344A13603B699B6A002B04D043
:103E10003B6918331846FCF7B7FD3B690433194674
:103E20002E48FCF754FD00237B6110E03A697B6962
:103E3000134454331B78DBB2012B05D13A697B69FB
:103E40001344543300221A707B6901337B617B6910
:103E5000002BEBDDFCF738FF214B1B68002B05D056
:103E6000FCF702FF01F00AF8FCF72EFF184B1B6865
:103E70003A699A4227D11A4B1B68002B17D0194B6D
:103E80001B68002B0AD04FF0500383F31188BFF357
:103E90006F8FBFF34F8FFB6000BFFEE7124B4FF0F9
:103EA00080521A60BFF34F8FBFF36F8F0BE00B4B45
:103EB0001A680E4B1B689A4203D1054B00221A6008
:103EC00001E000F0EFFB00BF1837BD4680BD00BF2A
:103ED000DC310120E0310120BC320120A032012080
:103EE000C0320120DC32012004ED00E0B4320120B8
:103EF00080B487B000AF786000237B617B683B6152
:103F00007B68002B0AD14FF0500383F31188BFF375
:103F10006F8FBFF34F8FFB6000BFFEE73B695B69AC
:103F20000A4A93420AD13B699B6A094A934205D0E7
:103F30003B699B6A002B01D101237B617B69184699
:103F40001C37BD465DF8047B704700BFA0320120DE
:103F50007432012080B584B000AF78607B68FB606C
:103F60007B68002B0AD14FF0500383F31188BFF315
:103F70006F8FBFF34F8FBB6000BFFEE7204B1B6806
:103F8000FA689A4237D0FB68002B34D0FCF76CFEFD
:103F9000F868FFF7ADFF0346002B2AD0FB68043317
:103FA0001846FCF7F1FCFB68DB6A01229A40154BCE
:103FB0001B681343134A1360FB68DA6A13469B00BD
:103FC00013449B00104A1A44FB68043319461046F8
:103FD000FCF77DFCFB68DA6A094B1B68DB6A9A42D6
:103FE00007D30A4B4FF080521A60BFF34F8FBFF3D5
:103FF0006F8FFCF769FE00BF1037BD4680BD00BF64
:10400000DC310120BC320120E031012004ED00E070
:1040100080B58AB000AF786000237B627B683B622A
:104020007B68002B0AD14FF0500383F31188BFF354
:104030006F8FBFF34F8FBB6100BFFEE7FCF7F5FE4C
:10404000EFF311824FF0500383F31188BFF36F8FAA
:10405000BFF34F8F7A613B617B69FB61386AFFF781
:1040600047FF0346002B32D01E4B1B68002B28D184
:104070003B6ADA6A1C4B1B68DB6A9A4204D3012351
:104080007B621A4B01221A603B6A04331846FCF724
:104090007BFC3B6ADB6A01229A40154B1B68134389
:1040A000134A13603B6ADA6A13469B0013449B0071
:1040B000104A1A443B6A043319461046FCF707FCC1
:1040C00005E03B6A183319460B48FCF700FCFB6916
:1040D000FB60FB6883F3118800BF7B6A18462837B2
:1040E000BD4680BDDC320120DC310120C832012018
:1040F000BC320120E03101207432012080B586B04D
:1041000002AF204B019300230093002382221E491B
:104110001E48FFF75BFAF860FB68012B02D101F043
:10412000E5FCF860FB68012B16D14FF0500383F3D8
:104130001188BFF36F8FBFF34F8FBB6000BF144B6D
:104140004FF0FF321A60134B01221A60124B00220B
:104150001A60FCF7CCFC0EE0FB68B3F1FF3F0AD11C
:104160004FF0500383F31188BFF36F8FBFF34F8F6E
:104170007B6000BFFEE7094B1B6800BF1037BD46E0
:1041800080BD00BFD8320120987E0008AB4B0008EC
:10419000D4320120C0320120B832012008000020B2
:1041A00080B582B000AF4FF0500383F31188BFF3A6
:1041B0006F8FBFF34F8F7B6000BF044B00221A60EC
:1041C000FCF736FD00BF0837BD4680BDC032012078
:1041D00080B400AF044B1B680133034A136000BF77
:1041E000BD465DF8047B7047DC32012080B584B0A9
:1041F00000AF0023FB600023BB60414B1B68002B1A
:104200000AD14FF0500383F31188BFF36F8FBFF3D0
:104210004F8F3B6000BFFEE7FCF726FD384B1B6865
:10422000013B374A1360364B1B68002B61D1354B7D
:104230001B68002B5DD02EE0334BDB68DB68FB6036
:10424000FB6818331846FCF79FFBFB6804331846DD
:10425000FCF79AFBFB68DB6A01229A402B4B1B6838
:1042600013432A4A1360FB68DA6A13469B0013441F
:104270009B00274A1A44FB68043319461046FCF792
:1042800026FBFB68DA6A234B1B68DB6A9A4202D37F
:10429000214B01221A601C4B1B68002BCCD1FB6800
:1042A000002B01D000F0EAFD1C4B1B687B607B6893
:1042B000002B10D000F03EF90346002B02D0164B25
:1042C00001221A607B68013B7B607B68002BF1D187
:1042D000124B00221A60104B1B68002B09D00123DF
:1042E000BB600F4B4FF080521A60BFF34F8FBFF38C
:1042F0006F8FFCF7E9FCBB6818461037BD4680BDE0
:10430000DC320120B432012074320120BC320120A1
:10431000E0310120DC310120C8320120C43201200B
:1043200004ED00E080B483B000AF054B1B687B60F8
:104330007B6818460C37BD465DF8047B704700BFAC
:10434000B832012080B582B000AFFCF76EFD0023CB
:104350007B60044B1B683B603B6818460837BD46D2
:1043600080BD00BFB832012080B400AF034B1B6892
:104370001846BD465DF8047B704700BFB43201208B
:1043800080B485B000AF78607B68002B02D10D4B04
:104390001B6800E07B68FB60FB68002B0AD14FF0D4
:1043A000500383F31188BFF36F8FBFF34F8FBB6050
:1043B00000BFFEE7FB68343318461437BD465DF88E
:1043C000047B7047DC31012080B586B000AFF86017
:1043D000B9607A6000237B6105233B61FFF7F8FE3B
:1043E0003A4B1B68BA689A4268D33B69013B3B6110
:1043F0007A691346DB0013449B001A46FB68981841
:104400003A6913469B0013449B00314A134401222E
:10441000194600F0B5FC02467B6913447B613B6999
:10442000002BE2D17A691346DB0013449B001A4645
:10443000FB681344274A11680222184600F0A0FCCA
:1044400002467B6913447B617A691346DB0013449F
:104450009B001A46FB6813441F4A11680222184643
:1044600000F08EFC02467B6913447B617A69134637
:10447000DB0013449B001A46FB68134404221749CF
:10448000184600F07DFC02467B6913447B617A6923
:104490001346DB0013449B001A46FB6813440322B7
:1044A0000F49184600F06CFC02467B6913447B619F
:1044B0007B68002B02D07B6800221A60FFF796FE13
:1044C0007B6918461837BD4680BD00BFB432012055
:1044D000E03101206C32012070320120883201204D
:1044E000A032012080B584B000AF78600F4B1B680C
:1044F000002B0AD04FF0500383F31188BFF36F8F66
:10450000BFF34F8FBB6000BFFEE7FFF761FE084BB4
:104510001A687B681344064A1360FFF767FEF86069
:10452000FB6818461037BD4680BD00BFDC32012055
:10453000C432012080B586B000AF00237B614E4BB2
:104540001B68002B40F08E804C4B1B6801333B6195
:104550004A4A3B6913603B69002B20D1484B1B68DA
:104560001B68002B0AD04FF0500383F31188BFF370
:104570006F8FBFF34F8F3B6000BFFEE7404B1B6860
:10458000FB60404B1B683E4A13603E4AFB68136069
:104590003D4B1B6801333C4A136000F06FFC3B4B02
:1045A0001B683A699A4248D3354B1B681B68002B3D
:1045B00004D1364B4FF0FF321A603EE0304B1B689F
:1045C000DB68DB68BB60BB685B687B603A697B6803
:1045D0009A4203D22D4A7B6813602EE0BB680433F5
:1045E0001846FCF7D1F9BB689B6A002B04D0BB6866
:1045F00018331846FCF7C8F9BB68DB6A01229A40F9
:10460000234B1B681343224A1360BB68DA6A1346C4
:104610009B0013449B001F4A1A44BB68043319468D
:104620001046FCF754F9BB68DA6A1B4B1B68DB6A5F
:104630009A42B9D301237B61B6E7174B1B68DA6A4C
:10464000144913469B0013449B000B441B68012B29
:1046500001D901237B61114B1B68002B07D001237B
:104660007B6104E00E4B1B6801330D4A13607B69CC
:1046700018461837BD4680BDDC320120B832012013
:104680006C32012070320120CC320120D432012062
:10469000BC320120E0310120DC310120C832012090
:1046A000C432012080B487B000AF274B1B68002BB9
:1046B00003D0264B01221A603FE0244B00221A60EF
:1046C000234B1B68FB60FB68B3FA83F3FB72FB7A36
:1046D000C3F11F037B611F497A6913469B00134492
:1046E0009B000B441B68002B0AD14FF0500383F34F
:1046F0001188BFF36F8FBFF34F8F7B6000BFFEE762
:104700007A6913469B0013449B00124A13443B6191
:104710003B695B685A683B695A603B695A683B6908
:1047200008339A4204D13B695B685A683B695A6016
:104730003B695B68DB68084A136000BF1C37BD46F5
:104740005DF8047B704700BFDC320120C8320120D5
:10475000BC320120E0310120DC31012080B584B081
:1047600000AF786039607B68002B0AD14FF05003AE
:1047700083F31188BFF36F8FBFF34F8FFB6000BFD0
:10478000FEE7074B1B68183319467868FCF7C3F837
:104790000121386801F044F900BF1037BD4680BDE3
:1047A000DC31012080B586B000AFF860B9607A6076
:1047B000FB68002B0AD14FF0500383F31188BFF33D
:1047C0006F8FBFF34F8F7B6100BFFEE7114B1B68FC
:1047D000002B0AD14FF0500383F31188BFF36F8F82
:1047E000BFF34F8F3B6100BFFEE70B4B1B68BA68FE
:1047F00042F000429A61084B1B6818331946F8686A
:10480000FCF765F80121786801F00AF900BF183754
:10481000BD4680BDDC320120DC31012080B586B090
:1048200000AFF860B9607A60FB68002B0AD14FF0E6
:10483000500383F31188BFF36F8FBFF34F8F7B61FA
:1048400000BFFEE70A4B1B6818331946F868FCF7EF
:104850003EF87B68002B02D04FF0FF33BB607968D5
:10486000B86801F0DDF800BF1837BD4680BD00BF55
:10487000DC31012080B586B000AF78607B68DB68F2
:10488000DB683B613B69002B0AD14FF0500383F397
:104890001188BFF36F8FBFF34F8FFB6000BFFEE740
:1048A0003B6918331846FCF76FF81D4B1B68002B4B
:1048B0001CD13B6904331846FCF766F83B69DB6A98
:1048C00001229A40174B1B681343164A13603B6939
:1048D000DA6A13469B0013449B00134A1A443B694F
:1048E000043319461046FBF7F2FF05E03B69183325
:1048F00019460E48FBF7EBFF3B69DA6A0C4B1B6865
:10490000DB6A9A4205D901237B610A4B01221A60B6
:1049100001E000237B617B6918461837BD4680BDE6
:10492000DC320120BC320120E03101207432012050
:10493000DC310120C832012080B586B000AF78603C
:104940003960294B1B68002B0AD14FF0500383F3C9
:104950001188BFF36F8FBFF34F8F3B6100BFFEE73E
:104960003B6843F000427B681A607B68DB687B61D0
:104970007B69002B0AD14FF0500383F31188BFF3FA
:104980006F8FBFF34F8FFB6000BFFEE77868FBF7C8
:10499000FBFF7B6904331846FBF7F6FF7B69DB6A94
:1049A00001229A40114B1B681343104A13607B6924
:1049B000DA6A13469B0013449B000D4A1A447B6934
:1049C000043319461046FBF782FF7B69DA6A094B0C
:1049D0001B68DB6A9A4202D9074B01221A6000BFAA
:1049E0001837BD4680BD00BFDC320120BC3201203B
:1049F000E0310120DC310120C832012080B584B0D3
:104A000000AF78607B68002B0AD14FF0500383F32E
:104A10001188BFF36F8FBFF34F8FFB6000BFFEE7BE
:104A2000FCF722F9064B1A687B681A60054B1A6876
:104A30007B685A60FCF748F900BF1037BD4680BD5F
:104A4000CC320120B832012080B483B000AF78604E
:104A5000064B1A687B681A60054B1A687B685A60B7
:104A600000BF0C37BD465DF8047B7047CC32012097
:104A7000B832012080B588B000AF786039607B68BB
:104A8000002B0AD14FF0500383F31188BFF36F8FCF
:104A9000BFF34F8F3B6100BFFEE73B68002B0AD19D
:104AA0004FF0500383F31188BFF36F8FBFF34F8F25
:104AB000FB6000BFFEE7FCF7D7F81F4B1B68BB612C
:104AC0007B685B68BA69D31A7B613B681B68B3F18A
:104AD000FF3F02D10023FB6126E07B681A68174B79
:104AE0001B689A420AD07B685B68BA699A4205D310
:104AF0000123FB613B6800221A6015E03B681B68DC
:104B00007A699A420BD23B681A687B69D21A3B6871
:104B10001A607868FFF798FF0023FB6104E03B68A8
:104B200000221A600123FB61FCF7CEF8FB691846EE
:104B30002037BD4680BD00BFB8320120CC320120F5
:104B400080B400AF034B01221A6000BFBD465DF880
:104B5000047B7047C832012080B485B000AF786014
:104B60007B68002B05D07B68BB60BB685B6CFB601F
:104B700001E00023FB60FB6818461437BD465DF872
:104B8000047B704780B485B000AF786039607B6883
:104B9000002B04D07B68FB60FB683A685A6400BF56
:104BA0001437BD465DF8047B704780B582B000AF16
:104BB000786000F051F8064B1B68012BF9D9054BC2
:104BC0004FF080521A60BFF34F8FBFF36F8FF0E743
:104BD000E031012004ED00E080B582B000AF002399
:104BE0007B600CE07A6813469B0013449B00124ADA
:104BF00013441846FBF73EFE7B6801337B607B68FD
:104C0000042BEFD90D48FBF735FE0D48FBF732FEBC
:104C10000C48FBF72FFE0C48FBF72CFE0B48FBF76C
:104C200029FE0B4B054A1A600A4B054A1A6000BF61
:104C30000837BD4680BD00BFE0310120443201206D
:104C4000583201207432012088320120A032012024
:104C50006C3201207032012080B582B000AF19E0C3
:104C6000FCF702F8104BDB68DB687B607B68043381
:104C70001846FBF789FE0D4B1B68013B0B4A13607E
:104C80000B4B1B68013B0A4A1360FCF71DF8786860
:104C900000F0E4F8064B1B68002BE1D100BF00BF19
:104CA0000837BD4680BD00BF88320120B4320120E4
:104CB0009C32012080B586B000AFF860B9607A60A0
:104CC000FB70FB68002B02D12C4B1B6800E0FB68DB
:104CD0007B61BB687A691A607B6903F13402BB6847
:104CE0005A607B69DA6ABB681A617B691A6BBB68B8
:104CF000DA617B691A6CBB689A607B699A6CBB68E5
:104D00005A61BB6800229A61FB78052B1AD01B4BB5
:104D10001B687A699A4203D1BB6800221A7318E0B3
:104D2000BB68FA781A73FB78032B12D1FFF750FA9D
:104D30007B699B6A002B02D0BB6802221A73FFF7C3
:104D400055FA06E07869FEF7C9FE03461A46BB68C5
:104D50001A737B68002B09D07B691B6B184600F027
:104D600061F803461A46BB681A8402E0BB68002259
:104D70001A8400BF1837BD4680BD00BFDC3101205A
:104D800080B58AB000AFF860B9601346FB710023AC
:104D90007B62BB681B68002B3FD0BB683B623B6AF1
:104DA0005B685A683B6A5A603B6A5A683B6A0833D8
:104DB0009A4204D13B6A5B685A683B6A5A603B6A14
:104DC0005B68DB68FB61BB68BB61BB695B685A6899
:104DD000BB695A60BB695A68BB6908339A4204D1FF
:104DE000BB695B685A68BB695A60BB695B68DB6812
:104DF0007B617A6A1346DB0013449B001A46FB680A
:104E00009918FB7901227869FFF754FF7B6A013317
:104E10007B627A69FB699A42D5D17B6A184628374A
:104E2000BD4680BD80B485B000AF78600023FB60D4
:104E300005E07B6801337B60FB680133FB607B68C6
:104E40001B78A52BF5D0FB689B08FB60FB689BB229
:104E500018461437BD465DF8047B704780B582B0B4
:104E600000AF78607B681B6B1846FCF7FDF878682C
:104E7000FCF7FAF800BF0837BD4680BD80B400AF2C
:104E80000A4B1B681B68002B04D1094B4FF0FF3203
:104E90001A6005E0054B1B68DB681B68044A136059
:104EA00000BFBD465DF8047B704700BF6C32012037
:104EB000D432012080B483B000AF054B1B687B6007
:104EC0007B6818460C37BD465DF8047B704700BF11
:104ED000DC31012080B483B000AF0B4B1B68002B8A
:104EE00002D101237B6008E0084B1B68002B02D134
:104EF00002237B6001E000237B607B6818460C374F
:104F0000BD465DF8047B7047C0320120DC320120D1
:104F100080B584B000AF78607B68BB600023FB6025
:104F20007B68002B5ED0BB68DA6A314B1B68DB6A9A
:104F30009A424ED2BB689B69002B06DB2C4B1B6848
:104F4000DB6AC3F10502BB689A61BB685969BB683B
:104F5000DA6A13469B0013449B00264A1344994285
:104F60002FD1BB6804331846FBF70EFD0346002B18
:104F70000AD1BB68DB6A012202FA03F3DA431E4B53
:104F80001B6813401C4A1360194B1B68DA6ABB6824
:104F9000DA62BB68DB6A01229A40174B1B68134335
:104FA000154A1360BB68DA6A13469B0013449B00E2
:104FB000104A1A44BB68043319461046FBF787FCB5
:104FC00004E00B4B1B68DA6ABB68DA620123FB6002
:104FD00008E0BB689A6C064B1B68DB6A9A4201D2F8
:104FE0000123FB60FB6818461037BD4680BD00BF3B
:104FF000DC310120E0310120BC32012080B586B0D7
:1050000000AF78607B683B6100237B617B68002B8D
:1050100063D0344B1B683A699A420AD04FF0500370
:1050200083F31188BFF36F8FBFF34F8FFB6000BF17
:10503000FEE73B69DB6C002B0AD14FF0500383F392
:105040001188BFF36F8FBFF34F8FBB6000BFFEE7C8
:105050003B69DB6C5A1E3B69DA643B69DA6A3B697F
:105060009B6C9A4239D03B69DB6C002B35D13B6994
:1050700004331846FBF788FC0346002B0AD13B6932
:10508000DB6A012202FA03F3DA43174B1B68134071
:10509000154A13603B699A6C3B69DA623B69DB6ACB
:1050A000C3F105023B699A613B69DB6A01229A40C0
:1050B0000D4B1B6813430C4A13603B69DA6A1346B5
:1050C0009B0013449B00094A1A443B690433194668
:1050D0001046FBF7FCFB01237B617B691846183700
:1050E000BD4680BDDC310120BC320120E031012011
:1050F00080B588B000AF786039607B68BB61012300
:105100007B617B68002B77D0BB69DB6C002B0AD1FD
:105110004FF0500383F31188BFF36F8FBFF34F8FAE
:10512000FB6000BFFEE7BB699B6C3A689A4202D9FC
:105130003B68FB6102E0BB699B6CFB61BB69DB6A9E
:10514000FA699A4258D0BB69DB6C7A699A4253D1AA
:105150002B4B1B68BA699A420AD14FF0500383F374
:105160001188BFF36F8FBFF34F8FBB6000BFFEE7A7
:10517000BB69DB6A3B61BB69FA69DA62BB699B693F
:10518000002B04DBFB69C3F10502BB699A61BB69B3
:1051900059693A6913469B0013449B00194A13440A
:1051A000994229D1BB6904331846FBF7EDFB03464E
:1051B000002B0AD1BB69DB6A012202FA03F3DA434E
:1051C000114B1B681340104A1360BB69DB6A012254
:1051D0009A400D4B1B6813430B4A1360BB69DA6A94
:1051E00013469B0013449B00064A1A44BB690433D0
:1051F00019461046FBF76BFB00BF2037BD4680BD4C
:10520000DC310120E0310120BC32012080B483B0C8
:1052100000AF094B1B689B697B60074B1B68DA6A10
:10522000054B1B68C2F105029A617B6818460C3772
:10523000BD465DF8047B7047DC31012080B400AFCF
:10524000074B1B68002B04D0054B1B68DA6C01323E
:10525000DA64034B1B681846BD465DF8047B704753
:10526000DC31012080B586B000AFF860B9607A60AB
:10527000FB68002B0AD04FF0500383F31188BFF373
:105280006F8FBFF34F8F3B6100BFFEE7FBF7ECFC76
:10529000264B1B68FA68143253F82230002B15D1C4
:1052A000224B1A68FB681344543301221A707B683E
:1052B000002B0BD00121786800F0B2FB1C4B4FF0A3
:1052C00080521A60BFF34F8FBFF36F8FFBF7FCFC68
:1052D000FBF7CAFC154B1B68FA68143253F82230EE
:1052E0007B617B69002B12D0BB68002B07D00F4B72
:1052F0001B68FA681432002143F8221007E00B4BB8
:105300001B687A69511EFA68143243F82210074B61
:105310001A68FB681344543300221A70FBF7D4FC5C
:105320007B6918461837BD4680BD00BFDC310120BF
:1053300004ED00E080B586B000AFF860B9607A6037
:105340003B60FB68002B0AD04FF0500383F31188B9
:10535000BFF36F8FBFF34F8F3B6100BFFEE7FBF7DB
:1053600083FC324B1A68FB68134454331B78DBB25E
:10537000022B22D02D4B1B68FA68143253F82210EE
:10538000BA68D2431140FA68143243F82210274B0E
:105390001A68FB681344543301221A703B6A002BCD
:1053A0000BD00121386A00F03BFB214B4FF08052BB
:1053B0001A60BFF34F8FBFF36F8FFBF785FCFBF7CE
:1053C00053FC3B68002B07D0184B1B68FA6814325B
:1053D00053F822203B681A60144B1A68FB68134488
:1053E00054331B78DBB2022B02D000237B610EE02A
:1053F0000E4B1B68FA68143253F822107A68D243B5
:105400001140FA68143243F8221001237B61074BE4
:105410001A68FB681344543300221A70FBF754FCDB
:105420007B6918461837BD4680BD00BFDC310120BE
:1054300004ED00E080B58CB000AFF860B9607A6030
:10544000FB700123FB62BB68002B0AD04FF05003B6
:1054500083F31188BFF36F8FBFF34F8F3B6200BFA1
:10546000FEE7FB68002B0AD14FF0500383F311884D
:10547000BFF36F8FBFF34F8FFB6100BFFEE7FB6889
:10548000BB62FBF7F1FBBB6B002B06D0BB6ABA68B3
:10549000143253F82220BB6B1A60BA6ABB681344FB
:1054A00054331B7887F82730BA6ABB6813445433E7
:1054B00002221A70FB78042B3BD801A252F823F089
:1054C00051550008D5540008F1540008095500084A
:1054D00017550008BB6ABA68143253F822207B685B
:1054E00042EA0301BB6ABA68143243F8221032E080
:1054F000BB6ABA68143253F82230591CBB6ABA68C6
:10550000143243F8221026E0BB6ABA681432796874
:1055100043F822101FE097F82730022B06D0BB6A11
:10552000BA681432796843F8221014E00023FB6251
:1055300011E02B4B1B68002B0CD04FF0500383F372
:105540001188BFF36F8FBFF34F8FBB6100BFFEE7C2
:1055500000BF00E000BF97F82730012B39D1BB6AAC
:1055600004331846FBF710FABB6ADB6A01229A4043
:105570001C4B1B6813431B4A1360BB6ADA6A134651
:105580009B0013449B00184A1A44BB6A0433194613
:105590001046FBF79CF9BB6A9B6A002B0AD04FF0C0
:1055A000500383F31188BFF36F8FBFF34F8F7B617D
:1055B00000BFFEE7BB6ADA6A0C4B1B68DB6A9A42E3
:1055C00007D90B4B4FF080521A60BFF34F8FBFF3D8
:1055D0006F8FFBF779FBFB6A18463037BD4680BDFD
:1055E000B8320120BC320120E0310120DC31012041
:1055F00004ED00E080B590B000AFF860B9607A606B
:10560000FB700123FB63FB68002B0AD14FF05003B2
:1056100083F31188BFF36F8FBFF34F8FFB6200BF1F
:10562000FEE7BB68002B0AD04FF0500383F31188CC
:10563000BFF36F8FBFF34F8FBB6200BFFEE7FBF777
:10564000F4FBFB68BB63EFF311824FF0500383F36D
:105650001188BFF36F8FBFF34F8F7A623B627B6A13
:105660007B63BB6C002B06D0BB6BBA68143253F85B
:105670002220BB6C1A60BA6BBB68134454331B788E
:1056800087F83330BA6BBB681344543302221A7064
:10569000FB78042B3BD801A252F823F02D570008C9
:1056A000B1560008CD560008E5560008F35600082C
:1056B000BB6BBA68143253F822207B6842EA0301BC
:1056C000BB6BBA68143243F8221032E0BB6BBA6885
:1056D000143253F82230591CBB6BBA68143243F8A9
:1056E000221026E0BB6BBA681432796843F82210A6
:1056F0001FE097F83330022B06D0BB6BBA68143228
:10570000796843F8221014E00023FB6311E0334B67
:105710001B68002B0CD04FF0500383F31188BFF3AC
:105720006F8FBFF34F8FFB6100BFFEE700BF00E04C
:1057300000BF97F83330012B45D1BB6B9B6A002B20
:105740000AD04FF0500383F31188BFF36F8FBFF37C
:105750004F8FBB6100BFFEE7214B1B68002B1CD1A4
:10576000BB6B04331846FBF70FF9BB6BDB6A0122F6
:105770009A401C4B1B6813431A4A1360BB6BDA6ACE
:1057800013469B0013449B00174A1A44BB6B043317
:1057900019461046FBF79BF805E0BB6B183319461A
:1057A0001248FBF794F8BB6BDA6A114B1B68DB6A93
:1057B0009A4208D9FB6C002B02D0FB6C01221A60C4
:1057C0000C4B01221A607B6B7B617B6983F3118830
:1057D00000BFFB6B18464037BD4680BDB832012084
:1057E000DC320120BC320120E03101207432012082
:1057F000DC310120C832012080B58EB000AFF860E6
:10580000B9607A60FB68002B0AD14FF0500383F334
:105810001188BFF36F8FBFF34F8FBB6200BFFEE7EE
:10582000BB68002B0AD04FF0500383F31188BFF3FD
:105830006F8FBFF34F8F7B6200BFFEE7FBF7F5FA78
:10584000FB687B63EFF311824FF0500383F3118801
:10585000BFF36F8FBFF34F8F3A62FB613B6A3B63CD
:105860007A6BBB68134454331B7887F82F307A6BFC
:10587000BB681344543302221A707B6BBA6814322B
:1058800053F82230591C7B6BBA68143243F822104B
:1058900097F82F30012B45D17B6B9B6A002B0AD0E8
:1058A0004FF0500383F31188BFF36F8FBFF34F8F17
:1058B000BB6100BFFEE7204B1B68002B1CD17B6B3C
:1058C00004331846FBF760F87B6BDB6A01229A40D1
:1058D0001A4B1B681343194A13607B6BDA6A134631
:1058E0009B0013449B00164A1A447B6B04331946F1
:1058F0001046FAF7ECFF05E07B6B183319461148A8
:10590000FAF7E5FF7B6BDA6A0F4B1B68DB6A9A429A
:1059100008D97B68002B02D07B6801221A600B4BF0
:1059200001221A603B6B7B617B6983F3118800BFA6
:1059300000BF3837BD4680BDDC320120BC320120BB
:10594000E031012074320120DC310120C832012015
:1059500080B586B000AF786039603B68002B0AD014
:105960004FF0500383F31188BFF36F8FBFF34F8F56
:10597000FB6000BFFEE77B68002B02D1104B1B6869
:1059800000E07B683B61FBF76FF93A693B681344C1
:1059900054331B78DBB2022B08D13A693B681344BD
:1059A000543300221A7001237B6101E000237B61E4
:1059B000FBF78AF97B6918461837BD4680BD00BFE2
:1059C000DC31012080B586B000AFF860B9607A6044
:1059D000FB68002B02D1114B1B6800E0FB687B6168
:1059E000FBF742F97B69BA68143253F822303B6105
:1059F0007B69BA68143253F822207B68DB4302EAE1
:105A000003017B69BA68143243F82210FBF75CF992
:105A10003B6918461837BD4680BD00BFDC31012008
:105A200080B584B000AF78603960294B1B68FB609B
:105A3000284B1B6804331846FAF7A6FF0346002BD1
:105A40000BD1244B1B68DB6A012202FA03F3DA4311
:105A5000214B1B681340204A13607B68B3F1FF3F62
:105A60000AD13B68002B07D01A4B1B680433194638
:105A70001A48FAF72CFF26E0FA687B681344BB60EB
:105A8000144B1B68BA685A60BA68FB689A4209D21C
:105A9000134B1A680F4B1B68043319461046FAF76C
:105AA0003AFF10E00F4B1A680A4B1B680433194683
:105AB0001046FAF730FF0C4B1B68BA689A4202D2C4
:105AC000094ABB68136000BF1037BD4680BD00BFE8
:105AD000B8320120DC310120BC320120A03201208B
