:020000040800F2
:100000007415002089010008B9110008B911000811
:10001000B9110008B9110008B9110008B911000898
:10002000B9110008B9110008B9110008B911000888
:10003000B9110008B9110008B9110008B911000878
:10004000B9110008B9110008B9110008B911000868
:10005000B9110008B9110008B9110008B911000858
:10006000B9110008B9110008B9110008B911000848
:10007000B9110008B9110008B9110008B911000838
:10008000B9110008B9110008B9110008B911000828
:10009000B9110008B9110008B9110008B911000818
:1000A000B9110008B9110008B9110008B911000808
:1000B000B9110008B9110008B9110008B9110008F8
:1000C000B9110008B9110008B9110008B9110008E8
:1000D000B9110008B9110008B9110008B9110008D8
:1000E000B9110008B9110008B9110008B9110008C8
:1000F000B9110008B9110008B9110008B9110008B8
:10010000B9110008B9110008B9110008B9110008A7
:10011000B9110008B9110008B9110008B911000897
:10012000B9110008B9110008B9110008B911000887
:10013000B9110008B9110008B9110008B911000877
:10014000B9110008B9110008B9110008B911000867
:10015000B9110008B9110008B9110008B911000857
:10016000B9110008B9110008B9110008B911000847
:10017000B9110008B9110008B9110008B911000837
:10018000B9110008B911000800B583B000F053F9A7
:1001900000F04CFB00F05AF9114B009304E0009B77
:1001A0001A1D009200221A60009B0E4A9342F6D359
:1001B0000D4B01930D4B009307E0019A131D019322
:1001C000009B191D009112681A60009B084A934217
:1001D000F3D300F02BFF01F0AEF901F0AFF900BF4F
:1001E00050010020741100208493010800000020B9
:1001F0005001002082B0164B1B680193019B43F015
:1002000001030193124A019B1360124B00221A60F2
:100210000F4B1B680193019B23F0847323F48033FD
:1002200001930B4A019B13600B4B0C4A1A60084B5D
:100230001B680193019B23F480230193044A019BD3
:100240001360074B00221A6000BF02B0704700BF66
:1002500000380240083802400438024010300024C0
:100260000C38024082B0064B1B680193019B43F09F
:100270003F030193024A019B136000BF02B0704725
:100280003038024082B0044B1B680193024A019B44
:10029000136000BF02B070473438024000BF70479F
:1002A00082B0084B1B680193019B43F40033019318
:1002B000019B43F080530193024A019B136000BFEE
:1002C00002B070474038024082B0044B1B68019373
:1002D000024A019B136000BF02B0704744380240DD
:1002E00082B0464B1B680193019B43F4803301931A
:1002F000424A019B1360424B009308E03F4B1B684E
:1003000003F40033002B06D1009B013B0093009BBC
:10031000002BF3DC00E000BF009B002B6ADD394BB3
:100320001B680193019B43F080530193354A019B65
:100330001360354B1B680193019B43F48043019389
:10034000314A019B1360314B1B680193019B23F0E1
:10035000F00301932D4A019B13602C4B1B68019302
:10036000019B23F460430193019B43F400430193F9
:10037000264A019B1360254B1B680193019B23F4C4
:10038000E0530193019B43F4A05301931F4A019B47
:1003900013601F4B01931F4A019B1360174B1B688F
:1003A0000193019B43F080730193144A019B1360F6
:1003B00000BF124B1B6803F00073002BF9D040F212
:1003C00003630193144A019B1360104B1B68019354
:1003D000019B23F003030193019B43F0020301936C
:1003E0000A4A019B136000BF084B1B6803F00C0313
:1003F000082BF9D100BF02B0704700BF003802409F
:10040000ECF70C0040380240007000400838024011
:100410000430410804380240003C024008B5FFF7B0
:1004200021FFFFF72FFFFFF739FFFFF739FFFFF736
:100430004BFF00BF08BD08B5FFF7DCFEFFF750FF1C
:10044000FFF7ECFF00BF08BD00BF704708B5FFF71E
:10045000FBFF00BF08BD000000B591B00190019BFB
:100460001B0903F00F030993099B052B02D96FF0B9
:10047000150380E19F4A099B52F823300893019BA2
:1004800003F00F030793019B03F44023B3F5402FC0
:100490001DD0B3F5402F05D8B3F5802F05D0B3F5A7
:1004A000002F11D000230A9314E0019B03F4807302
:1004B000002B14BF01230023DBB21946019800F082
:1004C0006FF901230A9305E002230A9302E0032354
:1004D0000A9300BFEFF3108372B6ADF80E30BDF88B
:1004E0000E30ADF81A300A9B022B05D1019B1B0B75
:1004F00003F00F030D9301E000230D930D9B002BE0
:1005000029D0079B072B04D820230C93079B0B9320
:1005100004E024230C93079B083B0B93089A0C9B45
:1005200013441B680F930B9B9B000F2202FA03F3EB
:10053000DB431A460F9B13400F930B9B9B000D9AB6
:1005400002FA03F30F9A13430F93089A0C9B134478
:100550001A460F9B1360089B1B680F93079B5B0059
:10056000032202FA03F3DB431A460F9B13400F9357
:10057000079B5B000A9A02FA03F30F9A13430F9347
:10058000089B0F9A1A6000230E930A9B032B0FD02F
:10059000019B03F44033B3F5803F03D0B3F5003F34
:1005A00003D006E001230E9303E002230E9300E044
:1005B00000BF089B0C331B680F93079B5B00032253
:1005C00002FA03F3DB431A460F9B13400F93079B7A
:1005D0005B000E9A02FA03F30F9A13430F93089BE2
:1005E0000C331A460F9B13600D9B002B29D1079BE0
:1005F000072B04D820230C93079B0B9304E02423A0
:100600000C93079B083B0B93089A0C9B13441B68A5
:100610000F930B9B9B000F2202FA03F3DB431A4656
:100620000F9B13400F930B9B9B000D9A02FA03F351
:100630000F9A13430F93089A0C9B13441A460F9B6F
:1006400013600A9B012B02D00A9B022B1BD1019B3A
:1006500003F44063B3F5406F11D0B3F5406F05D894
:10066000B3F5806F05D0B3F5006F05D000230E936E
:1006700008E001230E9305E002230E9302E003231A
:100680000E9300BF01E000230E93089B08331B6804
:100690000F93079B5B00032202FA03F3DB431A4626
:1006A0000F9B13400F93079B5B000E9A02FA03F314
:1006B0000F9A13430F93089B08331A460F9B13603E
:1006C000089B04331B680F930122079B02FA03F374
:1006D0000E930A9B012B02D00A9B022B0CD1019B8B
:1006E00003F40073002B07D00F9A0E9B13430F9354
:1006F00007E000BF4C7A01080E9BDB430F9A1340C2
:100700000F93089B04331A460F9B13600A9B012B1F
:1007100025D0019B03F48073002B20D0079B03F0AE
:100720000C02174B13440593059B1B680F93079B03
:100730009B0003F00C0304930F22049B02FA03F3C3
:10074000DB431A460F9B13400F93099A049B02FA4E
:1007500003F30F9A13430F93059B0F9A1A60BDF88A
:100760001A30ADF80C30BDF80C3013F0010F00D189
:1007700062B600BF0023184611B05DF804FB00BF4D
:100780000838014000B583B00190019BDBB20193B2
:100790000198FFF761FE0346184603B05DF804FBBD
:1007A00086B001900B468DF80330019B1B0903F0C6
:1007B0000F030493049B052B1DD8104A049B52F889
:1007C00023300393019B03F00F0302939DF8033042
:1007D000002B05D00122029B02FA03F3059305E0EA
:1007E000029B1033012202FA03F30593039B183393
:1007F0001A46059B136000BF06B070474C7A01088B
:1008000082B003468DF8073000BF064B1B6803F02B
:100810004003002BF9D0044A9DF80730136000BF55
:1008200002B07047004400400444004000B583B06B
:100830004FF400320021244800F094FC2348FFF7D5
:100840000BFE2348FFF708FE224B1B680193019B18
:1008500023F4005301931F4A019B13601E4B1B6836
:100860000193019B23F47D5301931B4A019B136069
:10087000184B1B680193019B23F4BB5323F01C030B
:100880000193144A019B1360144B1B680193019B55
:1008900023F4E06323F001030193104A019B1360EA
:1008A0000F4BD0221A600B4B1B680193019B43F442
:1008B000005343F00C030193064A019B136000BFF1
:1008C00003B05DF804FB00BF40380240027C090021
:1008D000037C09000C4400401044004014440040D4
:1008E0000844004082B001900091019BD3F8AC20F5
:1008F000009B13441B68184602B0704784B00390F5
:1009000002910192039BD3F8AC20029B13441A4638
:10091000019B136000BF04B0704700B585B0019023
:100920000B46ADF80230019BBDF80220A3F89820D9
:100930000C210198FFF7D6FF0390039B23F4D0739B
:100940000393BDF8023003F4D073039A1343039367
:10095000039A0C210198FFF7D1FF14210198FFF7AA
:10096000C1FF0390039B23F001030393BDF8023002
:1009700003F00103039A13430393039A142101988C
:10098000FFF7BCFF00BF05B05DF804FB00B585B004
:1009900001900B46ADF80230EFF3108372B6ADF85C
:1009A0000A30BDF80A30ADF80E30BDF802301946F5
:1009B0000198FFF7B2FFBDF80E30ADF80C30BDF86E
:1009C0000C3013F0010F00D162B600BF00BF05B0BC
:1009D0005DF804FB00B587B001900091EFF3108340
:1009E00072B6ADF80A30BDF80A30ADF81630009B8B
:1009F000002B17D00C210198FFF774FF04901421ED
:100A00000198FFF76FFF0390049B9BB203F4D07330
:100A10009AB2039B9BB203F001039BB213439AB2B9
:100A2000009B1A8000210198FFF777FFBDF8163070
:100A3000ADF80830BDF8083013F0010F00D162B6F0
:100A400000BF00BF07B05DF804FB00B589B001909E
:100A5000019BD3F8843004930C210498FFF742FFE4
:100A60000590049BD3F8A820049BD3F8A0305B0822
:100A7000B2FBF3F30393039B5B090793079B5B01B3
:100A8000039AD31A01335B080693079B002B0ED100
:100A9000059B43F400430593039B1B090793079BA6
:100AA0001B01039AD31A01335B08069303E0059BED
:100AB00023F400430593079B1B010293029A069BB4
:100AC00013430293059A0C210498FFF717FF029A2B
:100AD00008210498FFF712FF059B23F4B0530593F8
:100AE000049B93F89D30012B04D1059B43F4C06314
:100AF000059308E0049B93F89D30022B03D1059BDE
:100B000043F480630593049B93F89E30092B09D02E
:100B1000049B93F89E30082B08D1049B93F89D30DA
:100B2000002B03D0059B43F480530593059A0C21B9
:100B30000498FFF7E3FE10210498FFF7D3FE059019
:100B4000059B23F440530593049B93F89F30002B9F
:100B500003D0059B43F400530593059A1021049894
:100B6000FFF7CCFE14210498FFF7BCFE0590059B0F
:100B700023F440730593059A14210498FFF7BEFEF1
:100B800000BF09B05DF804FB00B587B001900B46CB
:100B90008DF80330019BD3F884300593059BD3F87F
:100BA000AC300E4A934215D14FF4003304930C4BF2
:100BB000039300BF9DF80330002B05D0049A002159
:100BC000039800F0CFFA06E000220499039800F0A1
:100BD000C9FA00E000BF07B05DF804FB0044004024
:100BE0004038024000B585B00190019BD3F88430B5
:100BF000029301210198FFF7C7FF029BD3F8B030A1
:100C00001846FFF729FC029BD3F8B4301846FFF7CB
:100C100023FC10210298FFF765FE0390039B23F449
:100C20007D530393029B93F89F30002B03D0039BCB
:100C300043F400530393039A10210298FFF75EFEDA
:100C40000C210298FFF74EFE0390039B23F4BE7322
:100C50000393039A0C210298FFF750FE1421029887
:100C6000FFF740FE0390039B23F4E06323F00103AE
:100C70000393039A14210298FFF740FE0198FFF7AF
:100C8000E4FE0C210298FFF72DFE0390039B43F432
:100C9000005343F00C030393039A0C210298FFF7CF
:100CA0002DFE029B0022A3F89820029B012283F8CC
:100CB0009C200023184605B05DF804FB00B585B004
:100CC0000190019BD3F884300393039B002283F8A7
:100CD0009C2000210398FFF77DFE00210198FFF77B
:100CE00053FF0C210398FFF7FDFD0290029B23F4B4
:100CF000005323F00C030293029A0C210398FFF790
:100D0000FDFD039BD3F8B0301846FFF73BFD039B76
:100D1000D3F8B4301846FFF735FD00BF05B05DF8D5
:100D200004FB000000B585B00190019BD3F884302E
:100D30000393039B93F8A430039A0949184600F0E3
:100D4000F9FD0290029B002B05D1039B93F8A43080
:100D5000184600F025FB029B184605B05DF804FB21
:100D6000970D000800B585B00190019BD3F8843041
:100D70000393039B93F8A430184600F0EDFA039B0D
:100D800093F8A43000220021184600F0D3FD00BFE4
:100D900005B05DF804FB00B589B0039002910192A3
:100DA000019B059301238DF81B300023079344E03A
:100DB00000238DF81B3000210598FFF793FD0346B3
:100DC0009AB2059BA3F89A20059BB3F89A3003F0DA
:100DD0002003002B0ED0059BB3F8983003F02003BE
:100DE000002B07D0059B184606F055FD01238DF812
:100DF0001B300AE0059BB3F89A3003F00E03002B7A
:100E000003D004210598FFF76DFD059BB3F89A30D8
:100E100003F08003002B0DD0059BB3F8983003F04E
:100E20008003002B06D0059B184606F0D5FC012355
:100E30008DF81B30079B01330793079BFF2B03DCC7
:100E40009DF81B30002BB3D10023184609B05DF884
:100E500004FB86B0039002910192002305936FF08A
:100E60001803059300BF059B184606B0704700B5F0
:100E700085B001900091019BD3F884300393042145
:100E80000398FFF72FFD0290039BB3F89A301B04E1
:100E90001A46029B1A43009B1A60039B0022A3F888
:100EA0009A20029BDBB2184605B05DF804FB00B542
:100EB00087B001900B468DF80330019BD3F8843046
:100EC0000493EFF3108372B6ADF80C30BDF80C301C
:100ED000ADF80E30049BB3F89830ADF816309DF89D
:100EE0000330002B06D0BDF8163043F02003ADF8D8
:100EF000163007E0BDF8163023F4907323F0010399
:100F0000ADF81630BDF8163019460498FFF73EFDCF
:100F1000BDF80E30ADF80A30BDF80A3013F0010FFD
:100F200000D162B600BF00BF07B05DF804FB00B59A
:100F300085B00190019BD3F884300393002103987E
:100F4000FFF7D0FC034603F02003002B14BF01235E
:100F50000023DBB2184605B05DF804FB00B585B090
:100F600001900091019BD3F884300393009B1A46B3
:100F700004210398FFF7C2FC00BF05B05DF804FB35
:100F800000B587B001900B468DF80330019BD3F874
:100F900084300593EFF3108372B6ADF80E30BDF8D0
:100FA0000E30ADF812309DF80330002B0DD0059BAC
:100FB000B3F8983043F08003ADF81030BDF810302E
:100FC00019460598FFF7E2FC09E0059BB3F8983055
:100FD00023F080039BB219460598FFF7D7FCBDF8B4
:100FE0001230ADF80C30BDF80C3013F0010F00D109
:100FF00062B600BF00BF07B05DF804FB00B585B066
:101000000190019BD3F88430039300210398FFF7EC
:1010100069FC034603F08003002B14BF0123002367
:10102000DBB2184605B05DF804FB000000B583B0E4
:101030000023019310E00E4A019B52F82330002B4D
:1010400007D00B4A019B52F8233000211846FFF7C6
:10105000C1FC019B01330193019B052BEBD9054B8F
:101060001846FFF7BFFD00BF03B05DF804FB00BFEB
:10107000947A01080000002000B587B00023049393
:10108000214B1946214806F015FB1F4B19462048F5
:1010900006F010FB012304936B4610221D491846ED
:1010A00008F054F80023059325E01B4A059B52F8ED
:1010B0002330002B19D0184A059B52F823309B7817
:1010C000002B14D1049B5A1C0492DBB23033DBB2E8
:1010D0008DF80930104A059B52F823301A466B46AA
:1010E0001146184606F0E6FA02E000BF00E000BF35
:1010F000059B01330593059B052BD6D900BF00BF87
:1011000007B05DF804FB00BF00000020AC7A0108C6
:10111000BC7A0108C87A0108947A010800B585B044
:1011200001900F4B03930DF10A0319460398FFF743
:1011300051FC019B0A2B02D10D20FFF761FB019BA3
:10114000DBB21846FFF75CFBBDF80A30194603987E
:10115000FFF71CFC019B184605B05DF804FB00BFBF
:101160000000002088B0039002910192EFF31083F9
:1011700072B6ADF81430BDF81430ADF81E30039BD4
:101180001B680693029BDB43069A13400693069A5C
:10119000019B13430693039B069A1A60BDF81E3009
:1011A000ADF81630BDF8163013F0010F00D162B65D
:1011B00000BF00BF08B07047EFF305801EF0040FBA
:1011C00002D0EFF309818D466A4602F12002EFF367
:1011D00010832DE9FC4F6946DFF81CD000F008F9B8
:1011E000B0E8FC4F1EF0040F0CBF80F3088880F3BA
:1011F000098883F310887047500B002086B0039055
:10120000029101920093039B0F2B15DD039B103B72
:101210000593059B5B1140339B001A46009B1344CA
:1012200003F1E022029B1A60059B03F01F030122D9
:101230009A40019B1A6027E0029B154A1A60039BA3
:10124000042B04D1019B4FF480321A601CE0039BF5
:10125000052B04D1019B4FF400321A6014E0039B6C
:10126000062B04D1019B4FF480221A600CE0039BF3
:101270000F2B06D1029B074A1A60019B01221A60BC
:1012800002E04FF0FF3300E00023184606B070473D
:1012900024ED00E010E000E000B585B000230193EC
:1012A0000CE0019B5B1160339B0003F1E0231A46C5
:1012B0004FF0FF331360019B20330193019B512BAF
:1012C000EFDD1C4B1C4A1A601C4B4FF080321A6039
:1012D0001B4B4FF080321A601A4B4FF080321A606D
:1012E000194B1B680133DB000293184B039306E094
:1012F000039B4FF080321A60039B04330393029BDD
:101300005A1E0292002BF3D1002211490B2000F04B
:1013100011FB00220F49032000F00CFBF023009387
:10132000009B83F3118800BF62B600BF00BF05B009
:101330005DF804FB08ED00E00000000818ED00E097
:101340001CED00E020ED00E004E000E000E400E03F
:10135000D91400084914000800B587B0019003AA09
:1013600004A980230198FFF749FF0346002B13D1FE
:10137000019B0F2B04DD049B1A46039B13600BE0BB
:10138000049B1B680593039BDB43059A134005935D
:10139000049B1A46059B136000BF07B05DF804FB71
:1013A00000B587B0019003AA04A900230198FFF7B4
:1013B00025FF0346002B12D1019B0F2B04DD049B5C
:1013C0001A46039B13600AE0049B1B680593039B6A
:1013D000059A13430593049B1A46059B136000BFAF
:1013E00007B05DF804FB82B0019000BF02B0704707
:1013F00000B583B001900091124B1B68002B04D103
:10140000104A009B1360002300930198FFF7EBFF45
:101410000C4B1B681946019800F0CEFA009B002B7C
:101420000AD1084B1B68009A9A4202D0054B1B68F0
:101430000093044B00221A60009B184603B05DF82D
:1014400004FB00BF500B002000B58BB0039002914D
:1014500001921C4B1B6809931B4B1B680593029B55
:101460000893089B44331B68023B0793079B174A6A
:10147000934213D3079B164A93420FD2079B1B88B4
:10148000ADF81A30BDF81A30B3F55F4F06D1019AA6
:101490000299039800F020F803460FE0099B03F03F
:1014A0000203002BEFF3108372B6ADF81830029BE5
:1014B000084A0021002000F095FC002318460BB0DC
:1014C0005DF804FB2CED00E028ED00E000000008D2
:1014D0007B930108D47A010886B0039002910192AF
:1014E000029B0593059BDB6A0493049B012B03D0AD
:1014F000049B022B07D013E0059B30331B681A4670
:10150000094B1A600CE0059B30331B681A46059B9B
:101510001360059B34331B681A46034B1A6000BFE7
:101520000023184606B07047500B002008B5FFF79F
:10153000A3FD00BF08BD00BF7047000000B587B025
:10154000B14B01221A7000230593A8E0059A1346B7
:101550005B0113449B00AD4A1344842200211846CA
:1015600007F0C2FDA949059A13465B0113449B008D
:101570000B440C33059A1A60A449059A13465B0183
:1015800013449B000B441C3303221A709F49059A95
:1015900013465B0113449B000B4414339C4A1A60AE
:1015A0009A49059A13465B0113449B000B44183378
:1015B000974A1A609549059A13465B0113449B00AC
:1015C0000B441E3306221A80924A059B924942F828
:1015D00033108E49059A13465B0113449B000B445C
:1015E0001C331B788D4ADB0013441B7903F008037E
:1015F000002B17D08549059A13465B0113449B00C5
:101600000B44443319688148059A13465B0113441F
:101610009B0003441C331B781A46804B53F832302E
:101620000B440CE07949059A13465B0113449B0077
:101630000B441C331B781A46784B53F83230039313
:10164000059A13465B0113449B00704A13440293AE
:10165000029B00225A60039B1A68029B1A60039B3C
:101660001B68002B06D1039B029A1A60039B029A07
:101670005A6006E0039B1B68029A5A60039B029A19
:101680001A60059A13465B0113449B005F4A1A4493
:101690006349059B41F82320059B01330593059B76
:1016A000002B7FF753AF584B02221A706A4601ABEA
:1016B0001146184608F014FD019B009A1146184681
:1016C00007F0E0FF574B04221A6004E0554B1B68FB
:1016D0005B00544A1360534B1B68012BF6DD514BE2
:1016E0001B689B00184608F013F803461A464E4B39
:1016F0001A600023059361E04A4B1B68013B059A81
:1017000013400493484B1A68049B9B00D118059A18
:1017100013465B0113449B003C4A13440B60059A3B
:1017200013465B0113449B00384A98183749059AC1
:1017300013465B0113449B000B441E331B88DBB232
:10174000194601F0F7FA3149059A13465B01134433
:101750009B000B4408331B681B6C059AD2002D4973
:101760000A441A61059A13465B0113449B00274AF9
:101770001344184608F00CFF059A13465B01134406
:101780009B00224A1344184601F062F9059A134659
:101790005B0113449B001D4A1344184601F01AFBD9
:1017A0001A49059A13465B0113449B000B44083306
:1017B0001B6803221A73059B01330593059B002BBD
:1017C0009ADD1A4B00221A600F4B03221A7000F0A8
:1017D0004BFD0FF07FFB00F093F801F0A9F900F04A
:1017E000D5FF00F0AFFE00F0AFFC00F0BFFC12F040
:1017F0004EF9FFF79BFE04F0F7FF034B04221A702B
:10180000002305932FE000BF840B0020880B0020ED
:101810003D1500080C0C0020247B0108DC7A01082F
:101820005C0B0020800B00207C0B0020780B00203C
:10183000059B002B0ADD059A13465B0113449B00B0
:10184000114A1344184601F02FFB09E0059A13468C
:101850005B0113449B000C4A1344184601F0FEFA46
:10186000059B01330593059B002BE1DD074B05220A
:101870001A7000F035F8054B06221A7000F024FDAE
:1018800008F07CFCFCE700BF880B0020840B0020E4
:1018900000B58BB00023089303AB184606F061FD3A
:1018A00064238DF80D304FF40063069303AA0023E0
:1018B000019308AB0093134600220449044800F04A
:1018C00038FF099000BF0BB05DF804FBC1A700080A
:1018D000307B010808B5FFF7DBFF00BF08BD000043
:1018E00008B501220449054801F03EF9FFF7F2FF6F
:1018F0000023184608BD00BF3C7B0108407B01085F
:1019000000B583B00023019307E0084A019B084912
:1019100042F83310019B01330193019B612BF4DDED
:10192000FFF7BAFC00BF03B05DF804FB140C002005
:10193000211A000800B589B00390029101926FF05E
:1019400015030793039B612B2CD8039B0693EFF39E
:10195000108372B6ADF81430BDF81430ADF81630FF
:10196000029B002B06D10398FFF7F6FC104B029365
:10197000002301930F49069B029A41F833200D4A38
:10198000069BDB001344019A5A60BDF81630ADF88F
:101990001230BDF8123013F0010F00D162B600BF53
:1019A00000230793079B184609B05DF804FB00BFAE
:1019B000211A0008140C002000B587B00190009196
:1019C000134B059300230493019B0393019B612B0D
:1019D00010D8039B0F4A52F83330002B0AD0039BD8
:1019E0000C4A52F833300593039B0A4ADB00134438
:1019F0005B680493059B049A009901989847064BED
:101A00001B68064A136000BF07B05DF804FB00BF07
:101A1000211A0008140C0020540B00205C0B00203D
:101A200000B587B0039002910192EFF3108372B674
:101A3000ADF81630024A0021002006F003F800BF7E
:101A4000447B010882B0064B1B68002B14BF0123A6
:101A500000238DF807309DF80730184602B0704714
:101A6000500B0020F0B58FB00B900A910B9B23F028
:101A70001F030D932BE00D9B0C930D9B09930C9B67
:101A80001B680C9A043212680C99083109680C988A
:101A90000C3000680C9C103424680C9D14352D68A3
:101AA0000C9E183636680C9F1C373F6807970696C1
:101AB000059504940390029101920093099B094AB1
:101AC0000949002007F0E0FB0D9B20330D930A9B92
:101AD00023F01F030D9A9A42CDD300BF00BF0FB071
:101AE000F0BD00BFD07D0108847B010800B587B040
:101AF0000390029101920093019A009B1344059375
:101B0000039B174A1749002007F0BEFB019B144AAC
:101B10001549002007F0B8FB009B114A134900202B
:101B200007F0B2FB9DF8243083F00103DBB2002BF9
:101B30000AD0029B0A4A0E49002007F0A5FB05992E
:101B40000298FFF78FFF06E0019A009B13441946A5
:101B50000198FFF787FF00BF07B05DF804FB00BFE7
:101B6000DC7D0108C07B0108D07B0108E07B010817
:101B7000F47B010800B58FB00390029108F07EFB62
:101B80000A904FF4006309930A9A099B134408933F
:101B900000230D93039B1B6C0793039B9B6B069386
:101BA000079A069B1344059300230C9300238DF89A
:101BB0002F30029A0A9B9A420ED3029A089B9A42AD
:101BC0000AD2029B0D93039BD3F88030184608F08D
:101BD0009DFB03460C9312E0029A079B9A4206D3A0
:101BE000029A059B9A4202D2029B0C9307E00123C2
:101BF0008DF82F30164A1749002007F045FB0D9B42
:101C0000002B03D19DF82F30002B0AD00D999DF8A1
:101C10002F30019300230093099B0A9A0E48FFF787
:101C200065FF0C9B002B03D19DF82F30002B0AD0B1
:101C30000C999DF82F30019300230093069B079A7F
:101C40000648FFF753FF00BF0FB05DF804FB00BF6D
:101C5000E87D0108047C0108387C01083C7C01080F
:101C6000F0B5AFB01390129100231D931EAB3C2230
:101C70000021184607F038FA1DAB40221946139888
:101C800001F036F915AB20221946139800F080FBBD
:101C900015AB2C21184607F041FA2D902D9B002BF7
:101CA00002D02D9B20221A70139BDB680E93139B8E
:101CB0009B68002B03D0139B9B685B6801E04FF08F
:101CC000FF33139A127C0F92139AD28B521102F0A7
:101CD00003022D4951F822201399C98B01F0030109
:101CE0002A4850F821101398C08B00F004000028F7
:101CF00001D04E2000E02D20139CE48B04F0100452
:101D0000002C01D0502400E02D24139DED8B05F410
:101D10000065002D01D0502500E02D25139EF66CA6
:101D2000139FBF6CDDF84CC0DCF840C0CDF840C05C
:101D3000DDF84CE0DEF838E0CDF844E00DF1740C4D
:101D4000CDF834C0DFF848C0CDF830C0DDF844E04D
:101D5000CDF82CE0DDF840C0CDF828C009970896F2
:101D600015AE0796069505940490039102920F9A7A
:101D7000019200930E9B074A0749002007F084FA5E
:101D800000BF2FB0F0BD00BFB8000020C07D01082B
:101D90008C7C0108F47D0108447C010800B583B007
:101DA0000C4A0D49002007F06FFA08F067FA034665
:101DB0001A464FF4006300931346064A0749002071
:101DC00007F062FA0021064800F000FA00BF03B0F5
:101DD0005DF804FB007E0108987C0108087D01087D
:101DE000611C000800B5B1B00790069105920493FC
:101DF000FFF728FE0346002B02D0434B1B6801E08F
:101E0000424B1B682E9301238DF8BF30049B002B9F
:101E100004D13F4808F04CF93D4B049305F0C2FD56
:101E2000FFF710FE034683F00103DBB2002B08D05E
:101E30002E9BDB8B03F00303022B02D000238DF8D3
:101E4000BF309DF8BF3083F00103DBB22E991846F6
:101E500000F068F809AB184605F022FE09AA09ABA4
:101E60007D33039309AB4A33029309AB35330193B6
:101E700009AB153300931346264A2749002007F083
:101E800003FA059B002B01D0059A00E0234A079B2B
:101E9000002B01D0079B00E0204B2E99896902910D
:101EA00006990191009313461A4A1D49002007F034
:101EB000EBF9049808F034FA049808F027FA03467E
:101EC00019462E98FFF756FE05F06CFD9DF8BF30C1
:101ED000002B14D0FFF762FF05F064FD2E9902205D
:101EE00000F020F80021022000F0AAF8EFF31083A0
:101EF00072B6ADF8B630FA2008F02EFBFBE700BF53
:101F000031B05DF804FB00BF5C0B0020540B0020D7
:101F1000300F00200C7E0108607D0108887D0108DB
:101F20008C7D010800B58BB0019000911F4B079389
:101F3000EFF3108372B6ADF80E30BDF80E30ADF889
:101F40001A304FF0FF33089300230593079B1B685B
:101F5000099315E0099B5B680493099B1B68009A31
:101F6000019909989847059B002B04D0059B1B6895
:101F70005A1C059B1A60049B0993089B013B08931C
:101F8000099B002B02D0089B002BE3D1BDF81A302F
:101F9000ADF80C30BDF80C3013F0010F00D162B673
:101FA00000BF00BF0BB05DF804FB00BF7C0F00203A
:101FB00088B00190214B0593EFF3108372B6ADF812
:101FC0000A30BDF80A30ADF81230059B0793019B2B
:101FD00003930023069313E0079B1B68039A9A421E
:101FE00003D16FF0100306930FE0039B9A68079BE1
:101FF0001B689B689A4208DC079B1B6804330793A5
:10200000079B1B68002BE7D100E000BF069B002B5D
:1020100006D1079B1A68039B5A60079B039A1A60B4
:10202000BDF81230ADF80830BDF8083013F0010FDC
:1020300000D162B600BF00BF08B07047800F00201B
:1020400000B58BB0019000911F4B0793EFF3108305
:1020500072B6ADF80E30BDF80E30ADF81A304FF054
:10206000FF33089300230593079B1B68099315E032
:10207000099B5B680493099B1B68009A0199099866
:102080009847059B002B04D0059B1B685A1C059B99
:102090001A60049B0993089B013B0893099B002B42
:1020A00002D0089B002BE3D1BDF81A30ADF80C30FC
:1020B000BDF80C3013F0010F00D162B600BF00BFB5
:1020C0000BB05DF804FB00BF800F002000B587B0A7
:1020D00001900B46ADF8023013468DF80130BDF883
:1020E00002302C2202FB03F3184607F0EFFA0346F6
:1020F0000593059B002B23D0002304931BE0059B35
:102100009DF801201A72019B0393059B0293039B88
:102110001A68029B1A60029B039A5A60039B1B6811
:10212000029A5A60039B029A1A60059B2C3305930E
:10213000049B01330493BDF80230049A9A42DEDB1B
:1021400000BF07B05DF804FB08B500220821054870
:10215000FFF7BCFF022208210348FFF7B7FF00BFCB
:1021600008BD00BFC8000020D000002000B585B029
:102170004FF4C07007F0AAFA03460393039B002BA9
:102180001DD00023029317E00F4B0193039B009394
:10219000019B1A68009B1A60009B019A5A60019B80
:1021A0001B68009A5A60019B009A1A60039B3033A7
:1021B0000393029B01330293029B072BE4DD00BFD4
:1021C00005B05DF804FB00BFD800002000B587B063
:1021D00001900091EFF3108372B6ADF81030BDF8A6
:1021E0001030ADF812300023059314E0144B1A6838
:1021F000059B9B0013441B68002B09D0104B1A68E9
:10220000059B9B0013441A68019B00991046984750
:10221000059B013305930B4B1B68059A9A42E5DB3E
:10222000BDF81230ADF80E30BDF80E3013F0010FCE
:1022300000D162B600BF00BF07B05DF804FB00BF6D
:102240007C0B0020800B002082B0064B1B68002B0B
:1022500014BF012300238DF807309DF8073018467E
:1022600002B07047500B002000B583B00D4B1B68C7
:102270000193019B002B10D0FFF7E6FF034683F08C
:102280000103DBB2002B08D0019BB3F920309BB2D5
:1022900001339BB21AB2019B1A840023184603B083
:1022A0005DF804FB540B002082B0064B1B68002B2A
:1022B00014BF012300238DF807309DF8073018461E
:1022C00002B07047500B002000B585B02E4B1B6844
:1022D0000393039B002B52D0FFF7E6FF034683F0E6
:1022E0000103DBB2002B4AD0EFF3108372B6ADF8D6
:1022F0000830BDF80830ADF80A30039BB3F9203040
:10230000002B08DD039BB3F920309BB2013B9BB24D
:102310001AB2039B1A84039BB3F92030002B23DCF1
:10232000039B00221A84194B1B68002B0AD000F073
:1023300041FE0346002B05D0134B1B68039918463A
:1023400008F0B8F8039BDB8B03F06003202B0BD164
:10235000039B5B6A002B07D10B4B1B68039A9A42C5
:1023600002D0039B14225A62BDF80A30ADF8063041
:10237000BDF8063013F0010F00D162B600BF002394
:10238000184605B05DF804FB540B0020600B0020DC
:1023900000B589B0039002910192EFF3108372B6F9
:1023A000ADF81630BDF81630ADF81E30039B1B7F1C
:1023B000052B1CD1039B5B6C9B7803F00403002B63
:1023C00015D0039B5B6CDB680693BDF81E30ADF83F
:1023D0001430BDF8143013F0010F00D162B600BF05
:1023E000069B104A0199029805F0F4FF16E0BDF82B
:1023F0001E30ADF81230BDF8123013F0010F00D1CD
:1024000062B600BF039B1B7F1A46074B53F822306E
:10241000019A1946029806F099FE00BF00BF09B064
:102420005DF804FB907E0108A47E010800B587B02A
:1024300001900B46ADF8023013468DF80130BDF81F
:1024400002305B01184607F041F903460393039BF2
:10245000002B2AD0039B05930023049320E0059BC7
:102460009DF801201A77059B03F120020592029343
:10247000029B00221A60019B1B68002B06D1019B66
:10248000029A1A60019B029A5A6006E0019B5B68FF
:10249000029A1A60019B029A5A60049B01330493CA
:1024A000BDF80230049A9A42D9DB039B184607B064
:1024B0005DF804FB00B587B001900B46ADF8023023
:1024C00013468DF80130BDF8022013469B001344DB
:1024D0009B00184607F0FAF803460393039B002B72
:1024E0002AD0039B05930023049320E0059B9DF8CD
:1024F00001201A74059B03F1140205920293029BBA
:1025000000221A60019B1B68002B06D1019B029AD6
:102510001A60019B029A5A6006E0019B5B68029A6E
:102520001A60019B029A5A60049B01330493BDF820
:102530000230049A9A42D9DB039B184607B05DF833
:1025400004FB000008B5204B00221A601E4B00223D
:102550005A601E4B00221A601C4B00225A601C4B12
:1025600000221A601A4B00225A601A4B00221A608D
:10257000184B00225A60184B00221A60164B00229A
:102580005A60002204211148FFF750FF0346134A06
:102590001360022208210E48FFF748FF0346104A45
:1025A0001360002204210B48FFF784FF03460D4A05
:1025B0001360022208210848FFF77CFF03460A4AFD
:1025C000136000BF08BD00BF840F00208C0F0020E7
:1025D000940F00209C0F0020A40F0020AC0F0020BF
:1025E000B00F0020B40F0020B80F002000B58DB050
:1025F0000790069105920493842007F089F803461A
:102600000B930B9B002B02D16FF00B0332E00B9B63
:102610000022DA83049B109A03920F9A02920E9A78
:1026200001920093059B069A07990B9800F076FD9E
:102630000A900A9B002B04DA0B9807F037F80A9BE4
:1026400018E0119B002B0DD00B9B1199184601F03F
:1026500042F90A900A9B002B04DA0B9800F0E6FD81
:102660000A9B07E00B9BDB6809930B9B184601F064
:1026700015F8099B18460DB05DF804FB10B58EB037
:10268000079006910592049300230D9300230A936B
:10269000FFF7EAFD109B002B09D0109B5B780B9392
:1026A000109BDB680C93109B1B690D930DE008AB2E
:1026B0001946002000F0E0FC0A900A9B002B2FDB5B
:1026C000089B0B934FF400630C930C9C129B002B04
:1026D00003D100F03DFA034600E0129B049A0392F6
:1026E0000293119B0193059B009323460D9A0B992E
:1026F0000698FFF77BFF0990099B002B02DA099BE4
:102700000A9310E0099B002B02D0079B099A1A60DC
:10271000109B002B06D01099099801F083F802E075
:1027200000BF00E000BFFFF7CFFD0A9B18460EB0C8
:1027300010BD00B58BB007900691059204934FF041
:10274000FF330893049B002B02D0049801F0ACF8EF
:10275000059B002B02D0059B1B6800E0002308A806
:102760000D9A02920C9A0192049A0092069A079985
:10277000FFF784FF0990099B002B01DB089B00E019
:10278000099B18460BB05DF804FB000082B01F4B9C
:1027900000221A601D4B00225A600023019329E099
:1027A0001B49019A1346DB001344DB000B4405333D
:1027B00001221A70019A1346DB001344DB00144A0D
:1027C00013440093009B00221A60104B1B68002BDF
:1027D00006D10E4A009B13600C4A009B536006E032
:1027E0000A4B5B68009A1A60084A009B5360019B81
:1027F00001330193019B032BD2DD064B00221A60AB
:10280000044B00225A6000BF02B07047DC10002069
:10281000BC0F0020E410002000B587B00190EFF35A
:10282000108372B6ADF80A30BDF80A30ADF8123038
:10283000114B1B6805930CE0059B1B680393059BDC
:102840009B68019A9A4202D1059800F049F8039BCF
:102850000593059B002BEFD1BDF81230ADF8083081
:10286000BDF8083013F0010F00D162B600BF00BF01
:1028700007B05DF804FB00BFE410002086B00190B3
:1028800000230593019B002B24D0EFF3108372B635
:10289000ADF80C30BDF80C30ADF80E300F4B1B68A6
:1028A000049309E0049A019B9A4202D1019B05938B
:1028B00005E0049B1B680493049B002BF2D1BDF838
:1028C0000E30ADF80A30BDF80A3013F0010F00D118
:1028D00062B600BF059B184606B07047E4100020A2
:1028E00000B585B001900198FFF7C8FF0346184670
:1028F00000F08CF80390039B002B08DA05F0BEF87B
:102900000246039B5B4213604FF0FF3300E000235D
:10291000184605B05DF804FB00B589B00190EFF3EF
:10292000108372B6ADF80E30BDF80E30ADF81A3027
:10293000019B0593334B1B68002B27D0059B002B75
:1029400024D0304B1B68059A9A420CD12D4A059B26
:102950001B6813602B4B5B68059A9A4216D1294B72
:1029600000225A6012E0274B1B6807930BE0079B7D
:102970001B68059A9A4203D12249079805F061FA2B
:10298000079B1B680793079B002BF0D1019B5B798A
:1029900003F00103002B21D0019B0493049B002230
:1029A0001A60194B1B68002B06D1174A049B136051
:1029B000154A049B536006E0134B5B68049A1A6047
:1029C000114A049B5360BDF81A30ADF80C30BDF8C5
:1029D0000C3013F0010F00D162B60EE0BDF81A30D2
:1029E000ADF80A30BDF80A3013F0010F00D162B61D
:1029F00000BF019806F05AFE00BF00BF09B05DF8A5
:102A000004FB00BFE4100020DC10002000B583B000
:102A10000190019B002B02D16FF0150314E0019B84
:102A20009B79012B07D9019B9B79013BDAB2019B72
:102A30009A71012308E0019B1033184600F020F83A
:102A40000198FFF769FF0023184603B05DF804FB07
:102A500000B585B001901821019807F0EDFC0390B6
:102A6000039B002B02D16FF00B0305E0019B9B68D9
:102A70001A6C039B1A600023184605B05DF804FB2E
:102A800000B589B001906FF015030593EFF3108343
:102A900072B6ADF81030BDF81030ADF81230019BB1
:102AA000002B32D0019B9B68002B2ED00023069375
:102AB0001E4B1B68079304E0079B0693079B1B684C
:102AC0000793079B002B03D0079A019B9A42F3D1EF
:102AD000079B1B68002B08D0079B1B68D968079BC6
:102AE000DA68079B1B680A44DA60069B002B04D057
:102AF0000E49069805F0A5F902E00C4805F087F9A3
:102B0000019B00229A6000230593BDF81230ADF8B6
:102B10000E30BDF80E3013F0010F00D162B600BFC9
:102B2000059B184609B05DF804FB00BFFC100020AF
:102B300008B507F0F7FA00BF08BD0000034B1B689B
:102B40000133024A136000BF704700BFEC10002041
:102B500082B0044B1B680193019B9B685B6D184618
:102B600002B07047540B002010B58EB00590049150
:102B7000039200230C9300230B93059B002B02D19F
:102B800016230B938DE0049B002B03D0049B1B7832
:102B9000002B09D1039B002B04D0059800F090F87E
:102BA000034685E0002383E0FFF75EFB424B1B6892
:102BB0000A930A9B9B680993099B5B6D002B12D0BB
:102BC0000599099800F099FF0B900B9B002B0ADBED
:102BD000039B002B03D1FFF777FB002368E00B99E1
:102BE000099800F0B8FF059806F0E6FA0446049844
:102BF00006F0E2FA0346234402330893089B184682
:102C000006F064FD03460793079B002B02D10C23BB
:102C10000B9344E0099B5B6D002B12D0099B9B6DCD
:102C20000C93099B5A6D0C9B02339B00194610466E
:102C300006F05CFD0D900D9B002B0DD10C230B932A
:102C40002AE0082006F042FD03460D930D9B002B61
:102C500002D10C230B931FE00C9B5A1C0C929B007F
:102C60000D9A1344079A1A600C9B9B000D9A13440B
:102C700000221A60099B0D9A5A65099B0C9A9A6565
:102C80000899049B0093059B0C4A079805F0A2FB4A
:102C9000FFF71AFB00230BE0079806F007FDFFF78C
:102CA00013FB04F0EBFE02460B9B13604FF0FF3367
:102CB00018460EB010BD00BF540B0020C87E01089E
:102CC00000B587B001901A4B1B680593059B9B6864
:102CD0000493019B002B0AD0019B1B78002B06D08C
:102CE0003D21019806F01AFA0346002B07D004F0A4
:102CF000C5FE034616221A604FF0FF3313E0FFF7BC
:102D0000B3FA049B002B0BD00199049800F0F5FE58
:102D10000390039B002B03DB0399049800F01BFF37
:102D2000FFF7D2FA0023184607B05DF804FB00BF96
:102D3000540B002000B585B001900B468DF8033090
:102D40006FF00B030393942006F0E2FC034602931A
:102D5000029B002B02D16FF00B0336E0102006F02F
:102D6000B5FC03461A46029B1A61029B1B69002BA5
:102D700026D0029B04229A73019B029A9A60029BBE
:102D8000603318460EF051F9029800F0F3FD0390FD
:102D9000039B002B0DDB029B2833184604F0D1FE69
:102DA000029B183300220021184605F004F9002385
:102DB0000BE000BF029B1B69184606F077FC00E0A1
:102DC00000BF029806F072FC039B184605B05DF840
:102DD00004FB000000B587B00190019B9B68059340
:102DE000059B03F17802019BDB8B03F00203002BB0
:102DF00014BF01230023DBB21946104606F098FCED
:102E0000059B1B69019AD2681A60019BDA68059BD1
:102E10005A60059B01225A73EFF3108372B6ADF826
:102E20000E30BDF80E30ADF812300B4B1A68059B12
:102E30001A60094A059B1360BDF81230ADF81030D6
:102E4000BDF8103013F0010F00D162B600BF00BF13
:102E500007B05DF804FB00BFF810002000B585B096
:102E6000019003210F480FF001FA0390039B002B00
:102E70000CD1012100200EF030FB022100200EF0C9
:102E80002CFB019800F0A7FF034607E0039B002BF3
:102E900002DD03980EF098FB6FF01603184605B09C
:102EA0005DF804FBD07E010800B587B00190019B5E
:102EB0009B6805930D4B1B680493049B9B6803F16F
:102EC0006002059B6033194610460EF0C5F9039069
:102ED000039B002B01DA039B03E0019800F07BFFCA
:102EE0000346184607B05DF804FB00BF540B0020F2
:102EF00000B58BB005900491039200230993059BC4
:102F0000002B08D0059B9B68002B04D0059B9B6879
:102F10001B6C002B04D1049B00221A70002340E09C
:102F2000059BDB8B03F00303012B13D1059B079358
:102F3000079B9A69079BD3F88830009313461B4A76
:102F40000399049805F046FA03461A46099B134470
:102F5000099320E0059B9B681B6C1B690433089355
:102F600011E0049A099BD018039A099BD11A089B77
:102F70001A1D08921B680E4A05F02CFA03461A46E1
:102F8000099B13440993089B1B68002B03D0099AE3
:102F9000039B9A42E5D3039B5A1E099B934228BF89
:102FA000134618460BB05DF804FB00BFE07E010835
:102FB000E87E010886B000238DF80F302C4B1B688B
:102FC0000493049BB3F92030002B4BD1294B1B6891
:102FD00005933EE0059B1B68029302E0049B1B687F
:102FE0000493049B002B05D0059B1A7C049B1B7C3F
:102FF0009A42F3D9049B5B680193019B002B15D186
:10300000059B049A1A60059B00225A60049B059A4E
:103010005A60174A059B1360049B02221A77059B8E
:1030200003221A7701238DF80F300EE0059B049AD6
:103030001A60059B019A5A60019B059A1A60049BCD
:10304000059A5A60059B02221A77059B0493029BFE
:103050000593059B002BBDD1064B00221A60054B42
:1030600000225A609DF80F30184606B0704700BF26
:10307000540B0020600B002000B587B00190009138
:1030800000230593009B002B02D16FF0150325E070
:10309000144B1B680493019B002B04D0049BDB683A
:1030A000019A9A4205D1049B1B7C1A46009B1A6028
:1030B00013E0FFF7D9F8019801F0D8F90390039BCA
:1030C000002B03D16FF00203059304E0039B1B7CEC
:1030D0001A46009B1A60FFF7F7F8059B184607B0E1
:1030E0005DF804FB540B002000B585B00190009101
:1030F00000990198FFF7C0FF0390039B002B08DAAB
:1031000004F0BCFC0246039B5B4213604FF0FF33AC
:103110000393039B184605B05DF804FB00B589B026
:103120000590049103920293059BDB8BDBB203F0C5
:1031300003038DF81B30059BDB8BDBB2194605982A
:10314000FFF7F8FD0790079B002B01DA079B67E06C
:10315000059B9B680D99184600F02AFC0790079B79
:10316000002B3FDB0598FFF79FFE0790079B002B86
:103170003ADB029B002B07D0059B0A9A029918465E
:1031800007F0C2F9079007E0059B9DF81B200A99FC
:10319000184606F0F6FF0790079B002B26DB059BE1
:1031A0001846FFF755FC0790079B002B20DB9DF886
:1031B0001B3000930B9B1C4A0399059800F030FAD2
:1031C0000790079B002B15DB0C9A0499059800F0DB
:1031D0004FFA0790079B002B0EDB0598FFF7FAFDCF
:1031E000079B1DE000BF08E000BF06E000BF04E051
:1031F00000BF02E000BF00E000BF029B002B0AD12D
:10320000059BDB6B002B06D0059B9DF81B20114610
:10321000184607F052F8059B184600F0ABFD079BD7
:10322000184609B05DF804FBF936000800B587B010
:103230000190019B0593059B5B680493059B1B68AC
:103240000393049B002B03D1124A039B136002E0FB
:10325000049B039A1A60039B002B03D10D4A049B25
:10326000536002E0039B049A5A60059B00221A6097
:10327000059B00225A60019BDB8BDBB203F003034A
:10328000DBB21946019801F061F900BF07B05DF8A3
:1032900004FB00BF700B002000B58BB00190EFF372
:1032A000108372B6ADF80E30BDF80E30ADF81E309A
:1032B000484B1B68013309930023089332E0099BB4
:1032C000002B01DC01230993434B1B68013B099A46
:1032D00013400493414B1A68049B9B0013441B68E2
:1032E000002B19D13D4B1A68049B9B001344019A93
:1032F0001A60019B099ADA60364A099B1360BDF88F
:103300001E30ADF80C30BDF80C3013F0010F00D1B9
:1033100062B600BF002358E0099B01330993089B64
:10332000013308932C4B1B68089A9A42C7DB2A4B3F
:103330001B68DB00184606F0EBF903460693069B74
:10334000002B0DD1BDF81E30ADF80A30BDF80A30A3
:1033500013F0010F00D162B600BF6FF00B0334E031
:103360001D4B1B685B001C4A13600023089319E087
:103370001A4B1A68089B9B0013441B68DA68164BAB
:103380001B68013B13400493144B1A68089B9B0075
:103390001A44049B9B0006990B4412681A60089B10
:1033A000013308930C4B1B68DA0F13445B101A4669
:1033B000089B9342DCDB094B1B680593074A069B7D
:1033C0001360059806F072F972E718460BB05DF8C5
:1033D00004FB00BF780B0020800B00207C0B00203A
:1033E00000B589B00390029101920093394B1B689C
:1033F00007930398FFF750FF0690069B002B64D1BC
:10340000029BDAB2039B1A74029BDAB2039B5A74D2
:10341000039B019A5A61009A039B9A619DF8283098
:1034200003F003038DF82830039BDB8B23F00303A9
:103430009AB2039BDA83039BDA8B9DF828309BB208
:1034400013439AB2039BDA83039BDB8B23F0600365
:103450009AB2039BDA83039BDB8B43F020039AB27F
:10346000039BDA83039B14225A62039B079A483317
:10347000483292E8030083E80300039B00221A7796
:10348000039807F085F8FEF7EFFE039B0593059B75
:1034900000225A60104B1A68059B1A600E4B1B687D
:1034A000002B06D10C4A059B13600B4A059B536009
:1034B00006E0094B1B68059A5A60074A059B136092
:1034C000039B04221A77FEF7FFFE069B184609B0FD
:1034D0005DF804FB540B0020700B002000B58DB08C
:1034E000039002910192029805F066FE03460133B3
:1034F0000A9300230993019B002B26D01EE0099B11
:103500009B00019A13441B68184605F055FE0246BD
:103510000A9B134401330A93039B9B6B0A9A9A42BA
:1035200002D36FF0230377E0099B01330993099BD2
:10353000B3F5807F02DD6FF006036DE0099B9B0011
:10354000019A13441B68002BD9D1099B02339B00BD
:1035500007930398079A0A9B1344194606F06CFFD9
:103560000690069B002B02D16FF00B0354E0069AE5
:10357000079B13440B93069B0B9A1A60029805F065
:103580001BFE0346013305930A9A02990B9805F036
:10359000DDFD059B0B9A13440B93059B0A9AD31AE6
:1035A0000A930023089326E0089B01339B00069AA8
:1035B00013440B9A1A60089B9B00019A13441B68E2
:1035C000184605F0F9FD034601330593089B9B005F
:1035D000019A13441B680A9A19460B9805F0B6FD28
:1035E000059B0B9A13440B93059B0A9AD31A0A93D3
:1035F000089B01330893089A099B9A42D4DB099BE4
:1036000001339B00069A134400221A60039B9B68B7
:103610001B6C069A1A61002318460DB05DF804FB76
:1036200000B587B005900491039202939DF8203075
:103630000093029B039A04990598FFF7D1FE034675
:10364000184607B05DF804FB00B587B005900491FB
:103650000392029301230093029B039A0499059815
:10366000FFF7BEFE0346184607B05DF804FB0000F6
:1036700000B585B0039002910192029B002B01D10D
:10368000054B0293019A02990398FFF727FF03461F
:10369000184605B05DF804FBEC7E010800B587B064
:1036A0000190EFF3108372B6ADF80E30BDF80E3016
:1036B000ADF816300F4B1B680493019800F070FEB4
:1036C000019800F0C7FD0346002B03D00499019830
:1036D00006F0F0FEBDF81630ADF80C30BDF80C3039
:1036E00013F0010F00D162B600BF00BF07B05DF854
:1036F00004FB00BF540B002000B585B01C4B1B68B9
:103700000193012303930123029309E0029B0133F8
:103710000293029BB3F5807F02DD012000F014F9D3
:10372000019B9B681B6C1A69029B9B0013441B68DE
:10373000002BEBD1019BDB8B03F00303022B0AD19F
:10374000019B9B69019A9268126C1269114602985A
:103750009847039009E0019B9869019B9B681B6C4B
:103760001B691A46029904F017FC039800F0ECF864
:10377000540B002000B583B001900091009B9B6822
:10378000194601980DF0BAFE0346184603B05DF8DD
:1037900004FB00B583B001900091009B9968009BE9
:1037A000DB681A4601980DF00BFE0346184603B07D
:1037B0005DF804FB00B585B00190009100230393F0
:1037C000009B9B68194601980DF098FE009B03F141
:1037D0001401009BDA68009B1B6901980EF031FD13
:1037E0000290029B002B02DA029B039315E0009BE0
:1037F0009B68029A9A4210D0009B9B681A460299D5
:1038000001980DF0DDFD0390039B002B01DB0023ED
:103810000393029901980DF071FE039B184605B0C1
:103820005DF804FB00B585B001900091009B1B780A
:1038300003F00403002B13D0009B5B780293009BE2
:103840001B7803F00803002B1BD102AB194601982B
:1038500000F0AAFE0390039B002B12DA039B1FE0EB
:10386000009B1B7803F00803002B0AD002AB19461B
:103870000020FFF701FC0390039B002B01DA039B60
:103880000EE0009B1B7803F00803002B07D0009B81
:103890009B78194602AB1A46019800F0F0FF00230E
:1038A000184605B05DF804FB00B583B00190019B9C
:1038B000002B0CD0019B1B7803F02003002B06D0BB
:1038C000019B043300221946032001F04BF900BF8D
:1038D00003B05DF804FB00B585B0019000910023B2
:1038E0000293009B039323E0039B1B79032B12D0CD
:1038F000032B16DC012B02D0022B06D011E003991A
:103900000198FFF737FF02900FE003990198FFF746
:1039100040FF029009E003990198FFF74BFF0290E6
:1039200003E06FF01503029300BF039B1B68039332
:10393000039B002B02D0029B002BD5D0029B184684
:1039400005B05DF804FB000000B585B00190084BA0
:103950001B680393019BDBB20193039800F080FA8C
:103960000199039801F026FF019806F063FC00BF5F
:10397000540B002000B585B001904FF4DC7005F0C9
:10398000C7FE03460393039B002B02D16FF00B038A
:103990000AE0039B184604F0D4F8019B039A1A64CA
:1039A000019805F07FFA0023184605B05DF804FB86
:1039B00010B586B001900091002305930023049375
:1039C00000230393FEF750FC009B002B71D002E014
:1039D000049B01330493049B9B00009A13441B68CF
:1039E000002BF5D1049A019B9A65049B002B5DD0B6
:1039F000049B01339B00184605F068FE03460593BF
:103A0000059B002B03D16FF00B0303934EE0049B47
:103A10009B00059A134400221A6042E0049B9B001D
:103A2000009A13441B68184605F0C6FB0346013391
:103A30000293049B9B00059AD418029805F046FE59
:103A400003462360049B9B00059A13441B68002BCC
:103A500019D107E0049B9B00059A13441B68184684
:103A600005F024FE049B01330493049B9B00059AFC
:103A700013441B68002BEDD1059805F017FE6FF07D
:103A80000B03039312E0049B9B00059A13441868F0
:103A9000049B9B00009A13441B68029A194605F088
:103AA00055FB049B5A1E0492002BB7D1019B059A2B
:103AB0005A65FEF709FC039B184606B010BD82B09C
:103AC0000190009105E0019B01330193009B0133BC
:103AD0000093019B1A78009B1B789A42F3D0019BBC
:103AE0001B78002B05D1009B1B783D2B01D10123B6
:103AF00000E00023184602B0704700B585B0019081
:103B00000091019B5B6D002B02D16FF001031EE061
:103B10000023039311E0019B5A6D039B9B00134408
:103B20001B6819460098FFF7CAFF0346002B01D017
:103B3000039B0CE0039B01330393019B5A6D039B92
:103B40009B0013441B68002BE5D16FF0010318465E
:103B500005B05DF804FB00B583B001900091019BB6
:103B60005A6D009B9B0013441B68184605F09EFD90
:103B7000019B9B6D5A1E019B9A65019B9B6D009A50
:103B80009A4207D1019B5A6D009B9B00134400226F
:103B90001A6014E0019B5A6D019B9B6D9B001A44B7
:103BA000019B596D009B9B000B4412681A60019B9E
:103BB0005A6D019B9B6D9B00134400221A60019B70
:103BC0009B6D002B08D1019B5B6D184605F06EFDC7
:103BD000019B00225A650CE0019B5A6D019B9B6D75
:103BE00001339B001946104605F080FD0246019BFB
:103BF0005A6500BF03B05DF804FB000086B0019079
:103C0000EFF3108372B6ADF80C30BDF80C30ADF8A0
:103C10000E3000230493184B1B68059304E0059BAA
:103C20000493059B1B680593059B002B03D0059A05
:103C3000019B9A42F3D1059B002B0ED0049B002BD5
:103C400004D0059B1A68049B1A6003E0059B1B685F
:103C5000094A1360059B00221A60BDF80E30ADF8CA
:103C60000A30BDF80A3013F0010F00D162B600BF70
:103C700000BF06B0704700BFF810002000B583B049
:103C80000190019801F06EFE019801F023F901986E
:103C900000F0BBFA019B603318460DF0D1F9019892
:103CA00001F080FE019B7833184605F056FD01981F
:103CB000FFF7A4FF019B1B69002B07D0019B1B6929
:103CC000184605F0F3FC019B00221A61019B1B7B47
:103CD00043F00403DAB2019B1A73019800F067F80D
:103CE00000BF03B05DF804FB86B001900091002393
:103CF000059335E0019B1A69059B9B0013441B68E3
:103D0000009A9A4229D1EFF3108372B6ADF80E30C3
:103D1000BDF80E30ADF81230019B1A69019B5B7B38
:103D200003F18043013B9B001A44019B1969059BE9
:103D30009B000B4412681A60019B5B7B013BDAB26B
:103D4000019B5A73BDF81230ADF81030BDF8103039
:103D500013F0010F00D162B600BF059B013305933C
:103D6000019B5B7B1A46059B9342C3DB00BF00BFF0
:103D700006B0704700B585B00190019B9B68039326
:103D8000039B002B0FD0019BDB6819460398FFF7BC
:103D9000ABFF039B5B7B002B02D10398FFF76EFF09
:103DA000019B00229A6000BF05B05DF804FB00B5DE
:103DB00083B00190019B1B7D002B08D1019B1B7BD5
:103DC00003F00403002B02D0019805F06FFC00BF44
:103DD00003B05DF804FB00B583B001900023019AA5
:103DE000012100200FF06EFB0023019A0621012023
:103DF0000FF068FB0023019A062102200FF062FBFE
:103E00000023184603B05DF804FB00B585B00190AF
:103E10000091009B019A9A421CD0019800F026FB69
:103E20000390039B002B15D0039BDB8B23F0040333
:103E30009AB2039BDA83039BDB8B03F00303012B12
:103E400004D1019800F02CF8029003E0019801F0F1
:103E500039FC02900023184605B05DF804FB000011
:103E600000B585B00190FEF7FFF9019B9B681A7BB6
:103E7000019B9B6842F00802D2B21A73019B9868BA
:103E8000019BDB681A46054901F0F2FD0390FEF73D
:103E90001BFA039B184605B05DF804FB0B3E0008B7
:103EA00000B585B00190019B002B01D1032322E0D6
:103EB000019800F0DBFA0390039B002B01D1032350
:103EC00019E0039801F0ACFC0346002B01D000235D
:103ED00011E00B4B1B68039A9A4203D14FF0FF305D
:103EE00003F059FF4FF0FF31019800F086F8019878
:103EF00001F0CEFC0346184605B05DF804FB00BF98
:103F0000540B002000B585B00190019B0C3302AA30
:103F10001146184604F08FF80390039B002B29D11B
:103F2000029B002B26DA019B03F11800029B013350
:103F30001A46002104F03FF8019B0C33184601F0AB
:103F40001DFF0390039B002B07D1019B0C3302AA9A
:103F50001146184604F06FF80390029B002B02DA1A
:103F6000039B002BE8D0019B1833184600F0C4FDDA
:103F7000012300E00023184605B05DF804FB84B07F
:103F80000190009100230393019B9B6B029304E03B
:103F9000029B0393029B1B680293029B002B04D09D
:103FA000029B9B68009A9A42F2D1029B002B21D07F
:103FB000039B002B0FD1029B1B68002B06D1019B9A
:103FC00000229A63019B0022DA6313E0029B1A68C5
:103FD000019B9A630EE0029B1B68002B06D1019B9C
:103FE000039ADA63039B00221A6003E0029B1A68BB
:103FF000039B1A6000BF04B0704700B589B0019000
:104000000091019800F032FA0790079B002B02D034
:10401000079B9B6800E000230693069B2833184605
:1040200003F0F4FD02AB1A460199069800F0A6F8D9
:104030000590059B002B0ED0069B2833184603F0F5
:1040400005FE079BDB8B1BB2002B01DA00232BE064
:104050004FF0FF3328E0079B0493029B01229A71E3
:10406000029B009A5A62049B012283F89020029BD3
:104070001846FFF747FF03468DF80F309DF80F30C5
:1040800083F00103DBB2002B08D0029B5B79002B8D
:1040900004D0029B1946069800F00AF8069B2833C4
:1040A000184603F0D3FD0023184609B05DF804FB61
:1040B00000B583B001900091009B9B681946019860
:1040C000FFF75DFF009B1833184600F079FC009B5A
:1040D0000C33184600F074FC009805F0E7FA00BFB6
:1040E00003B05DF804FB00B585B001900091282075
:1040F00005F00EFB03461A46009B1A60009B1B68E6
:10410000002B01D1162335E0009B1B68019AD26871
:104110009A60009B1B680C3300220021184603F0B4
:104120004AFF0346002B06DA009B1B68184605F081
:10413000BDFA16231EE0019B9B680393009B1A683F
:10414000019BC3F88C20009B1B6800221A60039B14
:10415000DB6B002B04D1009B1A68039B9A6304E07D
:10416000039BDB6B009A12681A60009B1A68039B22
:10417000DA630023184605B05DF804FB00B587B08C
:10418000039002910192039B9A6B019B1A6004E0D9
:10419000019B1B681A68019B1A60019B1B68002B1E
:1041A00005D0019B1B689B68029A9A42F0D1019B43
:1041B0001B68002B01D0002323E0029800F056F981
:1041C0000590059B002B01D103231AE0059BDB8B97
:1041D0001BB2002B05DB059BDB8B03F00303012BDC
:1041E00001D016230DE0059B0493049B93F89030B7
:1041F000002B01D0032304E001990498FFF773FF1B
:104200000346184607B05DF804FB00B585B0019081
:1042100013E0019B9B6B0393039B1A68019B9A63BA
:10422000039B1833184600F0CBFB039B0C33184656
:1042300000F0C6FB039805F039FA019B9B6B002B3D
:10424000E7D1019B2833184603F09CFC00BF05B062
:104250005DF804FB00B585B001901B4B1B68029311
:10426000029BB3F92030002B10DD029B1A7C019BCE
:104270001B7C9A420AD21549019800F029F8019B4B
:1042800001221A7700238DF80F3017E00E490198AC
:1042900000F01EF80346002B0AD0019B03221A7778
:1042A000019B1B6802221A7701238DF80F3005E06D
:1042B000019B02221A7700238DF80F309DF80F30F2
:1042C000184605B05DF804FB540B0020600B00207D
:1042D00086B001900091019B1B7C8DF81230002369
:1042E0008DF81330009B1B68059302E0059B1B684B
:1042F0000593059B002B05D0059B1B7C9DF8122088
:104300009A42F3D9059B002B22D1009B5B68039353
:10431000039B002B0FD1019B00221A60019B0022FE
:104320005A60009B019A1A60009B019A5A6001230F
:104330008DF813302EE0019B00221A60019B039A36
:104340005A60039B019A1A60009B019A5A6021E00F
:10435000059B5B680393039B002B0FD1019B059A80
:104360001A60019B00225A60059B019A5A60009BCB
:10437000019A1A6001238DF813300BE0019B059A16
:104380001A60019B039A5A60039B019A1A60059B6D
:10439000019A5A609DF81330184606B07047000025
:1043A00086B00190019B1B7F8DF81730019B049311
:1043B000049B5B680393049B1B680293039B002B85
:1043C0001CD1019B1B7F284ADB0013441B7903F09F
:1043D0000803002B09D0019B5B6C019A127F1146E8
:1043E000214A52F83120134405E0019B1B7F1A46F5
:1043F0001D4B53F83230029A1A6002E0039B029A76
:104400001A60029B002B1CD1019B1B7F164ADB000C
:1044100013441B7903F00803002B09D0019B5B6C4C
:10442000019A127F1146104A52F83120134405E0D8
:10443000019B1B7F1A460C4B53F83230039A5A608B
:1044400002E0029B039A5A60049B00221A60049BBC
:1044500000225A60019B00225A64019B00221A77B5
:1044600000BF06B0704700BFDC7A010886B001903B
:1044700000230593EFF3108372B6ADF80A30BDF850
:104480000A30ADF812301A4B1B68002B21D0019B6B
:10449000002B1EDB174B1B68013B019A1340039353
:1044A000134B1A68039B9B0013441B68002B10D00E
:1044B0000F4B1A68039B9B0013441B68DB68019A2F
:1044C0009A4206D10A4B1A68039B9B0013441B684F
:1044D0000593BDF81230ADF80830BDF8083013F080
:1044E000010F00D162B600BF059B184606B07047A9
:1044F0007C0B0020800B002086B00190EFF310832E
:1045000072B6ADF80C30BDF80C30ADF816300D4B6E
:104510001B68013B019A134004930B4B1A68049BE0
:104520009B00134400221A60BDF81630ADF80E301F
:10453000BDF80E3013F0010F00D162B600BF00BF0E
:1045400006B07047800B00207C0B002000B585B0C2
:1045500001900B468DF8033000230393019B002B41
:104560001DD0019BDB681846FEF756F9019BDB68FE
:10457000002B04D0019BDB681846FFF7BDFF019BB1
:10458000DB6B002B05D09DF803301946019805F030
:1045900094FE0198FFF7EEFB019805F087F8039B66
:1045A000184605B05DF804FB00B587B00190009196
:1045B000009B002B02D16FF0150324E0FDF754FEA1
:1045C000134B1B680393019B002B04D0039BDB68F8
:1045D000019A9A4202D1039B05930AE00198FFF7E2
:1045E00045FF0590059B002B03D16FF00203049358
:1045F00006E0009B1B681946059800F005F9049039
:10460000FDF762FE049B184607B05DF804FB00BF8F
:10461000540B002000B585B00190009100990198DD
:10462000FFF7C2FF0390039B002B08DA03F026FA82
:104630000246039B5B4213604FF0FF330393039BDF
:10464000184605B05DF804FB00B587B001900091F5
:10465000019B1B680593059B1B7C1A46009B93429C
:1046600031DC1D4B1B680493049BB3F92030002BF5
:104670001BDD0021059801F0D3FB03468DF80F30B8
:1046800016490598FFF724FE059B01221A77019B26
:104690001B680593059B1B7C1A46009B9342E8DB35
:1046A000009BDAB2019B1A7411E00099019800F0A6
:1046B00057F90346002B0AD0074B1B68049918468C
:1046C00005F0F8FE03E0009BDAB2019B1A7400BF0C
:1046D00007B05DF804FB00BF540B0020600B002006
:1046E00000B585B001900091154B1B680393039BA7
:1046F0001B7C1A46009B93420DDD0099019800F047
:104700002FF90346002B17D00D4B1B680399184651
:1047100005F0D0FE10E00021019801F081FB034676
:104720008DF80B30009BDAB2019B1A740198FFF7E9
:1047300091FD03468DF80B3000BF05B05DF804FB1A
:10474000540B002000B589B001900091019B1B7FA4
:104750008DF81F30019B1B7F2A4ADB0013441B7915
:1047600003F00803002B09D0019B5B6C019A127FB8
:104770001146244A52F83120134405E0019B1B7F67
:104780001A46204B53F8323006939DF81F301D4ACD
:10479000DB0013441B7903F00103002B2AD0019B9B
:1047A0000593059B5B680493059B1B680393049B1F
:1047B000002B03D1069B039A1A6002E0049B039A24
:1047C0001A60039B002B03D1069B049A5A6002E0F7
:1047D000039B049A5A60059B00221A60059B0022E5
:1047E0005A60009BDAB2019B1A7406990198FFF790
:1047F0006FFD03E0009BDAB2019B1A7400BF09B0A1
:104800005DF804FBDC7A010800B585B001900091E9
:10481000009B002B02DD009BFF2B02DD6FF01503D8
:1048200029E0EFF3108372B6ADF80C30BDF80C3010
:10483000ADF80E30019B1B7F022B06D0032B09D154
:1048400000990198FFF700FF09E000990198FFF730
:1048500047FF04E000990198FFF774FF00BFBDF81F
:104860000E30ADF80A30BDF80A3013F0010F00D158
:1048700062B600BF0023184605B05DF804FB00B522
:1048800089B0039002910192029B002B08D0029BF9
:10489000012B05D0029B022B02D06FF015035AE0CA
:1048A000019B1B68002B03DD019B1B68FF2B02DDB6
:1048B0006FF015034FE0039B002B02D101F034F899
:1048C00003900398FFF7D2FD0790079B002B02D1BE
:1048D0006FF002033FE0FDF7C7FCEFF3108372B601
:1048E000ADF81230BDF81230ADF81A30079BDB8BF3
:1048F00023F060039AB2079BDA83029B002B0AD055
:10490000029B022B07D0079BDA8B079BDA83079B5E
:1049100000225A620AE0079BDB8B43F020039AB225
:10492000079BDA83079B14225A6200BFBDF81A3036
:10493000ADF81030BDF8103013F0010F00D162B6A1
:1049400000BF019B1B6819460798FFF75DFF0590A4
:10495000FDF7BAFC059B184609B05DF804FB0000A2
:1049600000B585B0019000910021019801F058FA3E
:1049700003468DF80F30009BDAB2019B1A74019840
:10498000FFF768FC03461A469DF80F305340DBB230
:10499000002B14BF012300238DF80F309DF80F303A
:1049A000002B05D0054B1B68002B01D0FEF702FB46
:1049B0009DF80F30184605B05DF804FB600B002031
:1049C00082B00190019B1B881BB2002B02DB019B74
:1049D00001221A800023184602B0704700B585B046
:1049E0000190019B002B07D103F048F803461622E3
:1049F0001A604FF0FF3310E00198FFF7E1FF0390DA
:104A0000039B002B08DA03F039F80246039B5B4254
:104A100013604FF0FF330393039B184605B05DF816
:104A200004FB000000B587B00190324B1B68049373
:104A3000EFF3108372B6ADF80A30BDF80A30ADF866
:104A40000E30019B1B881BB2002B0EDD019B1B88C7
:104A50001BB29BB2013B9BB21AB2019B1A80049B12
:104A600000225A640023059334E0019B1B881BB28B
:104A70009BB2013B9BB21AB2019B1A80049B019A24
:104A80005A64049B00225A840121049801F0C8F959
:104A900003468DF80D30049B05221A77019B0433E1
:104AA00019460498FFF714FC9DF80D30002B05D033
:104AB000104B1B680499184605F0FCFC049BB3F9E5
:104AC0002230002B04D0049BB3F922305B4200E07B
:104AD00000230593BDF80E30ADF80830BDF808305E
:104AE00013F0010F00D162B600BF059B184607B056
:104AF0005DF804FB540B002000B585B001900198CF
:104B0000FFF790FF0390039B13F1040FF7D0039B73
:104B1000184605B05DF804FB00B585B00190019B17
:104B2000002B07D102F0AAFF034616221A604FF0AD
:104B3000FF3313E00198FFF775FF0390039B002BF1
:104B40000BDA039B5B42029300BF02F097FF024621
:104B5000029B13604FF0FF3300E00023184605B0BE
:104B60005DF804FB00B589B00390029101922F4BD0
:104B70001B68069300230793FDF776FB019B002B30
:104B800006D0019A069B483393E8030082E80300AD
:104B9000029B002B42D0EFF3108372B6ADF81430B5
:104BA000BDF81430ADF81630039B032B1DD0039BCA
:104BB000032B22DC039B012B03D0039B022B0AD087
:104BC0001BE0069B03F14800069B4833029A1946F6
:104BD00003F055FB15E0069B03F14800069B4833A4
:104BE000029A194603F00CFB0BE0069B029A48332D
:104BF00092E8030083E8030003E06FF015030793D6
:104C000000BFBDF81630ADF81230BDF8123013F009
:104C1000010F00D162B600BF00F00AF8FDF754FBA7
:104C2000079B184609B05DF804FB00BF540B002039
:104C300000B589B0274B1B680793FDF715FB6B4642
:104C40000799184601F0A0FA03AB6A4692E8030000
:104C500083E80300079B03F1480203A903AB18464E
:104C600003F0CEFA03AB184603F047FB0346002BD4
:104C700003D0FDF729FB002328E003AB184600F022
:104C8000E3F80690069BB3F1FF3F15D003AB0699FE
:104C9000184603F06DFA0699079800F01DF8059084
:104CA000059B002B08D0059B04331946079800F09C
:104CB000B1FA059800F056F803AB184603F01DFB57
:104CC0000346002BD9D0FDF7FFFA0123184609B09F
:104CD0005DF804FB540B002000B589B001900091F1
:104CE000019B9B680593EFF3108372B6ADF810300B
:104CF000BDF81030ADF8123000230693059BDB6C35
:104D0000079304E0079B0693079B1B680793079B89
:104D1000002B05D0079B1B791A46009B9342F1D1CB
:104D2000079B002B0ED0069B002B06D0059B4C3317
:104D30001946069803F085F804E0059B4C331846A5
:104D400003F065F8BDF81230ADF80E30BDF80E3046
:104D500013F0010F00D162B600BF079B184609B0DF
:104D60005DF804FB00B589B00190019B1B7C002B12
:104D70002AD1EFF3108372B6ADF81230BDF81230BD
:104D8000ADF81E30019B0593059B00221A602C4B49
:104D90001B68002B06D12A4A059B1360284A059BF5
:104DA000536006E0264B5B68059A1A60244A059B0F
:104DB0005360BDF81E30ADF81030BDF8103013F060
:104DC000010F00D162B636E0019B1B7C022B2AD179
:104DD000EFF3108372B6ADF80E30BDF80E30ADF8BB
:104DE0001E30019B0693069B00221A60154B1B6820
:104DF000002B06D1134A069B1360124A069B536090
:104E000006E0104B5B68069A1A600E4A069B5360D8
:104E1000BDF81E30ADF80C30BDF80C3013F0010FAA
:104E200000D162B607E0019B1B7C012B03D10198E6
:104E300004F03CFCFFE700BF09B05DF804FB00BFD5
:104E40009C0F0020A40F002000B585B00190012325
:104E500003930BE00399019803F066FA0346002BD5
:104E600001D0039B07E0039B01330393039B3F2B7C
:104E7000F0DD4FF0FF33184605B05DF804FB00B5D8
:104E800085B0019002E0039801F036FA019B583397
:104E9000184602F0BCFF0390039B002BF3D102E005
:104EA000039801F029FA019B6033184602F0AFFF26
:104EB0000390039B002BF3D1019B4833184603F06A
:104EC0008AF9019B5033184603F071F900BF05B011
:104ED0005DF804FB00B585B0019002E0039801F095
:104EE00021F9019B4433184602F091FF0390039B84
:104EF000002BF3D102E00298FFF734FF019B4C3303
:104F0000184602F084FF0290029B002BF3D100BFF1
:104F100000BF05B05DF804FB82B0064B1B68002B98
:104F200014BF012300238DF807309DF80730184681
:104F300002B07047500B002000B589B0019000917D
:104F400000230793FDF790F9019B9A68009B1B785B
:104F50001946104601F05CF90690069B002B5ED0C6
:104F6000069B5B68002B5AD001F084F90590059BE5
:104F7000002B03D16FF00B03079350E0069B5A6898
:104F8000059B5A60059B069A0833083292E8030095
:104F900083E80300069B1B6903F02003002B08D164
:104FA000059B03F10802009B1B781946104603F08D
:104FB000C6F8059B10330C220099184604F027F917
:104FC000EFF3108372B6ADF80A30BDF80A30ADF8D1
:104FD0001230059B0393039B00221A60019B9B6D7B
:104FE000002B06D1019B039A9A65019B039ADA650F
:104FF00006E0019BDB6D039A1A60019B039ADA6558
:105000000A49019805F018FBBDF81230ADF80830D8
:10501000BDF8083013F0010F00D162B600BFFDF7F4
:1050200053F9079B184609B05DF804FBB554000816
:1050300000B585B0FFF770FF0346002B0BD01B486F
:1050400002F0E5FE0390039B002B2AD1184802F0E2
:10505000DEFE039025E0EFF3108372B6ADF8063064
:10506000BDF80630ADF80A30104802F0D0FE0390CB
:10507000BDF80A30ADF80830BDF8083013F0010F64
:1050800000D162B600BF039B002B0AD1142004F0AC
:105090001DFB03460393039B002B02D0039B0122BD
:1050A0001A74039B184605B05DF804FB9C0F0020A2
:1050B000A40F002086B00190009100230593EFF328
:1050C000108372B6ADF81030BDF81030ADF8123064
:1050D000019BDB6C059302E0059B1B680593059B18
:1050E000002B05D0059B1B791A46009B9342F3D1F8
:1050F000BDF81230ADF80E30BDF80E3013F0010FD0
:1051000000D162B600BF059B184606B0704700B5D7
:1051100085B001900091019B9B680393009B1B78D5
:105120001946039801F074F80290029B002B11D0ED
:10513000029B1B6903F08003002B0BD0029B5A6972
:10514000009B9A60029B5B68009A127810460022CE
:105150000099984700BF05B05DF804FB00B589B021
:1051600001900091019B9B680793009B1B78194657
:105170000798FFF79FFF0690069B002B07D0069B22
:1051800004330C220099184604F041F83DE0FFF783
:105190004FFF0690069B002B37D0069B04330C2252
:1051A0000099184604F033F8EFF3108372B6ADF8A7
:1051B0000E30BDF80E30ADF81630069B0493049BFC
:1051C00000221A60079BDB6C002B06D1079B049A18
:1051D000DA64079B049A1A6506E0079B1B6D049A24
:1051E0001A60079B049A1A65BDF81630ADF80C30AA
:1051F000BDF80C3013F0010F00D162B600BF069B62
:10520000043319460198FFF782FF00BF09B05DF82B
:1052100004FB000000B591B001900091924B1B6817
:105220000E9300230F93009B1B78002B01D10023CA
:1052300015E1019B03F14802009B1B7819461046BB
:1052400003F072F80D900D9B012B78D1EFF31083D2
:1052500072B6ADF81630BDF81630ADF83230019B9D
:105260001B7F062B5BD10D9B002B0BD0019B03F109
:105270005002009B1B781946104603F055F8034670
:10528000002B4CD0019B68330C220099184603F088
:10529000BEFF019B5033184602F089FF019B1B6B38
:1052A000002B04D0019B28331846FDF7E9FB019B36
:1052B0000893089B5B680793089B1B680693079BF2
:1052C000002B03D1694A069B136002E0079B069AF4
:1052D0001A60069B002B03D1644A079B536002E0CF
:1052E000069B079A5A60089B00221A60089B0022BE
:1052F0005A600198FEF7AEFF0346002B03D00E99CB
:10530000019805F0D7F8BDF83230ADF81430BDF88B
:10531000143013F0010F00D162B600BF6DE0BDF88C
:105320003230ADF81230BDF8123013F0010F00D159
:1053300062B600BF00990198FFF710FF5DE0009989
:105340000198FFF7F9FD0F90EFF3108372B6ADF8F7
:105350001030BDF81030ADF83230019B1B7F062BAA
:1053600040D1019B68330C220099184603F04FFF8F
:10537000019B5033184602F01AFF019B1B6B002B58
:1053800004D0019B28331846FDF77AFB019B0B9351
:105390000B9B5B680A930B9B1B6809930A9B002B72
:1053A00003D1324A099B136002E00A9B099A1A60F2
:1053B000099B002B03D12D4A0A9B536002E0099BF5
:1053C0000A9A5A600B9B00221A600B9B00225A60BB
:1053D0000198FEF73FFF0346002B03D00E9901987A
:1053E00005F068F8BDF83230ADF80E30BDF80E307B
:1053F00013F0010F00D162B600BF0D9B002B27D127
:10540000EFF3108372B6ADF80C30BDF80C30ADF888
:105410003230019B1B7F052B03D10421019800F042
:1054200035FE019B1B7F072B03D0019B1B7F082BA5
:1054300003D10421019800F025FCBDF83230ADF80D
:105440000A30BDF80A3013F0010F00D162B600BF78
:105450000D9B002B02DA6FF015030F930F9B18467C
:1054600011B05DF804FB00BF540B0020680B002056
:1054700000B585B0019000910198FEF7F7FF02900A
:10548000029B002B03D0029B9B68039303E00198CF
:1054900000F0B6FA0390039B002B05D00099039807
:1054A00000F08AFB034601E06FF00203184605B0E6
:1054B0005DF804FB00B595B0019002F0DFFA0346F9
:1054C0001B681293019B5B8CADF84630EFF31083A1
:1054D00072B6ADF83630BDF83630ADF84430019BC9
:1054E000DB8B03F40073002B0BD0BDF84430ADF818
:1054F0003430BDF8343013F0010F00D162B600BF74
:10550000D3E0019B5833184602F081FC1090109BA9
:10551000002B0BD1BDF84430ADF83230BDF832303D
:1055200013F0010F00D162B600BFBEE0019BDB8B20
:1055300043F400739AB2019BDA83109B0F930F9B85
:1055400000221A60019B1B6E002B06D1019B0F9A53
:105550001A66019B0F9A5A6606E0019B5B6E0F9AD2
:105560001A60019B0F9A5A66019A09AB483292E879
:10557000030083E80300109B03F1080209A907ABAD
:10558000184602F07CFE109B1B7C1A4607AB1146A6
:10559000184602F0B6FD019B483307AA92E80300C3
:1055A00083E80300BDF84430ADF82E30BDF82E304E
:1055B00013F0010F00D162B600BF109B5B68109A18
:1055C000127C1046109A02F1100100229847EFF366
:1055D000108372B6ADF83030BDF83030ADF84430DD
:1055E000019BDB8B23F400739AB2019BDA83019B4E
:1055F00003F1480107AA05AB184602F05FFE019BC4
:1056000003F1480105AA03AB184602F019FE05AAEA
:1056100009A905AB184602F0F3FD019B483303AA24
:1056200005A9184602F02BFE109B0E93019B1B6EE2
:10563000002B29D00E9B002B26D0019B1B6E0E9AAF
:105640009A420CD10E9B1A68019B1A66019B5B6EF5
:105650000E9A9A4218D1019B00225A6614E0019BCF
:105660001B6E13930DE0139B1B680E9A9A4205D193
:10567000019B60331946139802F0E3FB139B1B68F0
:105680001393139B002BEED1BDF84430ADF82C30B2
:10569000BDF82C3013F0010F00D162B600BFFFF748
:1056A000C7FA109800F028FE10E702F0E7F902466A
:1056B000129B1360019BBDF846205A8400BF15B0B1
:1056C0005DF804FB00B587B00190204B1B68059383
:1056D000019B002B02D1059BDB6801930198FEF72B
:1056E000C5FE0490049B002B02D16FF0020328E05A
:1056F000059BDB8B03F00303022B08D0049BDB8BA1
:1057000003F00303022B02D16FF00C0319E0059B99
:10571000DB68019A9A4202D10020FEF715F904983D
:1057200000F07EF80346002B01D0002309E0019829
:1057300000F0AEF80390039B002B01DA039B00E01E
:105740000023184607B05DF804FB00BF540B00208F
:1057500000B585B001900091019B9B680393039B6A
:10576000002B23D0019BDB8B03F00303012B08D01C
:10577000039B5B6A002B04D0039B5B6A009A1202B6
:105780001A60039B5B7B012B10D1039B00225A62A2
:10579000039B00225A7504E0039B1833184600F05F
:1057A000BFFB039B1B8B1BB2002BF5DB00BF05B0BF
:1057B0005DF804FB00B583B001900091019BDB8B89
:1057C00003F40063002B14D1019800F016F800993F
:1057D0000198FFF7BDFF0198FEF7CCFA0198FFF79B
:1057E0004EFB019BDB8B43F400639AB2019BDA838F
:1057F00000E000BF03B05DF804FB00B583B001908A
:10580000019800F0D2FA019800F0C0F8019800F079
:1058100014FC019800F012FA00BF03B05DF804FB1D
:1058200086B0019000238DF81730EFF3108372B625
:10583000ADF81230BDF81230ADF81430019BDB8B9F
:1058400003F00403002B13D0019BDB8B43F0100308
:105850009AB2019BDA83BDF81430ADF81030BDF870
:10586000103013F0010F00D162B600BF01230CE02D
:10587000BDF81430ADF80E30BDF80E3013F0010F46
:1058800000D162B600BF9DF81730184606B07047C9
:1058900000B587B00190EFF3108372B6ADF80C300D
:1058A000BDF80C30ADF816300198FEF7DFFD04901E
:1058B000049B002B0DD1BDF81630ADF80A30BDF8B1
:1058C0000A3013F0010F00D162B600BF6FF002037F
:1058D00025E0049B1B7F8DF80F300021049800F019
:1058E0009FFA049B9DF80F201A77BDF81630ADF88B
:1058F0000830BDF8083013F0010F00D162B600BFC8
:1059000000210498FFF756FF049BDB8BDBB203F00A
:105910000303DBB219460498FEF718FE0346184647
:1059200007B05DF804FB000082B00A4B1B680193CE
:10593000019B002B09D0019B1B7F032B02D1019BF4
:10594000DB6803E06FF0020300E00023184602B0BA
:10595000704700BF540B002008B5FFF7E5FF034672
:10596000184608BD00B585B00190019B1B6C0393E0
:10597000019803F0CBFA039B184602F003F9039851
:1059800003F094FE00BF05B05DF804FB00B583B0E2
:105990000190019B28331846FDF772F800BF03B051
:1059A0005DF804FB00B585B00190019B5B6D002B99
:1059B0001BD0002303930BE0019B5A6D039B9B00BC
:1059C00013441B68184603F071FE039B01330393D5
:1059D000019B5A6D039B9B0013441B68002BEBD16A
:1059E000019B5B6D184603F061FE019B00225A6526
:1059F000019B00229A6500BF05B05DF804FB000022
:105A000086B00190EFF3108372B6ADF81030BDF898
:105A10001030ADF81230154B1B68059314E0059B50
:105A20005B68019A9A420CD1BDF81230ADF80E3085
:105A3000BDF80E3013F0010F00D162B600BF059B18
:105A400011E0059B1B680593059B002BE7D1BDF872
:105A50001230ADF80C30BDF80C3013F0010F00D14E
:105A600062B600BF0023184606B07047F810002049
:105A700000B587B0039002910192039B5B7B013BD1
:105A8000059312E0039B1A69059B9B0013441A6857
:105A9000029B0199104698470490049B002B01D06B
:105AA000049B06E0059B013B0593059B002BE9DA6F
:105AB0000023184607B05DF804FB00B587B00190DD
:105AC0000091009B05930198FEF7D0FC0490049B85
:105AD000002B6CD0059B5B68002B02D1059B049AC0
